:020000040000FA
:060000000A128A110E280D
:10000800FE00030EF1000408F2000A08F3000A12C9
:100018008A15C02E0A128A1111288313AC30FD00EC
:100028000E30FE005130FF00A03084000A128A15FD
:1000380070260A128A116530FD000E30FE001C3051
:10004800FF00603084000A128A1570260A128A118D
:100058004C30840060300A128A153626F601F70102
:10006800F801F901FA0183010A128A15212E831277
:100078000313CA01CB012830840060088313800071
:10008800840A61088000840A62088000840A630880
:100098008000840A640880000A128A11A3240A12C4
:1000A8008A11003A0319B12800300A128A15A327C9
:1000B8000A128A1101300A128A15A3270A128A1114
:1000C80008300A128A15A3270A128A1101300A1267
:1000D8008A15A3270A128A119B3083120313A800DA
:1000E8008330A9000A128A1510270A128A111A30B9
:1000F80083120313C9005E30C8006D30C700C70BF8
:100108008328C80B8328C90B83288A280C300A1235
:100118008A15A3270A128A1101300A128A15A32701
:100128000A128A119D3083120313A8008430A90093
:100138000A128A1510270A128A111A308312031319
:10014800C9005E30C8006D30C700C70BA928C80BAE
:10015800A928C90BA928B028B9280130831203138C
:10016800CA070318CB0A0030CB071A3083120313CF
:10017800C9005E30C8006D30C700C70BC128C80B66
:10018800C128C90BC128C82800300A128A15A3271C
:100198000A128A1101300A128A15A3270A128A1133
:1001A80008300A128A15A3270A128A1101300A1286
:1001B8008A15A3270A128A118A3083120313A8000A
:1001C8008330A9000A128A1510270A128A111A30D8
:1001D80083120313C9005E30C8006D30C700C70B17
:1001E800F328C80BF328C90BF328FA280C300A1295
:1001F8008A15A3270A128A1101300A128A15A32721
:100208000A128A110A128A15E2260A128A11831220
:10021800031343034404031D1B299D30A8008430A5
:10022800A9000A128A1510270A128A112C2960308F
:10023800A8008430A9000A128A1510270A128A1108
:10024800013083120313CA070318CB0A0030CB0707
:100258001A3083120313C9005E30C8006D30C7001E
:10026800C70B3429C80B3429C90B34293B29003062
:100278000A128A15A3270A128A1101300A128A154E
:10028800A3270A128A1108300A128A15A3270A120C
:100298008A1101300A128A15A3270A128A117930A5
:1002A80083120313A8008330A9000A128A151027A5
:1002B8000A128A110A128A155D260A128A11C53095
:1002C80083120313C70047089F050D3083120313D9
:1002D800C800FB30C700C70B6F29C80B6F298312F2
:1002E80003131F151F1976291A3083120313C90027
:1002F8005E30C8006D30C700C70B8029C80B802945
:10030800C90B802987290C300A128A15A3270A12DB
:100318008A1101300A128A15A3270A128A11831634
:1003280003131E08831203131E04031DAD29603036
:10033800A8008430A9000A128A1510270A128A1107
:10034800013083120313CA070318CB0A0030CB0706
:10035800B6299D30A8008430A9000A128A151027F2
:100368000A128A111A3083120313C9005E30C800BA
:100378006D30C700C70BBE29C80BBE29C90BBE29E3
:10038800C52900300A128A15A3270A128A110130DA
:100398000A128A15A3270A128A1108300A128A1526
:1003A800A3270A128A1101300A128A15A3270A12F2
:1003B8008A11533083120313A8008330A9000A124C
:1003C8008A1510270A128A110F3083160313860024
:1003D8001A3083120313C9005E30C8006D30C7009D
:1003E800C70BF429C80BF429C90BF429FB290C30D5
:1003F8000A128A15A3270A128A1101300A128A15CD
:10040800A3270A128A11CE3083120313A80083305F
:10041800A9000A128A1510270A128A111A308312A3
:100428000313C9005E30C8006D30C700C70B1A2A15
:10043800C80B1A2AC90B1A2A212A00300A128A154F
:10044800A3270A128A1101300A128A15A3270A1251
:100458008A1108300A128A15A3270A128A11013054
:100468000A128A15A3270A128A1167308312031306
:10047800A8008330A9000A128A1510270A128A11C7
:100488001A3083120313C9005E30C8006D30C700EC
:10049800C70B4C2AC80B4C2AC90B4C2A532A0C30C0
:1004A8000A128A15A3270A128A1101300A128A151C
:1004B800A3270A128A110A128A15A8260A128A1173
:1004C8000A128A1591260A128A11031C772A9D306E
:1004D80083120313A8008430A9000A128A15102772
:1004E8000A128A118A2A813083120313A8008430E1
:1004F800A9000A128A1510270A128A1101308312DC
:100508000313CA070318CB0A0030CB071A3083122B
:100518000313C9005E30C8006D30C700C70B922AAC
:10052800C80B922AC90B922A992A00300A128A15F6
:10053800A3270A128A1101300A128A15A3270A1260
:100548008A110C300A128A15A3270A128A11003060
:100558000A128A15A3270A128A11EA308312031392
:10056800A8008330A9000A128A1510270A128A11D6
:10057800831203134A08303E0A128A112F260A12E0
:100588008A11333083120313C900BB30C800DF302F
:10059800C700C70BCD2AC80BCD2AC90BCD2A080026
:1005A800831203132208FF00210884000A128A110B
:1005B80000230A128A11003A031908002208FF00D2
:1005C800210884000A128A1100230A128A110A12C9
:1005D8008A152E260A128A11013083120313A107E5
:1005E8000318A20A0030A207D42A0A128A153E2646
:1005F8008316031311150800FF1B0A2B83137F189A
:1006080083170008840A0319FF0A08007F087F3946
:100618008A000408840A0319FF0A8200013400349E
:100628000A34003464340034E83403341034273492
:1006380001340234033404340534063402340534F6
:100648000434093406340634413454342B344334E6
:1006580057345334413450345F3444344534463489
:100668003D34223473346134663465346734753408
:1006780061347234643422342C3422347334613457
:1006880066346534673475346134723464342234C2
:100698002C3435342C3433340D340A340034493492
:1006A8006E3469347434693461346C3469347A343E
:1006B80069346E3467342034523445344C34413410
:1006C80059345334003449346E34693474346934D9
:1006D80061346C3469347A3469346E346734203464
:1006E8005734493446344934003449346E34693413
:1006F8007434693461346C3469347A3469346E34EE
:1007080067342034413444344334003449346E343B
:1007180069347434693461346C3469347A346934D2
:100728006E346734203452345434433400344934FA
:100738006E3469347434693461346C3469347A34AD
:1007480069346E34673420344C34433444340034D0
:10075800503457345234203420343A3420347334EB
:1007680061346634653467347534613472346434A2
:100778000034533453344934443420343A34203424
:100788007334613466346534673475346134723473
:10079800643400345434613473346B342034433457
:1007A8006F346D3470346C346534743465340034AB
:1007B800413454342B34433449345034533454344E
:1007C8004134523454343D342234003445345234A4
:1007D80052344F345234203446344F3455344E3426
:1007E80044343D340034413454342B344334493494
:1007F8005034533445344E3444343D340034413459
:1008080054342B34433457345134413450340D3438
:100818000A340034413454342B3443344934463494
:10082800533452340D340A340034413454342B34A4
:10083800433457344A34413450343D34223400343C
:10084800413454342B34433457344D344F344434C6
:1008580045343D3400346E346F34203463346834A6
:1008680061346E34673465340034413454342B3485
:100878005234533454340D340A34003456346F34FB
:100888006C347434613467346534003443347534FB
:100898007234723465346E34743400344C346934D0
:1008A8006E346B3465346434003455346E346C34CF
:1008B80069346E346B3400344534523452344F3416
:1008C800523400342B344934503444342C340034FA
:1008D8007234653461346434793400342F3420340C
:1008E8003234303400340D340A340D340A340034D0
:1008F800413454340D340A340034463441344934D4
:100908004C34003422340D340A34003422342C346C
:10091800223400344134543445340034543443349C
:1009280050340034553444345034003422342C3498
:1009380000344F344B34003425347534003460307F
:10094800840083120313280883138000840A29086B
:100958008000840A2A088000840A2B088000840A00
:100968002C08800000306106031DBC2C0530600691
:10097800031DC22C831603138501F42C0030610675
:10098800031DC82C06306006031DCE2C83160313E6
:100998008601F42C00306106031DD42C0730600654
:1009A800031DDA2C831603138701F42C003061062B
:1009B800031DE02C08306006031DE62C8316031384
:1009C8008801F42C00306106031DEC2C0930600608
:1009D800031DF22C831603138901F42C0030080040
:1009E800823083120313AE00DD30AD00AD0BFA2C5C
:1009F800AE0BFA2C03300A128A15A3270A128A11A1
:100A0800213083120313AE007530AD00AD0B0A2DF3
:100A1800AE0B0A2D0F2D03300A128A15A3270A12CE
:100A28008A11683083120313AE00E330AD00AD0BBA
:100A38001B2DAE0B1B2D202D03300A128A15A32760
:100A48000A128A1102300A128A15A3270A128A1179
:100A580002300A128A15A3270A128A1108300A12CC
:100A68008A15A3270A128A1100300A128A15A327A9
:100A78000A128A1106300A128A15A3270A128A1145
:100A8800083083120313AD002D08AF002F152F086F
:100A9800AD0004300310AD0CFF3E031D4E2D2D0894
:100AA8000F390A128A15A3270A128A11831203130F
:100AB8002F080F390A128A15A3270A128A11003043
:100AC8000A128A15A3270A128A1101300A128A15F6
:100AD800A3270130080083120313A300231C892DC8
:100AE8000130A00063080739013E7C2D0310A00DDA
:100AF800FF3E031D7A2D2008A1006008840083179B
:100B0800611C8313210880049E2D0130A000630816
:100B18000739013E912D0310A00DFF3E031D8F2DB7
:100B28002008FF3AA100600884008317611C831322
:100B380021088005A31CB82D0130A000630CA1007A
:100B4800A10C210C0739013EAB2D0310A00DFF3E6F
:100B5800031DA92D2008A200600884008317611CCA
:100B6800831322088004D02D0130A000630CA1005B
:100B7800A10C210C0739013EC32D0310A00DFF3E27
:100B8800031DC12D2008FF3AA200600884008317C6
:100B9800611C831322088005231DE72D0130A00066
:100BA80064080739013EDA2D0310A00DFF3E031D2E
:100BB800D82D2008A100600884008317611C8313C6
:100BC80021088004FC2D0130A00064080739013E8B
:100BD800EF2D0310A00DFF3E031DED2D2008FF3A59
:100BE800A100600884008317611C83132108800515
:100BF800A31D162E0130A000640CA100A10C210C2D
:100C08000739013E092E0310A00DFF3E031D072ED4
:100C18002008A200600884008317611C831322083F
:100C2800800408000130A000640CA100A10C210C74
:100C38000739013E212E0310A00DFF3E031D1F2E74
:100C48002008FF3AA200600884008317611C831300
:100C580022088005080083120313A7000130A400AE
:100C680062080739013E3A2E0310A40DFF3E031D0A
:100C7800382E2408A500600884008317611C83139C
:100C8800250880042708A40004300310A40CFF3EA4
:100C9800031D492E24080F390A128A116F250A12DA
:100CA8008A11013083120313A400620CA500A50C5D
:100CB800250C0739013E622E0310A40DFF3E031DCB
:100CC800602E2408A600600884008317611C831323
:100CD80026088004413083120313A400A40B722E4B
:100CE800752E013083120313A400620CA500A50C15
:100CF800250C0739013E822E0310A40DFF3E031D6B
:100D0800802E2408FF3AA600600884008317611C1F
:100D180083132608800527080F390A128A116F25C0
:100D28000A128A11013083120313A400620CA50071
:100D3800A50C250C0739013EA32E0310A40DFF3E78
:100D4800031DA12E2408A600600884008317611CD7
:100D5800831326088004413083120313A400A40BD4
:100D6800B32EB62E013083120313A400620CA50023
:100D7800A50C250C0739013EC32E0310A40DFF3E18
:100D8800031DC12E2408FF3AA600600884008317BB
:100D9800611C831326088005080030308400063063
:100DA800FF0083138001840AFF0BD52E24308400B2
:100DB800A03083120313A0000408A1000C30A20085
:100DC8002008840083130008A300A00A21088400D7
:100DD80023088000A10AA20BE42EB801B80A38083B
:100DE80003195A2F0A128A1547260A128A118312E2
:100DF8000313A0002008B600B9013908A000200795
:100E0800243E840083130008A100840A0008A2007D
:100E18003908303E8400000821078400220803189E
:100E2800220AFF000A128A1100230A128A113606C2
:100E3800031D4C2F0130A0003908303E84002008E3
:100E4800831380073908223E840083300318013E4B
:100E5800FF000A128A1100230A128A11A000390819
:100E6800303E8400831300082006031D512F3908E3
:100E78001C3E840083300318013EFF000A128A11C9
:100E880000230A128A11A0002008B700B801512FC8
:100E98003908303E8400831380010130A000200807
:100EA800B907063039020318F32E012F3708080056
:100EB800003083120313B9000030B8000030B700C7
:100EC8000030B60030082F042E042D040319B32F68
:100ED800BA01BA0AB01B7E2F0130B5000310AD0D60
:100EE800AE0DAF0DB00DB50B722F0130B500350842
:100EF800BA076E2F0130B5000310B60DB70DB80D47
:100F0800B90DB50B802F30083402031D952F2F081B
:100F18003302031D952F2E083202031D952F2D082D
:100F28003102031CA62F2D08B1022E08031C2E0F18
:100F3800B2022F08031C2F0FB3023008031C300F16
:100F4800B402361401300310B00CAF0CAE0CAD0C6B
:100F5800FF3E031DA72F0130BA02031D7E2F39085B
:100F6800B0003808AF003708AE003608AD000800FA
:100F7800003083120313AC000030AB000030AA002D
:100F88000030A900201CDC2F2408A907250803111C
:100F98000318013E031DAA07260803110318013E82
:100FA800031DAB07270803110318013E031DAC07F7
:100FB8000130A8000310A40DA50DA60DA70DA80BC0
:100FC800DE2F01300310A30CA20CA10CA00CFF3ED5
:100FD800031DE62F2308220421042004031DC62F25
:100FE8002C08A3002B08A2002A08A1002908A000A9
:020FF8000800EF
:101C3800083400341A342C343E340A128A113B20FA
:101C48000A128A15262E0A128A153E2683160313AF
:101C58001114080083120313A0000C1E312E200853
:101C68009900080064008001840A040603190034FE
:101C78000406372E8316031314193E2E11081F3934
:101C8800031908003E2E83120313981C4D2E1812B8
:101C980018168C1E4D2E1A0808009D3484346C3496
:101CA8008434813484342F34843452348434593421
:101CB8008434FF30831603138500413083120313E5
:101CC8009F00C030831603139F000B178B17080063
:101CD8007E088A007F0882006C260A128A15800016
:101CE800840A04087D0603190034FF0A0319FE0A52
:101CF800702E83120313A0000A128A153E260A12B8
:101D08008A15831203132008930083160313111BEB
:101D18008F2E03100800031408007C30831203136D
:101D2800A1008430A2000A128A11D4220A128A154C
:101D38000A128A11D1260A128A15013A0319A62E07
:101D480003100800031408008316031307138717EA
:101D58000A3099001815181283120313981783165E
:101D680003139816831203131816831603131813F4
:101D78008312031318130800831203130C1FD92EA0
:101D88007408F00070074C3E8400831603131E0885
:101D980083138000840A831203131E088000013015
:101DA800F4070318F50A0030F50773088A0072086B
:101DB8008400710E8300FE0E7E0E0900003083122F
:101DC8000313BE000030BD000030BC006430BB000F
:101DD8000A128A1551270A128A150A128A15272605
:101DE8000A128A15D1300A128A157D260A128A1516
:101DF8000A128A11F922031083160313111F031400
:101E080000300318013083120313C500C6014508CA
:101E1800C3004608C400080083120313AD01AE01D5
:101E28002D082807AB002908AA000318AA0AAD1B29
:101E3800AA03831203132A08AC002C08FF002B08FE
:101E480084000A128A1100230A128A15003A03191B
:101E580008002D082807AB002908AA000318AA0AB9
:101E6800AD1BAA03831203132A08AC002C08FF0039
:101E78002B0884000A128A1100230A128A150A12F2
:101E88008A112F260A128A15013083120313AD070F
:101E98000318AE0A0030AE07142F831603138715F4
:101EA8000716283083120313940083160313910135
:101EB800831203133B08BF003C08C0003D08C10063
:101EC8003E08C20002300310BF0DC00DC10DC20D87
:101ED800FF3E031D672F4208A3004108A2004008E7
:101EE800A1003F08A0000030A7000030A600033082
:101EF800A500E830A4000A128A11BC270A128A1524
:101F0800831203132308B0002208AF002108AE0093
:101F18002008AD000130B4003130B3002D30B200DC
:101F28000030B1000A128A115C27831203132D08AE
:101F3800FF3E831603139300803094000800831239
:101F48000313A7000130A40062080739013EAE2F31
:101F58000310A40DFF3E031DAC2F2408FF3AA50073
:101F6800600884008317611C8313250880052708EF
:101F78000A128A116F250A128A1501308312031377
:101F8800A400620CA500A50C250C0739013ECE2F34
:101F98000310A40DFF3E031DCC2F2408A6006008E3
:101FA80084008317611C8313260880041A30831267
:101FB8000313A500F730A400A40BE02FA50BE02F16
:101FC800E52F013083120313A400620CA500A50CB1
:101FD800250C0739013EF22F0310A40DFF3E031D07
:101FE800F02F2408FF3AA600600884008317611CBC
:081FF800831326088005080090
:02400E007A3FF7
:00000001FF
