:020000040000FA
:060000000A128A110E280D
:10000800FE00030EF1000408F2000A08F3000A16C5
:100018008A115F2C0A128A1111288313EC30FD0013
:100028001330FE00D530FF00DE3084000A168A1136
:10003800F6230A128A110A168A1198230A128A11BB
:10004800F6000A168A1199230A128A11F7000A166D
:100058008A119A230A128A11F8000A168A119B2318
:100068000A128A11F9000A168A119C230A128A11A7
:10007800FA00831790308400B6300A168A11BA2322
:100088000A128A118313A0308400DE300A168A11FE
:10009800BA23E601E701E801E90183010A128A159A
:1000A800FA2D54300A128A156C240A128A11643007
:1000B8000A128A11E0260A128A1183120313BC005D
:1000C800BD013C08C7003D08C80065300A128A1106
:1000D800E0260A128A1183120313BC00BD013C08F2
:1000E800C9003D08CA006E30CB000030CC00823019
:1000F800CD000030CE00DD01DE015E08803ABC0094
:100108004808803A3C02031D8B2847085D02031803
:10011800AB28831203134B080A128A11E0260A122D
:100128008A1183120313BC005D08A33E84003C08B7
:10013800831780000130CB070318CC0A0030CC07A6
:100148000130DD070318DE0A0030DE07812883123C
:100158000313DD01DE015E08803ABC004A08803ADC
:100168003C02031DB92849085D020318D9288312E7
:1001780003134D080A128A11E0260A128A11831203
:100188000313BC005D08903E84003C088317800080
:100198000130CD070318CE0A0030CE070130DD0745
:1001A8000318DE0A0030DE07AF2883120313D201DA
:1001B800D3019630DB000030DC00572966300A1284
:1001C8008A11E0260A128A1183120313BC00BD01AA
:1001D8003C08D2003D08D3009630212967300A1226
:1001E8008A11E0260A128A1183120313BC00BD018A
:1001F8003C08D2003D08D300B430212968300A12E7
:100208008A11E0260A128A1183120313BC00BD0169
:100218003C08D2003D08D300D230212969300A12A7
:100228008A11E0260A128A1183120313BC00BD0149
:100238003C08D2003D08D300F030DB0000305529DF
:100248006A300A128A11E0260A128A1183120313ED
:10025800BC00BD013C08D2003D08D3000E30532934
:100268006B300A128A11E0260A128A1183120313CC
:10027800BC00BD013C08D2003D08D3002C305329F6
:100288006C300A128A11E0260A128A1183120313AB
:10029800BC00BD013C08D2003D08D3004A30DB0059
:1002A8000130DC006E295708013A0319E228033AA5
:1002B8000319F228013A03190229073A03191229E6
:1002C800013A03192429033A03193429013A031975
:1002D80044296E295308E9005208E800DD01DE01CF
:1002E8005308803ABC005E08803A3C02031D7E2910
:1002F8005D085202031CFF2B831203135B080A12CA
:100308008A11E0260A128A1183120313BC00BD0168
:100318005E08A1005D08A0000C30A2000030A30018
:100328000A168A11A3240A128A114730831203136A
:10033800BE000030BF0020083E07C0002108031897
:10034800210A3F07C100400884008317411C83131A
:100358003C088000840A3D0880000130DB07031850
:10036800DC0A0030DC075B080A128A11E0260A1250
:100378008A1183120313BC00BD015E08A1005D0849
:10038800A0000C30A2000030A3000A168A11A32492
:100398000A128A11831203132008023EBE002108A4
:1003A8000318013E003EBF004730C0000030C100C6
:1003B8003E084007C2003F0803183F0A4107C30030
:1003C800420884008317431C83133C088000840A76
:1003D8003D0880000130DB070318DC0A0030DC0729
:1003E8005B080A128A11E0260A128A118312031383
:1003F800BC00BD015E08A1005D08A0000C30A20091
:100408000030A3000A168A11A3240A128A11831243
:1004180003132008043EBE0021080318013E003ED5
:10042800BF004730C0000030C1003E084007C2008E
:100438003F0803183F0A4107C30042088400831796
:10044800431C83133C088000840A3D088000013067
:10045800DB070318DC0A0030DC075B080A128A1184
:10046800E0260A128A1183120313BC00BD015E083C
:10047800A1005D08A0000C30A2000030A3000A16FD
:100488008A11A3240A128A11831203132008063E34
:10049800BE0021080318013E003EBF004730C000DF
:1004A8000030C1003E084007C2003F0803183F0A59
:1004B8004107C300420884008317431C83133C0888
:1004C8008000840A3D0880000130DB070318DC0A3D
:1004D8000030DC075B080A128A11E0260A128A112A
:1004E80083120313BC00BD015E08A1005D08A000D3
:1004F8000C30A2000030A3000A168A11A3240A12A5
:100508008A118312031320080A3EBE00210803182B
:10051800013E003EBF004730C0000030C1003E0829
:100528004007C2003F0803183F0A4107C3004208BA
:1005380084008317431C83133C088000840A3D0809
:1005480080000130DB070318DC0A0030DC075E0896
:10055800A1005D08A0000C30A2000030A3000A161C
:100568008A11A3240A128A11473083120313BC008C
:100578000030BD0020083C07BE0021080318210AEE
:100588003D07BF003E08840083173F1C8313000803
:10059800D000840A0008D1005E08A1005D08A00010
:1005A8000C30A2000030A3000A168A11A3240A12F4
:1005B8008A11831203132008023EBC002108031885
:1005C800013E003EBD004730BE000030BF003C0881
:1005D8003E07C0003D0803183D0A3F07C100400818
:1005E80084008317411C83130008C200840A000892
:1005F800C3005108A1005008A0006430A2000030D8
:10060800A3000A168A11A3240A128A11831203135B
:1006180042082007C40043080318430A2107C500FD
:100628000630C6004608A0005D080A168A11032491
:100638000A128A11A03E840083120313440883130C
:100648008000840A450880005E08A1005D08A000BB
:100658000C30A2000030A3000A168A11A3240A1243
:100668008A11831203132008043EBC0021080318D2
:10067800013E003EBD004730BE000030BF003C08D0
:100688003E07C0003D0803183D0A3F07C100400867
:1006980084008317411C83130008D000840A0008D3
:1006A800D1005E08A1005D08A0000C30A200003057
:1006B800A3000A168A11A3240A128A1183120313AB
:1006C8002008063EBC0021080318013E003EBD007C
:1006D8004730BE000030BF003C083E07C0003D0860
:1006E80003183D0A3F07C100400884008317411CD6
:1006F80083130008C200840A0008C3005108A1003F
:100708005008A0006430A2000030A3000A168A1125
:10071800A3240A128A118312031342082007C40073
:1007280043080318430A2107C5000630C6004608D7
:10073800A0005D080A168A1103240A128A11A23E33
:10074800840083120313440883138000840A450835
:100758008000CF015E08A1005D08A0000C30A20057
:100768000030A3000A168A11A3240A128A118312E0
:10077800031320080A3EBC0021080318013E003E6E
:10078800BD004730BE000030BF003C083E07C00037
:100798003D0803183D0A3F07C1004008840083173D
:1007A800411C83130008C200840A0008C3004208E1
:1007B80043040319E12BCF01CF0A4F08BC00BD0148
:1007C8000630BE003E08A0005D080A168A11032400
:1007D8000A128A11A43E8400831203133C0883136F
:1007E8008000840A3D0880000130DD070318DE0A16
:1007F8000030DE07742901300A168A11C6240A124D
:100808008A11903083120313BC003C08BA00A3304D
:100818000A168A110A260A128A11013A03190800CF
:1008280000300A128A15B1200A128A1101300A1200
:100838008A15B1200A128A110C300A128A15B120C1
:100848000A128A1101300A128A15B1200A128A1175
:100858005F3083120313A8008830A9000A168A1192
:1008680084260A128A111A3083120313BE005E30DE
:10087800BD006D30BC00BC0B3F2CBD0B3F2CBE0B2C
:100888003F2C462C080083120313CA01CB012830E1
:100898008400760883138000840A77088000840A1D
:1008A80078088000840A79088000840A7A08800021
:1008B8000A128A152F250A128A11003A0319BD2C2B
:1008C80000300A128A15B1200A128A1101300A1260
:1008D8008A15B1200A128A1108300A128A15B12025
:1008E8000A128A1101300A128A15B1200A128A11D5
:1008F800D63083120313A8008730A9000A168A117C
:1009080084260A128A111A3083120313C9005E3032
:10091800C8006D30C700C70B8F2CC80B8F2CC90BB4
:100928008F2C962C0C300A128A15B1200A128A11C3
:1009380001300A128A15B1200A128A1197308312DF
:100948000313A8008830A9000A168A1184260A12FF
:100958008A111A3083120313C9005E30C8006D3043
:10096800C700C70BB52CC80BB52CC90BB52CBC2CB4
:10097800C52C013083120313CA070318CB0A0030B1
:10098800CB071A3083120313C9005E30C8006D30DC
:10099800C700C70BCD2CC80BCD2CC90BCD2CD42C24
:1009A80000300A128A15B1200A128A1101300A127F
:1009B8008A15B1200A128A1108300A128A15B12044
:1009C8000A128A1101300A128A15B1200A128A11F4
:1009D800C93083120313A8008730A9000A168A11A8
:1009E80084260A128A111A3083120313C9005E3052
:1009F800C8006D30C700C70BFF2CC80BFF2CC90BF4
:100A0800FF2C062D0C300A128A15B1200A128A1101
:100A180001300A128A15B1200A128A110A168A119F
:100A280039250A128A118312031343034404031D50
:100A3800272D9730A8008830A9000A168A11842625
:100A48000A128A11382D5930A8008830A9000A16D0
:100A58008A1184260A128A11013083120313CA07E5
:100A68000318CB0A0030CB071A3083120313C900CE
:100A78005E30C8006D30C700C70B402DC80B402D35
:100A8800C90B402D472D00300A128A15B1200A12D1
:100A98008A1101300A128A15B1200A128A11083007
:100AA8000A128A15B1200A128A1101300A128A150F
:100AB800B1200A128A11BC3083120313A8008730B0
:100AC800A9000A168A1184260A128A110A168A119E
:100AD800E3230A128A11C53083120313C70047089B
:100AE8009F050D3083120313C800FB30C700C70BE6
:100AF8007B2DC80B7B2D831203131F151F19822D05
:100B08001A3083120313C9005E30C8006D30C70065
:100B1800C70B8C2DC80B8C2DC90B8C2D932D0C302D
:100B28000A128A15B1200A128A1101300A128A158E
:100B3800B1200A128A11831603131E0883120313A5
:100B48001E04031DB92D5930A8008830A9000A16C3
:100B58008A1184260A128A11013083120313CA07E4
:100B68000318CB0A0030CB07C22D9730A800883075
:100B7800A9000A168A1184260A128A111A308312C9
:100B88000313C9005E30C8006D30C700C70BCA2DFB
:100B9800C80BCA2DC90BCA2DD12D00300A128A15CF
:100BA800B1200A128A1101300A128A15B1200A12DC
:100BB8008A1108300A128A15B1200A128A110130E6
:100BC8000A128A15B1200A128A117530831203138A
:100BD800A8008730A9000A168A1184260A128A11E9
:100BE8000F308316031386001A3083120313C900CB
:100BF8005E30C8006D30C700C70B002EC80B002E32
:100C0800C90B002E072E0C300A128A15B1200A12C1
:100C18008A1101300A128A15B1200A128A119330FA
:100C280083120313A8008730A9000A168A118426A4
:100C38000A128A111A3083120313C9005E30C800E1
:100C48006D30C700C70B262EC80B262EC90B262EC3
:100C58002D2E00300A128A15B1200A128A1101308D
:100C68000A128A15B1200A128A1108300A128A1546
:100C7800B1200A128A1101300A128A15B1200A120B
:100C88008A11853083120313A8008730A9000A1639
:100C98008A1184260A128A111A3083120313C90092
:100CA8005E30C8006D30C700C70B582EC80B582ED1
:100CB800C90B582E5F2E0C300A128A15B1200A1261
:100CC8008A1101300A128A15B1200A128A110A16ED
:100CD8008A112D240A128A110A168A1116240A1258
:100CE8008A11031C832E973083120313A8008830BF
:100CF800A9000A168A1184260A128A11962E7B30B8
:100D080083120313A8008830A9000A168A118426C2
:100D18000A128A11013083120313CA070318CB0A77
:100D28000030CB071A3083120313C9005E30C800A5
:100D38006D30C700C70B9E2EC80B9E2EC90B9E2E6A
:100D4800A52E00300A128A15B1200A128A11013024
:100D58000A128A15B1200A128A110C300A128A1551
:100D6800B1200A128A1100300A128A15B1200A121B
:100D78008A11AF3083120313A8008730A9000A161E
:100D88008A1184260A128A11831203134A08303EF4
:100D98000A128A1562220A128A1133308312031347
:100DA800C900BB30C800DF30C700C70BD92EC80B3D
:100DB800D92EC90BD92E080083120313A100E62EE1
:100DC800831203136400831603178C18E42E83120E
:100DD80003132108831203178D003F308312031376
:100DE800A0002008831603178C050C148312031720
:040DF8000C080800DB
:100E0000FF1B0A2F83137F1883170008840A031916
:100E1000FF0A08007F087F398A000408840A031942
:100E2000FF0A8200013400340A3400346434003490
:100E3000E8340334103427340134023403340434E6
:100E400005340634023405340434093406340634D7
:100E5000413454342B3443345734533441345034B4
:100E60005F344434453446343D3422347334613481
:100E700066346534673475346134723464342234D2
:100E80002C342234733461346634653467347534F9
:100E900061347234643422342C3435342C34333499
:100EA0000D340A3400345034573452342034203452
:100EB0003A342034733461346634653467347534BD
:100EC0006134723464340034533453344934443418
:100ED00020343A34203473346134663465346734F2
:100EE000753461347234643400345334743461348E
:100EF0007234743469346E34673420345234453477
:100F00004C344134593453340034533474346134E0
:100F10007234743469346E3467342034573449344D
:100F20004634493400345434613473346B342034DF
:100F300043346F346D3470346C34653474346534D8
:100F40000034413454342B34433449345034533412
:100F500054344134523454343D3422340034453412
:100F6000523452344F345234203446344F34553492
:100F70004E3444343D340034533474346134723468
:100F8000743469346E346734203441344434433427
:100F900000345334743461347234743469346E34CC
:100FA000673420345234543443340034533474346A
:100FB00061347234743469346E34673420344C34A0
:100FC0004334443400344F3456344534523420349E
:100FD00056344F344C34543441344734453400345F
:100FE000413454342B34433449345034533445342D
:100FF0004E3444343D340034413454342B3443347F
:1010000057345134413450340D340A3400344134AF
:1010100054342B34433449344634533452340D342D
:101020000A340034413454342B34433457344A3472
:10103000413450343D3422340034413454342B3460
:10104000433457344D344F34443445343D34003404
:101050006E346F3420346334683461346E346734F2
:1010600065340034413454342B34523453345434C2
:101070000D340A34003456346F346C3474346134B3
:1010800067346534003454346534733474346934EB
:101090006E34673400344C3469346E346B346534E8
:1010A0006434003455346E346C3469346E346B34CB
:1010B00000344534523452344F34523400344534C1
:1010C000723472346F34723400342B3449345034F7
:1010D00044342C34003472346534613464347934EB
:1010E00000340D340A340D340A340034413454349D
:1010F0000D340A3400344634413449344C3400341D
:1011000022340D340A34003422342C342234003496
:10111000413454344534003454344334503400346E
:10112000553444345034003422342C3400344F3499
:101130004B34003425347534003483120313A0007B
:101140000A168A11C2230A128A1583120313200871
:10115000930083160313111BAF2803100800031418
:10116000080083120313A7000130A4007808073990
:10117000013EBC280310A40DFF3E031DBA2824081D
:10118000FF3AA500760884008317771C831325088F
:10119000800527080A128A15AC230A128A15013025
:1011A00083120313A400780CA500A50C250C0739A5
:1011B000013EDC280310A40DFF3E031DDA2824089D
:1011C000A600760884008317771C83132608800402
:1011D0001A3083120313A500F730A400A40BEE28E5
:1011E000A50BEE28F328013083120313A400780C1A
:1011F000A500A50C250C0739013E00290310A40DFC
:10120000FF3E031DFE282408FF3AA600760884004E
:101210008317771C8313260880050800003083128B
:101220000313B9000030B8000030B7000030B6003A
:1012300030082F042E042D0403196529BA01BA0AB7
:10124000B01B30290130B5000310AD0DAE0DAF0D50
:10125000B00DB50B24290130B5003508BA07202997
:101260000130B5000310B60DB70DB80DB90DB50BB3
:10127000322930083402031D47292F083302031D89
:1012800047292E083202031D47292D083102031C6D
:1012900058292D08B1022E08031C2E0FB2022F0868
:1012A000031C2F0FB3023008031C300FB402361496
:1012B00001300310B00CAF0CAE0CAD0CFF3E031DA3
:1012C00059290130BA02031D30293908B000380805
:1012D000AF003708AE003608AD00080000300A1233
:1012E0008A15B1200A128A1501300A128A15B12016
:1012F0000A128A150C300A128A15B1200A128A15B0
:1013000000300A128A15B1200A128A15E3308312BE
:101310000313A8008730A9000A168A1184260A122E
:101320008A15F43083120313B2000130B30032087F
:101330003304031DB3290D3083120313B100AF3002
:10134000B000B530AF00AF0BA329B00BA329B10B90
:10135000A329AA29FF3083120313B2070318B30A83
:10136000FF30B3079729061D9B2900300A128A1502
:10137000B1200A128A1501300A128A15B1200A1208
:101380008A150C300A128A15B1200A128A1500300B
:101390000A128A15B1200A128A15433083120313E8
:1013A000A8008830A9000A168A1184260800303067
:1013B00084000630FF0083138001840AFF0BDB29C1
:1013C00024308400DE3083120313A0000408A1003F
:1013D0000C30A2002008840083130008A300A00A98
:1013E0002108840023088000A10AA20BEA29B80181
:1013F000B80A38080319602A0A168A11CB230A1280
:101400008A1583120313A0002008B600B901390819
:10141000A0002007243E840083130008A100840A52
:101420000008A2003908303E84000008210784002B
:1014300022080318220AFF000A128A1100270A1242
:101440008A153606031D522A0130A0003908303EA5
:1014500084002008831380073908223E84008730E7
:101460000318013EFF000A128A1100270A128A158A
:10147000A0003908303E8400831300082006031DB5
:10148000572A39081C3E840087300318013EFF00AC
:101490000A128A1100270A128A15A0002008B70034
:1014A000B801572A3908303E840083138001013087
:1014B000A0002008B907063039020318F929072AC5
:1014C0003708080083120313A7000130A40078082E
:1014D0000739013E6D2A0310A40DFF3E031D6B2A40
:1014E0002408A500760884008317771C8313250839
:1014F00080042708A40004300310A40CFF3E031D41
:101500007C2A24080F390A128A15AC230A128A157C
:10151000013083120313A400780CA500A50C250C40
:101520000739013E952A0310A40DFF3E031D932A9F
:101530002408A600760884008317771C83132608E6
:101540008004413083120313A400A40BA52AA82A07
:10155000013083120313A400780CA500A50C250C00
:101560000739013EB52A0310A40DFF3E031DB32A1F
:101570002408FF3AA600760884008317771C83139B
:101580002608800527080F390A128A15AC230A128B
:101590008A15013083120313A400780CA500A50C52
:1015A000250C0739013ED62A0310A40DFF3E031D6A
:1015B000D42A2408A600760884008317771C831396
:1015C00026088004413083120313A400A40BE62AEA
:1015D000E92A013083120313A400780CA500A50C9E
:1015E000250C0739013EF62A0310A40DFF3E031D0A
:1015F000F42A2408FF3AA600760884008317771C93
:101600008313260880050800103083120313A600F8
:101610002730A7002F08A9002E08A8000A168A1153
:1016200046260A128A15831203132608303EB1009B
:1016300030088400310883138000E830A6000330AE
:10164000A7002F08A3002E08A2001030A00027300A
:10165000A1000A168A1167250A128A15831203133C
:101660002108A9002008A8000A168A1146260A1295
:101670008A15831203132608303EB100300A840015
:101680003108831380006430A6000030A7002F08C3
:10169000A3002E08A200E830A0000330A1000A1623
:1016A0008A1167250A128A15831203132108A900DB
:1016B0002008A8000A168A1146260A128A158312E3
:1016C00003132608303EB1003008023E8400310882
:1016D000831380000A30A6000030A7002F08A30063
:1016E0002E08A2006430A0000030A1000A168A1162
:1016F00067250A128A15831203132108A9002008FE
:10170000A8000A168A1146260A128A1583120313A4
:101710002608303EB1003008033E840031088313B0
:1017200080000A30A0000030A1002F08A3002E087E
:10173000A2000A168A116725831203132008303E7F
:10174000B1003008043E8400310883138000300863
:10175000053E84008001080083120313A300231CAC
:10176000C62B0130A00079080739013EB92B0310C0
:10177000A00DFF3E031DB72B2008A10076088400B2
:101780008317771C831321088004DB2B0130A00012
:1017900079080739013ECE2B0310A00DFF3E031D33
:1017A000CC2B2008FF3AA100760884008317771C11
:1017B000831321088005A31CF52B0130A000790CB0
:1017C000A100A10C210C0739013EE82B0310A00D4C
:1017D000FF3E031DE62B2008A20076088400831735
:1017E000771C8313220880040D2C0130A000790C93
:1017F000A100A10C210C0739013E002C0310A00D03
:10180000FF3E031DFE2B2008FF3AA200760884004D
:101810008317771C831322088005231D242C013095
:10182000A0007A080739013E172C0310A00DFF3ED7
:10183000031D152C2008A100760884008317771C4F
:10184000831321088004392C0130A0007A0807395D
:10185000013E2C2C0310A00DFF3E031D2A2C200856
:10186000FF3AA100760884008317771C83132108B0
:101870008005A31D532C0130A0007A0CA100A10CFF
:10188000210C0739013E462C0310A00DFF3E031D1D
:10189000442C2008A200760884008317771C831349
:1018A0002208800408000130A0007A0CA100A10CDD
:1018B000210C0739013E5E2C0310A00DFF3E031DD5
:1018C0005C2C2008FF3AA200760884008317771C5E
:1018D000831322088005080083120313A9000A1647
:1018E0008A119D230A128A15D0300A128A159D206A
:1018F0000A128A1500300A128A159D200A128A15CA
:101900000A168A11AB230A128A15D1300A128A15D7
:101910009D200A128A15013083120313A0000030A3
:10192000A1000A168A110F250A128A150A168A11B1
:1019300045240A128A1583120313A800290884007B
:101940002808831380000130A0000030A1000A168F
:101950008A110F250A128A150A168A1145240A12BD
:101960008A1583120313A800290A84002808831308
:1019700080000130A0000030A1000A168A110F2556
:101980000A128A150A168A1145240A128A15831228
:101990000313A8002908023E84002808831380004E
:1019A0000130A0000030A1000A168A110F250A128A
:1019B0008A150A168A1145240A128A1583120313FE
:1019C000A8002908033E8400280883138000013002
:1019D000A0000030A1000A168A110F250A128A15EC
:1019E0000A168A1145240A128A1583120313A800C5
:1019F0002908043E84002808831380000130A000D9
:101A00000030A1000A168A110F250A128A150A163B
:101A10008A1145240A128A1583120313A800290883
:101A2000053E84002808831380000030A000A10038
:101A30000A168A110F250A128A150A168A114524D8
:101A40000A128A1583120313A8002908063E84008F
:101A50002808831380000A168A11A4230800763010
:101A600084008312031328088000840A2908800058
:101A7000840A2A088000840A2B088000840A2C0823
:101A8000800000307706031D472D05307606031DC4
:101A90004D2D8316031385017F2D00307706031D1E
:101AA000532D06307606031D592D83160313860128
:101AB0007F2D00307706031D5F2D07307606031D4E
:101AC000652D8316031387017F2D00307706031DD4
:101AD0006B2D08307606031D712D831603138801C4
:101AE0007F2D00307706031D772D09307606031D04
:101AF0007D2D8316031389017F2D0030080082306D
:101B000083120313AE00DD30AD00AD0B852DAE0B9F
:101B1000852D03300A128A15B1200A128A15213048
:101B200083120313AE007530AD00AD0B952DAE0BD7
:101B3000952D9A2D03300A128A15B1200A128A15A2
:101B4000683083120313AE00E330AD00AD0BA62D59
:101B5000AE0BA62DAB2D03300A128A15B1200A1246
:101B60008A1502300A128A15B1200A128A1502302B
:101B70000A128A15B1200A128A1508300A128A152B
:101B8000B1200A128A1500300A128A15B1200A12F1
:101B90008A1506300A128A15B1200A128A150830F1
:101BA00083120313AD002D08AF002F152F08AD00D1
:101BB00004300310AD0CFF3E031DD92D2D080F3945
:101BC0000A128A15B1200A128A15831203132F08EC
:101BD0000F390A128A15B1200A128A1500300A122A
:101BE0008A15B1200A128A1501300A128A15B1200D
:101BF000013008000A128A1147240A128A150A12B3
:101C00008A1155200A128A1583120313A001A00A13
:101C100000300A168A11D2250A128A15831203137C
:101C20002108E7002008E600023067026730031948
:101C30006602031C06181E2E861D2F2E0030A400DF
:101C4000A5000030A600A7000A168A119B250A12DB
:101C50008A150A128A156E210A128A153B2E053042
:101C6000A4000030A5000030A600A7000A168A11C3
:101C70009B250A128A15D7300A128A156C240A127B
:101C80008A15831203136708B3006608B200D730C1
:101C90000A128A15F2260A128A15831603135908A6
:101CA00083120313DF00E0015F08A0006008A100B9
:101CB0006430A2000030A3000A168A11A3240A127D
:101CC0008A15831603135808831203132007E200B2
:101CD0000030031801302107E300E401E501690841
:101CE000803ADF006508803A5F02031D792E6408A0
:101CF0006802031C042E063083120313DF005F0802
:101D0000A00064080A168A1103240A128A15A03E4C
:101D100084008313000883120313E000840A000880
:101D2000E10061086302031D972E60086202031C34
:101D3000CC2E0630DF005F08A00064080A168A1166
:101D400003240A128A15A23E84008313000883121A
:101D50000313E000840A0008E10063086102031D28
:101D6000B32E62086002031CCC2E0630DF005F0831
:101D7000A00064080A168A1103240A128A15A43ED8
:101D800084008313000883120313A400840A00084C
:101D9000A5000030A600E32E0630DF005F08A0009B
:101DA00064080A168A1103240A128A15A43E8400C4
:101DB0008313000883120313A400840A0008A500FB
:101DC0000130A6000030A7000A168A119B250A12CE
:101DD0008A15013083120313E4070318E50A003063
:101DE000E5076F2E83120313C2000A30A0000030F3
:101DF000A1004208840083130008B400B501340830
:101E0000A2003508A3000A168A1106270A128A15AD
:101E1000831203132008B6003608BC000A30A00065
:101E20000030A1004208840083130008B400B5010B
:101E30003408A2003508A3000A168A11A5270A1241
:101E40008A15831203132008B6003608BD000A3035
:101E5000A0000030A100420A840083130008B400EF
:101E6000B5013408A2003508A3000A168A11062716
:101E70000A128A15831203132008B6003608BE0022
:101E80000A30A0000030A100420A84008313000839
:101E9000B400B5013408A2003508A3000A168A115F
:101EA000A5270A128A15831203132008B6003608E4
:101EB000BF000A30A0000030A1004208023E8400AA
:101EC00083130008B400B5013408A2003508A3004C
:101ED0000A168A1106270A128A158312031320088C
:101EE000B6003608C0000A30A0000030A100420849
:101EF000023E840083130008B400B5013408A20038
:101F00003508A3000A168A11A5270A128A1583121A
:101F100003132008B6003608C10008300A128A15DB
:101F2000B1200A128A1500300A128A15B1200A124D
:101F30008A158312031341080A128A1562220A12B3
:101F40008A158312031340080A128A1562220A12A4
:101F50008A153A300A128A1562220A128A158312E9
:101F600003133F080A128A1562220A128A15831285
:101F700003133E080A128A1562220A128A153A30A1
:101F80000A128A1562220A128A15831203133D0867
:101F90000A128A1562220A128A15831203133C0858
:101FA0000A128A1562220A128A1583120313330851
:101FB000AF003208AE003730B4003408B0000A1267
:101FC0008A1504230A128A150C300A128A15B120C8
:101FD0000A128A1500300A128A15B1200A128A15CF
:101FE0003B3083120313A8008830A9000A168A1117
:101FF00084260A128A1537300A168A1181240800AD
:10273000083400341A342C343E340A168A11C22369
:1027400083160313111408000A168A11C223831674
:102750000313111508000A168A11C22383160313E6
:102760009114080083120313A0000C1EB52B20083F
:102770009900080064008001840A040603190034EB
:102780000406BB2B831603131419C22B11081F391F
:1027900003190800C22B83120313981CD12B1812A3
:1027A00018168C1ED12B1A080800973488346B3405
:1027B00088347B348834283488344B348834523419
:1027C000883466340234FF308316031385004130A9
:1027D000831203139F00C030831603139F000B174F
:1027E0008B1708007E088A007F088200F2230A16F1
:1027F0008A118000840A04087D0603190034FF0A48
:102800000319FE0AF62B83120313A300A201231C53
:102810000D2C2008A1002108A2070310A00D031011
:10282000A30C2308031D072C22080800763083120E
:102830000313A1008830A2000A168A11EA240A169E
:102840008A110A128A15D7210A168A11013A031928
:102850002B2C03100800031408008316031307131E
:1028600087170A3099001815181283120313981746
:102870008316031398168312031318168316031373
:102880001813831203131813080083120313A700ED
:102890000F302705A4000A30A5002508A00027084E
:1028A000A60004300310A60CFF3E031D522C260880
:1028B0000A168A11032483120313240708008312C3
:1028C00003130C1F782C7408F0007007BE3E8400C0
:1028D000831603131E0883138000840A83120313D4
:1028E0001E0880000130F4070318F50A0030F507D0
:1028F00073088A0072088400710E8300FE0E7E0E3B
:10290000090083120313AB00A901AA0129082B07B0
:10291000A800280884008313000803190800290868
:102920002B07A8002808840000080A128A156222D2
:102930000A168A11013083120313A9070318AA0A81
:102940000030AA07862C83120313A401A501201CC2
:10295000AF2C2208A4070318A50A2308A5070130F5
:102960000310A20DA30DFF3E031DB02C0130031078
:10297000A10CA00CFF3E031DB72C20082104031D51
:10298000A72C2508A1002408A00008008312031327
:10299000BA001D30A1008830A2000A168A11EA246C
:1029A0000A168A11831203133A08303E0A168A1156
:1029B000B2230A168A11733083120313A1008830E0
:1029C000A2000A168A11EA240A168A110A128A1526
:1029D000D7210800831203132208FF002108840076
:1029E0000A128A1100270A168A11003A03190800F0
:1029F0002208FF00210884000A128A1100270A1603
:102A00008A110A168A11B2230A168A11013083121A
:102A10000313A1070318A20A0030A207EA2C0A1622
:102A20008A11C2230A168A118316031391150A16F6
:102A30008A11C2230A168A11831203131308A200F3
:102A40002208A3000A168A11C2230A168A118312C9
:102A5000031320082104031D312D8316031391163F
:102A6000342D8316031391121116831203132308B6
:102A70000800003083120313BE000030BD00003098
:102A8000BC006430BB000A168A1153270A168A114B
:102A90000A168A119D230A168A11D1300A128A1544
:102AA0009D200A168A110A168A11A4230310831680
:102AB0000313111F03140030031801308312031392
:102AC000C500C6014508C3004608C40008008312BB
:102AD0000313200821040319962DA501A50AA11BA3
:102AE0007D2D01300310A00DA10DFF3E031D722DA1
:102AF0000130A4002408A5076F2D21082302031D1F
:102B0000832D20082202031C8B2D2008A2022108FD
:102B1000031CA303A30201300310A10CA00CFF3E71
:102B2000031D8C2D0130A502031D7D2D2308A1005E
:102B30002208A0000800B92D0F3086000800260CDE
:102B4000031C0612031806160800260C031C861226
:102B5000031886160800260C031C06130318061714
:102B60000800260C031C861303188617080086012C
:102B70000800831203132508003A0319C02DB72D4E
:102B80002408003A03199C2D013A03199F2D033A9A
:102B90000319A52D013A0319AB2D073A0319B12DDD
:102BA000B72D080083120313A400C530A200220829
:102BB0009F052408A20002300310A20DFF3E031D52
:102BC000DC2D0310220DA30023089F04831603139A
:102BD0000C17831203130C130D3083120313A3007D
:102BE000FB30A200A20BF22DA30BF22D83120313D4
:102BF0001F1520080319072E1F19FC2D1E08A10000
:102C0000831603131E0883120313A0000800A001FB
:102C1000A101080083120313BB001230A100883009
:102C2000A2000A168A11EA240A168A1183120313D3
:102C30003B08A1000130A2000A168A11EA240A16F4
:102C40008A11843083120313A1008830A2000A166F
:102C50008A11EA240A168A11831203133A08A10082
:102C60000130A2000A168A11EA240A168A1180305D
:102C700083120313A1008830A2000A168A11EA24E5
:102C80000A168A110A128A15D72108008312031323
:102C9000AB01AC012608270403197F2EAD01AD0A54
:102CA000A71B5E2E01300310A60DA70DFF3E031DCE
:102CB000532E0130AA002A08AD07502E0130031010
:102CC000AB0DAC0DFF3E031D5F2E27082902031D2F
:102CD0006B2E26082802031C742E2608A80227083B
:102CE000031CA903A9022B1401300310A70CA60C86
:102CF000FF3E031D752E0130AD02031D5E2E2C0814
:102D0000A7002B08A600080083120313AD01AE0133
:102D10002D082807AB002908AA000318AA0AAD1B32
:102D2000AA03831203132A08AC002C08FF002B0807
:102D300084000A128A1100270A168A11003A031920
:102D400008002D082807AB002908AA000318AA0AC2
:102D5000AD1BAA03831203132A08AC002C08FF0042
:102D60002B0884000A128A1100270A168A110A12F7
:102D70008A1562220A168A11013083120313AD07E5
:102D80000318AE0A0030AE07882E003083120313FA
:102D9000AC000030AB000030AA000030A900201CBD
:102DA000E52E2408A907250803110318013E031D79
:102DB000AA07260803110318013E031DAB072708C5
:102DC00003110318013E031DAC070130A8000310D6
:102DD000A40DA50DA60DA70DA80BE72E013003101D
:102DE000A30CA20CA10CA00CFF3E031DEF2E230888
:102DF000220421042004031DCF2E2C08A3002B083D
:102E0000A2002A08A1002908A000080083120313C9
:102E1000A601A31F122FA209A309A20A0319A30A3C
:102E2000A601A60AA11F192FA009A109A00A03192A
:102E3000A10A200821040319462FA501A50AA11BF8
:102E40002D2F01300310A00DA10DFF3E031D222FD9
:102E50000130A4002408A5071F2F21082302031D09
:102E6000332F20082202031C3B2F2008A202210836
:102E7000031CA303A30201300310A10CA00CFF3E0E
:102E8000031D3C2F0130A502031D2D2F2608031919
:102E90004E2FA209A309A20A0319A30A2308A1001D
:102EA0002208A00008008316031387150716283090
:102EB00083120313940083160313910183120313E7
:102EC0003B08BF003C08C0003D08C1003E08C200EE
:102ED00002300310BF0DC00DC10DC20DFF3E031D1A
:102EE000692F4208A3004108A2004008A1003F0842
:102EF000A0000030A7000030A6000330A500E83095
:102F0000A4000A168A11C5260A168A118312031311
:102F10002308B0002208AF002108AE002008AD0051
:102F20000130B4003130B3002D30B2000030B100B8
:102F30000A128A150E21831203132D08FF3E8316F1
:102F40000313930080309400080083120313A6013A
:102F5000A11FB12FA009A109A00A0319A10AA60166
:102F6000A60AA31FBC2FA209A309A20A0319A30A38
:102F70000130A4002408A606A701A8012008210406
:102F80000319F32FA501A50AA11BD22F01300310AD
:102F9000A00DA10DFF3E031DC72F0130A400240882
:102FA000A507C42F01300310A70DA80DFF3E031D78
:102FB000D32F21082302031DDF2F20082202031C28
:102FC000E82F2008A2022108031CA303A302271450
:102FD00001300310A10CA00CFF3E031DE92F0130AE
:102FE000A502031DD22F26080319FB2FA709A80944
:102FF000A70A0319A80A2808A1002708A0000800AA
:02400E007A3FF7
:00000001FF
