:020000040000FA
:060000000A128A110E280D
:10000800FE00030EF1000408F2000A08F3000A12C9
:100018008A11DE2E0A128A1111288313ED30FD0091
:100028000930FE003930FF00E13084000A128A15D9
:1000380058210A128A116B30FD000830FE00F13099
:10004800FF00663084000A128A1558210A128A11A4
:100058000A128A15EF200A128A11F8000A128A1564
:10006800F0200A128A11F900831790308400AE300C
:100078000A128A1513210A128A118313A0308400E8
:10008800E1300A128A151321DF01E001E101E201E2
:10009800E301E401E501F601F70183010A128A157B
:1000A8002E2954300A128A1571260A128A11003034
:1000B8000A128A15D5210A128A1183120313BC0069
:1000C800BD013C08C7003D08C80001300A128A1566
:1000D800D5210A128A1183120313BC00BD013C0802
:1000E800C9003D08CA000A30CB000030CC001E30E1
:1000F800CD000030CE00DD01DE015E08803ABC0094
:100108004808803A3C02031D8B2847085D02031803
:10011800AB28831203134B080A128A15D5210A1239
:100128008A1183120313BC005D08CE3E84003C088C
:10013800831380000130CB070318CC0A0030CC07AA
:100148000130DD070318DE0A0030DE07812883123C
:100158000313DD01DE015E08803ABC004A08803ADC
:100168003C02031DB92849085D020318D9288312E7
:1001780003134D080A128A15D5210A128A1183120F
:100188000313BC005D08BB3E84003C088313800059
:100198000130CD070318CE0A0030CE070130DD0745
:1001A8000318DE0A0030DE07AF2883120313D201DA
:1001B800D3013230DB000030DC00552902300A124E
:1001C8008A15D5210A128A1183120313BC00BD01B6
:1001D8003C08D2003D08D3003230512903300A12BE
:1001E8008A15D5210A128A1183120313BC00BD0196
:1001F8003C08D2003D08D3005030512904300A127F
:100208008A15D5210A128A1183120313BC00BD0175
:100218003C08D2003D08D3006E30512905300A123F
:100228008A15D5210A128A1183120313BC00BD0155
:100238003C08D2003D08D3008C30512906300A1200
:100248008A15D5210A128A1183120313BC00BD0135
:100258003C08D2003D08D300AA30512907300A12C1
:100268008A15D5210A128A1183120313BC00BD0115
:100278003C08D2003D08D300C830512908300A1282
:100288008A15D5210A128A1183120313BC00BD01F5
:100298003C08D2003D08D300E630DB000030DC002B
:1002A8006C295708013A0319E228033A0319F2287E
:1002B800013A03190229073A03191229013A0319C5
:1002C8002229033A03193229013A031942296C29D0
:1002D8005308E5005208E400DD01DE015308803AC6
:1002E800BC005E08803A3C02031D7C295D0852026E
:1002F800031CFD2B831203135B080A128A15D521F0
:100308000A128A1183120313BC00BD015E08A10002
:100318005D08A0000C30A2000030A3000A128A1564
:10032800F3210A128A11473083120313BE000030EA
:10033800BF0020083E07C00021080318210A3F0714
:10034800C100400884008317411C83133C088000C7
:10035800840A3D0880000130DB070318DC0A0030FE
:10036800DC075B080A128A15D5210A128A11831242
:100378000313BC00BD015E08A1005D08A0000C309D
:10038800A2000030A3000A128A15F3210A128A116A
:10039800831203132008023EBE0021080318013E01
:1003A800003EBF004730C0000030C1003E08400793
:1003B800C2003F0803183F0A4107C30042088400EF
:1003C8008317431C83133C088000840A3D0880007F
:1003D8000130DB070318DC0A0030DC075B080A126F
:1003E8008A15D5210A128A1183120313BC00BD0194
:1003F8005E08A1005D08A0000C30A2000030A30038
:100408000A128A15F3210A128A118312031320088B
:10041800043EBE0021080318013E003EBF004730DD
:10042800C0000030C1003E084007C2003F08031862
:100438003F0A4107C300420884008317431C831303
:100448003C088000840A3D0880000130DB0703185F
:10045800DC0A0030DC075B080A128A15D5210A126B
:100468008A1183120313BC00BD015E08A1005D0858
:10047800A0000C30A2000030A3000A128A15F32154
:100488000A128A11831203132008063EBE002108AF
:100498000318013E003EBF004730C0000030C100D5
:1004A8003E084007C2003F0803183F0A4107C3003F
:1004B800420884008317431C83133C088000840A85
:1004C8003D0880000130DB070318DC0A0030DC0738
:1004D8005B080A128A15D5210A128A11831203139E
:1004E800BC00BD015E08A1005D08A0000C30A200A0
:1004F8000030A3000A128A15F3210A128A11831206
:10050800031320080A3EBE0021080318013E003EDE
:10051800BF004730C0000030C1003E084007C2009D
:100528003F0803183F0A4107C300420884008317A5
:10053800431C83133C088000840A3D088000013076
:10054800DB070318DC0A0030DC075E08A1005D0841
:10055800A0000C30A2000030A3000A128A15F32173
:100568000A128A11473083120313BC000030BD0001
:1005780020083C07BE0021080318210A3D07BF00D8
:100588003E08840083173F1C83130008D000840AA8
:100598000008D1005E08A1005D08A0000C30A20090
:1005A8000030A3000A128A15F3210A128A11831255
:1005B80003132008023EBC0021080318013E003E38
:1005C800BD004730BE000030BF003C083E07C000F9
:1005D8003D0803183D0A3F07C100400884008317FF
:1005E800411C83130008C200840A0008C300510894
:1005F800A1005008A0006430A2000030A3000A1235
:100608008A15F3210A128A1183120313420820075C
:10061800C40043080318430A2107C5000630C60072
:100628004608A0005D080A128A1565210A128A1177
:10063800903E840083120313440883178000840AC1
:10064800450880005E08A1005D08A0000C30A200EB
:100658000030A3000A128A15F3210A128A118312A4
:1006680003132008043EBC0021080318013E003E85
:10067800BD004730BE000030BF003C083E07C00048
:100688003D0803183D0A3F07C1004008840083174E
:10069800411C83130008D000840A0008D1005E08BA
:1006A800A1005D08A0000C30A2000030A3000A12CF
:1006B8008A15F3210A128A11831203132008063EB1
:1006C800BC0021080318013E003EBD004730BE00B3
:1006D8000030BF003C083E07C0003D0803183D0A33
:1006E8003F07C100400884008317411C831300089A
:1006F800C200840A0008C3005108A1005008A000E5
:100708006430A2000030A3000A128A15F3210A12ED
:100718008A118312031342082007C40043080318F0
:10072800430A2107C5000630C6004608A0005D0838
:100738000A128A1565210A128A11923E84008312D0
:100748000313440883178000840A45088000CF01FA
:100758005E08A1005D08A0000C30A2000030A300D4
:100768000A128A15F3210A128A1183120313200828
:100778000A3EBC0021080318013E003EBD00473078
:10078800BE000030BF003C083E07C0003D0803180B
:100798003D0A3F07C100400884008317411C8313AA
:1007A8000008C200840A0008C30042084304031971
:1007B800DF2BCF01CF0A4F08BC00BD010630BE00B9
:1007C8003E08A0005D080A128A1565210A128A11DE
:1007D800943E8400831203133C0883178000840A24
:1007E8003D0880000130DD070318DE0A0030DE070F
:1007F800722901300A128A1516220A128A11BB3090
:1008080083120313BC003C08BA00CE300A128A15C2
:10081800B7220A128A11013A0319080000300A1295
:100828008A15C7230A128A1101300A128A15C723AA
:100838000A128A110C300A128A15C7230A128A1161
:1008480001300A128A15C7230A128A115F308312EF
:100858000313A8008830A9000A128A15F3220A1285
:100868008A111A3083120313BE005E30BD006D304A
:10087800BC00BC0B3D2CBD0B3D2CBE0B3D2C442CB1
:10088800080083120313CA01CB01283084006608CC
:1008980083138000840A67088000840A680880003F
:1008A800840A69088000840A6A0880000A128A1586
:1008B80034270A128A11003A0319BB2C00300A1295
:1008C8008A15C7230A128A1101300A128A15C7230A
:1008D8000A128A1108300A128A15C7230A128A11C5
:1008E80001300A128A15C7230A128A11D6308312D8
:1008F8000313A8008730A9000A128A15F3220A12E6
:100908008A111A3083120313C9005E30C8006D3093
:10091800C700C70B8D2CC80B8D2CC90B8D2C942CA4
:100928000C300A128A15C7230A128A1101300A12DA
:100938008A15C7230A128A11973083120313A80055
:100948008830A9000A128A15F3220A128A111A306D
:1009580083120313C9005E30C8006D30C700C70B8F
:10096800B32CC80BB32CC90BB32CBA2CC32C013035
:1009780083120313CA070318CB0A0030CB071A30B7
:1009880083120313C9005E30C8006D30C700C70B5F
:10099800CB2CC80BCB2CC90BCB2CD22C00300A1279
:1009A8008A15C7230A128A1101300A128A15C72329
:1009B8000A128A1108300A128A15C7230A128A11E4
:1009C80001300A128A15C7230A128A11C930831204
:1009D8000313A8008730A9000A128A15F3220A1205
:1009E8008A111A3083120313C9005E30C8006D30B3
:1009F800C700C70BFD2CC80BFD2CC90BFD2C042D03
:100A08000C300A128A15C7230A128A1101300A12F9
:100A18008A15C7230A128A110A128A1589220A120C
:100A28008A118312031343034404031D252D9730B1
:100A3800A8008830A9000A128A15F3220A128A111E
:100A4800362D5930A8008830A9000A128A15F322D9
:100A58000A128A11013083120313CA070318CB0A3A
:100A68000030CB071A3083120313C9005E30C80068
:100A78006D30C700C70B3E2DC80B3E2DC90B3E2D50
:100A8800452D00300A128A15C7230A128A1101302F
:100A98000A128A15C7230A128A1108300A128A15FF
:100AA800C7230A128A1101300A128A15C7230A12AB
:100AB8008A11BC3083120313A8008730A9000A12D8
:100AC8008A15F3220A128A110A128A1545210A1276
:100AD8008A11C53083120313C70047089F050D30DC
:100AE80083120313C800FB30C700C70B792DC80B4E
:100AF800792D831203131F151F19802D1A308312A5
:100B08000313C9005E30C8006D30C700C70B8A2DBB
:100B1800C80B8A2DC90B8A2D912D0C300A128A1503
:100B2800C7230A128A1101300A128A15C7230A122A
:100B38008A11831603131E08831203131E04031D50
:100B4800B72D5930A8008830A9000A128A15F32257
:100B58000A128A11013083120313CA070318CB0A39
:100B68000030CB07C02D9730A8008830A9000A12A2
:100B78008A15F3220A128A111A3083120313C90044
:100B88005E30C8006D30C700C70BC82DC80BC82D14
:100B9800C90BC82DCF2D00300A128A15C7230A1297
:100BA8008A1101300A128A15C7230A128A110830DD
:100BB8000A128A15C7230A128A1101300A128A15E5
:100BC800C7230A128A11753083120313A8008730CD
:100BD800A9000A128A15F3220A128A110F30831605
:100BE800031386001A3083120313C9005E30C8004D
:100BF8006D30C700C70BFE2DC80BFE2DC90BFE2D8F
:100C0800052E0C300A128A15C7230A128A110130E0
:100C18000A128A15C7230A128A1193308312031302
:100C2800A8008730A9000A128A15F3220A128A112D
:100C38001A3083120313C9005E30C8006D30C70034
:100C4800C70B242EC80B242EC90B242E2B2E0030A4
:100C58000A128A15C7230A128A1101300A128A1544
:100C6800C7230A128A1108300A128A15C7230A12E2
:100C78008A1101300A128A15C7230A128A1185308F
:100C880083120313A8008730A9000A128A15F322D9
:100C98000A128A111A3083120313C9005E30C80081
:100CA8006D30C700C70B562EC80B562EC90B562ED3
:100CB8005D2E0C300A128A15C7230A128A110130D8
:100CC8000A128A15C7230A128A110A128A15A32141
:100CD8000A128A110A128A158C210A128A11031C17
:100CE800812E973083120313A8008830A9000A12B6
:100CF8008A15F3220A128A11942E7B308312031369
:100D0800A8008830A9000A128A15F3220A128A114B
:100D1800013083120313CA070318CB0A0030CB072C
:100D28001A3083120313C9005E30C8006D30C70043
:100D3800C70B9C2EC80B9C2EC90B9C2EA32E0030D3
:100D48000A128A15C7230A128A1101300A128A1553
:100D5800C7230A128A110C300A128A15C7230A12ED
:100D68008A1100300A128A15C7230A128A11AF3075
:100D780083120313A8008730A9000A128A15F322E8
:100D88000A128A11831203134A08303E0A128A157E
:100D98000F250A128A11333083120313C900BB309E
:100DA800C800DF30C700C70BD72EC80BD72EC90B1A
:100DB800D72E0800831203130C1FF72E7408F000B7
:100DC8007007A03E8400831603131E088313800057
:100DD800840A831203131E0880000130F4070318E5
:100DE800F50A0030F50773088A0072088400710E4E
:100DF8008300FE0E7E0E0900FF1B0A2F83137F1847
:100E080083170008840A0319FF0A08007F087F393E
:100E18008A000408840A0319FF0A82000134003496
:100E28000A34003464340034E8340334103427348A
:100E380001340234033404340534063402340534EE
:100E48000434093406340634413454342B344334DE
:100E580057345334413450345F3444344534463481
:100E68003D34223473346134663465346734753400
:100E780061347234643422342C342234733461344F
:100E880066346534673475346134723464342234BA
:100E98002C3435342C3433340D340A340034503483
:100EA80057345234203420343A3420347334613483
:100EB80066346534673475346134723464340034AC
:100EC800533453344934443420343A34203473345A
:100ED800613466346534673475346134723464342B
:100EE80000345334743461347234743469346E3475
:100EF80067342034523445344C34413459345334F3
:100F080000345334743461347234743469346E3454
:100F1800673420345734493446344934003454341F
:100F2800613473346B34203443346F346D3470342B
:100F38006C346534743465340034413454342B349F
:100F4800433449345034533454344134523454348F
:100F58003D34223400344534523452344F34523400
:100F6800203446344F3455344E3444343D34003400
:100F78005334743461347234743469346E3467347D
:100F880020344134443443340034533474346134A9
:100F98007234743469346E346734203452345434BF
:100FA80043340034533474346134723474346934DF
:100FB8006E34673420344C344334443400344F3472
:100FC800563445345234203456344F344C34543427
:100FD8004134473445340034413454342B34433499
:100FE80049345034533445344E3444343D34003459
:100FF800413454342B34433457345134413450340D
:101008000D340A340034413454342B3443344934D5
:101018004634533452340D340A3400344134543491
:101028002B34433457344A34413450343D34223419
:101038000034413454342B34433457344D344F3412
:10104800443445343D3400346E346F3420346334D2
:10105800683461346E346734653400344134543450
:101068002B345234533454340D340A340034563447
:101078006F346C34743461346734653400345434F8
:1010880065347334743469346E34673400344C34E2
:1010980069346E346B3465346434003455346E34DA
:1010A8006C3469346E346B34003445345234523401
:1010B8004F34523400344534723472346F347234DD
:1010C80000342B344934503444342C3400347234D2
:1010D800653461346434793400340D340A340D34A1
:1010E8000A340034413454340D340A34003446345C
:1010F800413449344C34003422340D340A34003439
:1011080022342C34223400344134543445340034ED
:101118005434433450340034553444345034003457
:1011280022342C3400344F344B3400342534753495
:02113800003481
:1011DE0066340234083400341A342C343E340A1285
:1011EE008A151B2183160313111408000A128A157F
:1011FE001B2183160313111508000A128A151B21D1
:10120E00831603139114080083120313A0000C1EFF
:10121E000E2920089900080064008001840A040643
:10122E0003190034040614298316031314191B29F9
:10123E0011081F39031908001B2983120313981C68
:10124E002A29181218168C1E2A291A0808000A12A2
:10125E008A1145240A128A150A128A1155200A1279
:10126E008A153829973488346B3488347B34883423
:10127E00283488344B34883452348834FF30831603
:10128E00031385004130831203139F00C030831671
:10129E0003139F000B178B1708007E088A007F0828
:1012AE00820054210A128A158000840A04087D06E1
:1012BE0003190034FF0A0319FE0A58298312031377
:1012CE00A300A201231C6F292008A1002108A20758
:1012DE000310A00D0310A30C2308031D6929220877
:1012EE00080083120313A0000A128A151B210A128A
:1012FE008A15831203132008930083160313111B00
:10130E008A29031008000314080076308312031391
:10131E00A1008830A2000A128A153A220A128A15F2
:10132E000A128A1584240A128A15013A0319A12970
:10133E0003100800031408008316031307138717FE
:10134E000A30990018151812831203139817831672
:10135E000313981683120313181683160313181308
:10136E00831203131813080083120313A7000F3000
:10137E002705A4000A30A5002508A0002708A6000E
:10138E0004300310A60CFF3E031DC82926080A12BE
:10139E008A15652183120313240708008312031391
:1013AE00A100DB29831203136400831603178C1824
:1013BE00D929831203132108831203178D003F309E
:1013CE0083120313A0002008831603178C050C1438
:1013DE00831203170C08080083120313A401A5013E
:1013EE00201CFF292208A4070318A50A2308A50715
:1013FE0001300310A20DA30DFF3E031D002A013084
:10140E000310A10CA00CFF3E031D072A2008210487
:10141E00031DF7292508A1002408A0000800831247
:10142E000313BA001D30A1008830A2000A128A15DB
:10143E003A220A128A15831203133A08303E0A1210
:10144E008A150B210A128A15733083120313A10019
:10145E008830A2000A128A153A220A128A150A1236
:10146E008A1584240800831203132208FF00210822
:10147E0084000A128A1100270A128A15003A0319EB
:10148E0008002208FF00210884000A128A11002792
:10149E000A128A150A128A150B210A128A150130B0
:1014AE0083120313A1070318A20A0030A2073A2AD7
:1014BE000A128A151B210A128A1583160313911517
:1014CE000A128A151B210A128A1583120313130896
:1014DE00A2002208A3000A128A151B210A128A15DD
:1014EE008312031320082104031D812A831603137C
:1014FE009116842A83160313911211168312031365
:10150E0023080800003083120313BE000030BD0014
:10151E000030BC006430BB000A128A1575230A1213
:10152E008A150A128A15F6200A128A15D1300A1265
:10153E008A1578210A128A150A128A15FD200310BF
:10154E0083160313111F0314003003180130831286
:10155E000313C500C6014508C3004608C4000800B1
:10156E0083120313BB001230A1008830A2000A12AE
:10157E008A153A220A128A15831203133B08A10018
:10158E000030A2000A128A153A220A128A158430F5
:10159E0083120313A1008830A2000A128A153A2280
:1015AE000A128A15831203133A08A1000030A20012
:1015BE000A128A153A220A128A15803083120313F0
:1015CE00A1008830A2000A128A153A220A128A1540
:1015DE000A128A158424080083120313AD01AE018A
:1015EE002D082807AB002908AA000318AA0AAD1B6C
:1015FE00AA03831203132A08AC002C08FF002B0841
:10160E0084000A128A1100270A128A15003A031959
:10161E0008002D082807AB002908AA000318AA0AFB
:10162E00AD1BAA03831203132A08AC002C08FF007B
:10163E002B0884000A128A1100270A128A150A1230
:10164E008A150F250A128A15013083120313AD076E
:10165E000318AE0A0030AE07F72A003083120313C8
:10166E00AC000030AB000030AA000030A900201CF6
:10167E00542B2408A907250803110318013E031D46
:10168E00AA07260803110318013E031DAB072708FE
:10169E0003110318013E031DAC070130A80003100F
:1016AE00A40DA50DA60DA70DA80B562B01300310EA
:1016BE00A30CA20CA10CA00CFF3E031D5E2B230855
:1016CE00220421042004031D3E2B2C08A3002B080A
:1016DE00A2002A08A1002908A000080083160313FF
:1016EE0087150716283083120313940083160313ED
:1016FE009101831203133B08BF003C08C0003D0854
:10170E00C1003E08C20002300310BF0DC00DC10D56
:10171E00C20DFF3E031D8B2B4208A3004108A20001
:10172E004008A1003F08A0000030A7000030A6002E
:10173E000330A500E830A4000A128A1534230A12D9
:10174E008A15831203132308B0002208AF00210864
:10175E00AE002008AD000130B4003130B3002D30A2
:10176E00B2000030B1000A128A152424831203132A
:10177E002D08FF3E8316031393008030940008005B
:10178E0083120313A7000130A40068080739013E35
:10179E00D22B0310A40DFF3E031DD02B2408FF3ABD
:1017AE00A500660884008317671C8313250880052F
:1017BE0027080A128A15B1250A128A1501308312DA
:1017CE000313A400680CA500A50C250C0739013ED7
:1017DE00F22B0310A40DFF3E031DF02B2408A600D0
:1017EE00660884008317671C8313260880041A304A
:1017FE0083120313A500F730A400A40B042CA50B31
:10180E00042C092C013083120313A400680CA500CC
:10181E00A50C250C0739013E162C0310A40DFF3E16
:10182E00031D142C2408FF3AA600660884008317B3
:10183E00671C8313260880050800003083120313EB
:10184E00B9000030B8000030B7000030B6003008E4
:10185E002F042E042D0403197B2CBA01BA0AB01BD7
:10186E00462C0130B5000310AD0DAE0DAF0DB00D11
:10187E00B50B3A2C0130B5003508BA07362C0130BD
:10188E00B5000310B60DB70DB80DB90DB50B482C3C
:10189E0030083402031D5D2C2F083302031D5D2C0E
:1018AE002E083202031D5D2C2D083102031C6E2CF6
:1018BE002D08B1022E08031C2E0FB2022F08031C96
:1018CE002F0FB3023008031C300FB4023614013050
:1018DE000310B00CAF0CAE0CAD0CFF3E031D6F2C05
:1018EE000130BA02031D462C3908B0003808AF008B
:1018FE003708AE003608AD000800303084000630E0
:10190E00FF0083138001840AFF0B882C243084008F
:10191E00E13083120313A0000408A1000C30A200D2
:10192E002008840083130008A300A00A2108840065
:10193E0023088000A10AA20B972CB801B80A380818
:10194E0003190D2D0A128A1524210A128A158312E3
:10195E000313A0002008B600B9013908A000200723
:10196E00243E840083130008A100840A0008A2000C
:10197E003908303E8400000821078400220803182D
:10198E00220AFF000A128A1100270A128A15360649
:10199E00031DFF2C0130A0003908303E84002008C2
:1019AE00831380073908223E840087300318013ED6
:1019BE00FF000A128A1100270A128A15A0003908A0
:1019CE00303E8400831300082006031D042D3908C1
:1019DE001C3E840087300318013EFF000A128A1154
:1019EE0000270A128A15A0002008B700B801042D9E
:1019FE003908303E8400831380010130A000200896
:101A0E00B907063039020318A62CB42C3708080083
:101A1E0083120313A7000130A40068080739013EA2
:101A2E001A2D0310A40DFF3E031D182D2408A5002A
:101A3E00660884008317671C831325088004270813
:101A4E00A40004300310A40CFF3E031D292D24080E
:101A5E000F390A128A15B1250A128A15013083121E
:101A6E000313A400680CA500A50C250C0739013E34
:101A7E00422D0310A40DFF3E031D402D2408A60089
:101A8E00660884008317671C831326088004413080
:101A9E0083120313A400A40B522D552D0130831273
:101AAE000313A400680CA500A50C250C0739013EF4
:101ABE00622D0310A40DFF3E031D602D2408FF3A76
:101ACE00A600660884008317671C8313260880050A
:101ADE0027080F390A128A15B1250A128A15013004
:101AEE0083120313A400680CA500A50C250C07395E
:101AFE00013E832D0310A40DFF3E031D812D2408EE
:101B0E00A600660884008317671C831326088004CA
:101B1E00413083120313A400A40B932D962D013094
:101B2E0083120313A400680CA500A50C250C07391D
:101B3E00013EA32D0310A40DFF3E031DA12D24086D
:101B4E00FF3AA600660884008317671C83132608D5
:101B5E008005080083120313A300231CCB2D013034
:101B6E00A00069080739013EBE2D0310A00DFF3EEF
:101B7E00031DBC2D2008A100660884008317671C76
:101B8E00831321088004E02D0130A0006908073975
:101B9E00013ED32D0310A00DFF3E031DD12D2008B5
:101BAE00FF3AA100660884008317671C831321087F
:101BBE008005A31CFA2D0130A000690CA100A10C18
:101BCE00210C0739013EED2D0310A00DFF3E031D24
:101BDE00EB2D2008A200660884008317671C831370
:101BEE0022088004122E0130A000690CA100A10C65
:101BFE00210C0739013E052E0310A00DFF3E031DDB
:101C0E00032E2008FF3AA200660884008317671C83
:101C1E00831322088005231D292E0130A0006A0897
:101C2E000739013E1C2E0310A00DFF3E031D1A2E78
:101C3E002008A100660884008317671C83132108FF
:101C4E0080043E2E0130A0006A080739013E312E75
:101C5E000310A00DFF3E031D2F2E2008FF3AA100FA
:101C6E00660884008317671C831321088005A31D53
:101C7E00582E0130A0006A0CA100A10C210C0739CE
:101C8E00013E4B2E0310A00DFF3E031D492E2008D2
:101C9E00A200660884008317671C83132208800441
:101CAE0008000130A0006A0CA100A10C210C07391C
:101CBE00013E632E0310A00DFF3E031D612E200872
:101CCE00FF3AA200660884008317671C831322085C
:101CDE008005080083120313A9000A128A15F62044
:101CEE000A128A15D0300A128A1578210A128A151C
:101CFE0000300A128A1578210A128A150A128A15DC
:101D0E0004210A128A15D1300A128A1578210A1274
:101D1E008A15013083120313A0000030A1000A12AD
:101D2E008A155F220A128A150A128A15BB210A1217
:101D3E008A1583120313A800290884002808831328
:101D4E0080000130A0000030A1000A128A155F2227
:101D5E000A128A150A128A15BB210A128A158312D3
:101D6E000313A800290A8400280883138000013079
:101D7E00A0000030A1000A128A155F220A128A15ED
:101D8E000A128A15BB210A128A1583120313A800A0
:101D9E002908023E84002808831380000130A00029
:101DAE000030A1000A128A155F220A128A150A1241
:101DBE008A15BB210A128A1583120313A80029085B
:101DCE00033E84002808831380000130A0000030F9
:101DDE00A1000A128A155F220A128A150A128A15A2
:101DEE00BB210A128A1583120313A8002908043E88
:101DFE0084002808831380000130A0000030A10069
:101E0E000A128A155F220A128A150A128A15BB2136
:101E1E000A128A1583120313A8002908053E8400AE
:101E2E002808831380000030A000A1000A128A1532
:101E3E005F220A128A150A128A15BB210A128A1506
:101E4E0083120313A8002908063E84002808831372
:101E5E0080000A128A15FD20080066308400831265
:101E6E000313280883138000840A29088000840A3B
:101E7E002A088000840A2B088000840A2C0880001F
:101E8E0000306706031D4D2F05306606031D532FC8
:101E9E00831603138501852F00306706031D592F06
:101EAE0006306606031D5F2F831603138601852FEA
:101EBE0000306706031D652F07306606031D6B2F66
:101ECE00831603138701852F00306706031D712FBC
:101EDE0008306606031D772F831603138801852F9E
:101EEE0000306706031D7D2F09306606031D832F04
:101EFE00831603138901852F003008008230831268
:101F0E000313AE00DD30AD00AD0B8B2FAE0B8B2F60
:101F1E0003300A128A15C7230A128A15213083123A
:101F2E000313AE007530AD00AD0B9B2FAE0B9B2F88
:101F3E00A02F03300A128A15C7230A128A15683099
:101F4E0083120313AE00E330AD00AD0BAC2FAE0B1E
:101F5E00AC2FB12F03300A128A15C7230A128A1525
:101F6E0002300A128A15C7230A128A1502300A1283
:101F7E008A15C7230A128A1508300A128A15C72332
:101F8E000A128A1500300A128A15C7230A128A15F8
:101F9E0006300A128A15C7230A128A1508308312D0
:101FAE000313AD002D08AF002F152F08AD00043020
:101FBE000310AD0CFF3E031DDF2F2D080F390A1243
:101FCE008A15C7230A128A15831203132F080F3995
:101FDE000A128A15C7230A128A1500300A128A15A8
:101FEE00C7230A128A1501300A128A15C723013037
:021FFE000800D9
:02400E007A3FF7
:00000001FF
