:020000040000FA
:060000000A128A110E280D
:10000800FE00030EF1000408F2000A08F3000A16C5
:100018008A11542C0A128A1111288313EC30FD001E
:100028001330FE009830FF00DE3084000A168A1173
:10003800B9230A128A110A128A11FA270A128A1196
:10004800F6000A128A11FB270A128A11F7000A120F
:100058008A11FC270A128A11F8000A128A11FD2750
:100068000A128A11F9000A128A11FE270A128A1145
:10007800FA00831790308400B6300A168A117D235F
:100088000A128A118313A0308400DE300A168A11FE
:100098007D23E601E701E801E90183010A128A11DB
:1000A800022F00300A168A11A3270A128A1101307A
:1000B8000A168A11A3270A128A110C300A168A1105
:1000C800A3270A128A1100300A168A11A3270A12D6
:1000D8008A11533083120313A8008830A9000A1626
:1000E8008A1179260A128A1154300A128A1564254F
:1000F8000A128A1100300A168A1136240A128A1145
:1001080083120313BC00BD013C08C7003D08C800AA
:1001180001300A168A1136240A128A11831203132F
:10012800BC00BD013C08C9003D08CA000A30CB002C
:100138000030CC001E30CD000030CE00DD01DE01E5
:100148005E08803ABC004808803A3C02031DAE288D
:1001580047085D020318CE28831203134B080A16BA
:100168008A1136240A128A1183120313BC005D080F
:10017800A33E84003C08831780000130CB07031896
:10018800CC0A0030CC070130DD070318DE0A003046
:10019800DE07A42883120313DD01DE015E08803A1E
:1001A800BC004A08803A3C02031DDC2849085D026D
:1001B8000318FC28831203134D080A168A113624E3
:1001C8000A128A1183120313BC005D08903E840052
:1001D8003C08831780000130CD070318CE0A003091
:1001E800CE070130DD070318DE0A0030DE07D2280B
:1001F80083120313D201D3013230DB000030DC005C
:10020800782902300A168A1136240A128A118312B2
:100218000313BC00BD013C08D2003D08D3003230B6
:10022800742903300A168A1136240A128A11831295
:100238000313BC00BD013C08D2003D08D300503078
:10024800742904300A168A1136240A128A11831274
:100258000313BC00BD013C08D2003D08D3006E303A
:10026800742905300A168A1136240A128A11831253
:100278000313BC00BD013C08D2003D08D3008C30FC
:10028800742906300A168A1136240A128A11831232
:100298000313BC00BD013C08D2003D08D300AA30BE
:1002A800742907300A168A1136240A128A11831211
:1002B8000313BC00BD013C08D2003D08D300C83080
:1002C800742908300A168A1136240A128A118312F0
:1002D8000313BC00BD013C08D2003D08D300E63042
:1002E800DB000030DC008F295708013A0319052983
:1002F800033A03191529013A03192529073A03195D
:100308003529013A03194529033A03195529013AB0
:10031800031965298F295308E9005208E800DD010F
:10032800DE015308803ABC005E08803A3C02031D97
:100338009F295D085202031C202C831203135B08BB
:100348000A168A1136240A128A1183120313BC0072
:10035800BD015E08A1005D08A0000C30A2000030BD
:10036800A3000A168A1198240A128A1147308312A8
:100378000313BE000030BF0020083E07C00021085C
:100388000318210A3F07C100400884008317411C55
:1003980083133C088000840A3D0880000130DB0795
:1003A8000318DC0A0030DC075B080A168A113624B9
:1003B8000A128A1183120313BC00BD015E08A10052
:1003C8005D08A0000C30A2000030A3000A168A11B4
:1003D80098240A128A11831203132008023EBE00D1
:1003E80021080318013E003EBF004730C00000301E
:1003F800C1003E084007C2003F0803183F0A4107F2
:10040800C300420884008317431C83133C08800000
:10041800840A3D0880000130DB070318DC0A00303D
:10042800DC075B080A168A1136240A128A1183121D
:100438000313BC00BD015E08A1005D08A0000C30DC
:10044800A2000030A3000A168A1198240A128A1101
:10045800831203132008043EBE0021080318013E3E
:10046800003EBF004730C0000030C1003E084007D2
:10047800C2003F0803183F0A4107C300420884002E
:100488008317431C83133C088000840A3D088000BE
:100498000130DB070318DC0A0030DC075B080A16AA
:1004A8008A1136240A128A1183120313BC00BD0173
:1004B8005E08A1005D08A0000C30A2000030A30077
:1004C8000A168A1198240A128A1183120313200823
:1004D800063EBE0021080318013E003EBF0047301B
:1004E800C0000030C1003E084007C2003F080318A2
:1004F8003F0A4107C300420884008317431C831343
:100508003C088000840A3D0880000130DB0703189E
:10051800DC0A0030DC075B080A168A1136240A1246
:100528008A1183120313BC00BD015E08A1005D0897
:10053800A0000C30A2000030A3000A168A119824EB
:100548000A128A118312031320080A3EBE002108EA
:100558000318013E003EBF004730C0000030C10014
:100568003E084007C2003F0803183F0A4107C3007E
:10057800420884008317431C83133C088000840AC4
:100588003D0880000130DB070318DC0A0030DC0777
:100598005E08A1005D08A0000C30A2000030A30096
:1005A8000A168A1198240A128A11473083120313F3
:1005B800BC000030BD0020083C07BE00210803181D
:1005C800210A3D07BF003E08840083173F1C8313A0
:1005D8000008D000840A0008D1005E08A1005D0868
:1005E800A0000C30A2000030A3000A168A1198243B
:1005F8000A128A11831203132008023EBC00210844
:100608000318013E003EBD004730BE000030BF0069
:100618003C083E07C0003D0803183D0A3F07C100DB
:10062800400884008317411C83130008C200840A11
:100638000008C3005108A1005008A0006430A200BF
:100648000030A3000A168A1198240A128A1183120C
:10065800031342082007C40043080318430A21076C
:10066800C5000630C6004608A0005D080A168A11B3
:10067800C6230A128A11A03E840083120313440879
:1006880083138000840A450880005E08A1005D0885
:10069800A0000C30A2000030A3000A168A1198248A
:1006A8000A128A11831203132008043EBC00210891
:1006B8000318013E003EBD004730BE000030BF00B9
:1006C8003C083E07C0003D0803183D0A3F07C1002B
:1006D800400884008317411C83130008D000840A53
:1006E8000008D1005E08A1005D08A0000C30A2003F
:1006F8000030A3000A168A1198240A128A1183125C
:1007080003132008063EBC0021080318013E003EE2
:10071800BD004730BE000030BF003C083E07C000A7
:100728003D0803183D0A3F07C100400884008317AD
:10073800411C83130008C200840A0008C300510842
:10074800A1005008A0006430A2000030A3000A16DF
:100758008A1198240A128A11831203134208200767
:10076800C40043080318430A2107C5000630C60021
:100778004608A0005D080A168A11C6230A128A11C3
:10078800A23E840083120313440883138000840A62
:1007980045088000CF015E08A1005D08A0000C306C
:1007A800A2000030A3000A168A1198240A128A119E
:1007B8008312031320080A3EBC0021080318013ED7
:1007C800003EBD004730BE000030BF003C083E0779
:1007D800C0003D0803183D0A3F07C10040088400D7
:1007E8008317411C83130008C200840A0008C30051
:1007F800420843040319022CCF01CF0A4F08BC005A
:10080800BD010630BE003E08A0005D080A168A1128
:10081800C6230A128A11A43E8400831203133C08DB
:1008280083138000840A3D0880000130DD07031827
:10083800DE0A0030DE07952901300A168A11BB242A
:100848000A128A11903083120313BC003C08BA00C4
:10085800A3300A168A11FF250A128A11013A0319D0
:10086800080000300A168A11A3270A128A110130DB
:100878000A168A11A3270A128A110C300A168A113D
:10088800A3270A128A1101300A168A11A3270A120D
:100898008A11713083120313A8008930A9000A163F
:1008A8008A1179260A128A111A3083120313BE009C
:1008B8005E30BD006D30BC00BC0B602CBD0B602CE5
:1008C800BE0B602C672C080083120313CA01CB01EE
:1008D80028308400760883138000840A7708800013
:1008E800840A78088000840A79088000840A7A08D3
:1008F80080000A128A1527260A128A11003A03195B
:10090800DE2C00300A168A11A3270A128A11013038
:100918000A168A11A3270A128A1108300A168A11A0
:10092800A3270A128A1101300A168A11A3270A126C
:100938008A11E83083120313A8008830A9000A1628
:100948008A1179260A128A111A3083120313C900F0
:100958005E30C8006D30C700C70BB02CC80BB02C78
:10096800C90BB02CB72C0C300A168A11A3270A120F
:100978008A1101300A168A11A3270A128A11A9308E
:1009880083120313A8008930A9000A168A11792650
:100998000A128A111A3083120313C9005E30C80084
:1009A8006D30C700C70BD62CC80BD62CC90BD62C5C
:1009B800DD2CE62C013083120313CA070318CB0A77
:1009C8000030CB071A3083120313C9005E30C80009
:1009D8006D30C700C70BEE2CC80BEE2CC90BEE2CE4
:1009E800F52C00300A168A11A3270A128A11013041
:1009F8000A168A11A3270A128A1108300A168A11C0
:100A0800A3270A128A1101300A168A11A3270A128B
:100A18008A11DB3083120313A8008830A9000A1654
:100A28008A1179260A128A111A3083120313C9000F
:100A38005E30C8006D30C700C70B202DC80B202DB5
:100A4800C90B202D272D0C300A168A11A3270A124C
:100A58008A1101300A168A11A3270A128A110A1666
:100A68008A112E250A128A118312031343034404A0
:100A7800031D482DA930A8008930A9000A168A113B
:100A880079260A128A11592D6B30A8008930A900DD
:100A98000A168A1179260A128A1101308312031361
:100AA800CA070318CB0A0030CB071A308312031386
:100AB800C9005E30C8006D30C700C70B612DC80B78
:100AC800612DC90B612D682D00300A168A11A327E4
:100AD8000A128A1101300A168A11A3270A128A11EA
:100AE80008300A168A11A3270A128A1101300A1639
:100AF8008A11A3270A128A11CE3083120313A80081
:100B08008830A9000A168A1179260A128A110A164B
:100B18008A11A6230A128A11C53083120313C7004B
:100B280047089F050D3083120313C800FB30C70028
:100B3800C70B9C2DC80B9C2D831203131F151F195F
:100B4800A32D1A3083120313C9005E30C8006D301C
:100B5800C700C70BAD2DC80BAD2DC90BAD2DB42DDE
:100B68000C300A168A11A3270A128A1101300A16B4
:100B78008A11A3270A128A11831603131E088312E7
:100B880003131E04031DDA2D6B30A8008930A90059
:100B98000A168A1179260A128A1101308312031360
:100BA800CA070318CB0A0030CB07E32DA930A800E9
:100BB8008930A9000A168A1179260A128A111A3070
:100BC80083120313C9005E30C8006D30C700C70B1D
:100BD800EB2DC80BEB2DC90BEB2DF22D00300A16AF
:100BE8008A11A3270A128A1101300A168A11A3272B
:100BF8000A128A1108300A168A11A3270A128A11C2
:100C080001300A168A11A3270A128A118730831223
:100C18000313A8008830A9000A168A1179260A1237
:100C28008A110F308316031386001A3083120313B8
:100C3800C9005E30C8006D30C700C70B212EC80B35
:100C4800212EC90B212E282E0C300A168A11A32713
:100C58000A128A1101300A168A11A3270A128A1168
:100C6800A53083120313A8008830A9000A168A1138
:100C780079260A128A111A3083120313C9005E30CA
:100C8800C8006D30C700C70B472EC80B472EC90BCD
:100C9800472E4E2E00300A168A11A3270A128A11EF
:100CA80001300A168A11A3270A128A1108300A1677
:100CB8008A11A3270A128A1101300A168A11A3275A
:100CC8000A128A11973083120313A8008830A900EA
:100CD8000A168A1179260A128A111A308312031306
:100CE800C9005E30C8006D30C700C70B792EC80B2D
:100CF800792EC90B792E802E0C300A168A11A3275B
:100D08000A128A1101300A168A11A3270A128A11B7
:100D18000A168A1104240A128A110A168A11ED2366
:100D28000A128A11031CA42EA93083120313A800E7
:100D38008930A9000A168A1179260A128A11B72E53
:100D48008D3083120313A8008930A9000A168A116E
:100D580079260A128A11013083120313CA0703186D
:100D6800CB0A0030CB071A3083120313C9005E3058
:100D7800C8006D30C700C70BBF2EC80BBF2EC90BEC
:100D8800BF2EC62E00300A168A11A3270A128A110E
:100D980001300A168A11A3270A128A110C300A1682
:100DA8008A11A3270A128A1100300A168A11A3276A
:100DB8000A128A11C13083120313A8008830A900CF
:100DC8000A168A1179260A128A11831203134A080D
:100DD800303E0A128A155A230A128A111A308312CF
:100DE8000313C9005E30C8006D30C700C70BFA2E68
:100DF800C80BFA2EC90BFA2E012F08000A128A1105
:100E080068240A128A110A128A1155200A128A11B4
:100E180083120313A001A00A00300A168A11C725FD
:100E28000A128A11831203132108E7002008E6003A
:100E380002306702673003196602031C0618262F62
:100E4800861D372F0030A400A5000030A600A7009B
:100E58000A168A1190250A128A110A128A15662220
:100E68000A128A11432F0530A4000030A500003073
:100E7800A600A7000A168A1190250A128A11D730EF
:100E88000A128A1564250A128A1183120313670845
:100E9800B3006608B200D7300A128A15F2260A1281
:100EA8008A1183160313590883120313DF00E00124
:100EB8005F08A0006008A1006430A2000030A30011
:100EC8000A168A1198240A128A11831603135808DD
:100ED800831203132007E2000030031801302107B2
:100EE800E300E401E5016908803ADF006508803A1B
:100EF8005F02031D812F64086802031C0C2F063053
:100F080083120313DF005F08A00064080A168A1121
:100F1800C6230A128A11A03E840083130008831294
:100F28000313E000840A0008E10061086302031D5E
:100F38009F2F60086202031CD42F0630DF005F0871
:100F4800A00064080A168A11C6230A128A11A23E52
:100F580084008313000883120313E000840A000846
:100F6800E10063086102031DBB2F62086002031CD5
:100F7800D42F0630DF005F08A00064080A168A1123
:100F8800C6230A128A11A43E840083130008831220
:100F98000313A400840A0008A5000030A600EB2F64
:100FA8000630DF005F08A00064080A168A11C6230D
:100FB8000A128A11A43E84008313000883120313C3
:100FC800A400840A0008A5000130A6000030A7008C
:100FD8000A168A1190250A128A1101308312031306
:100FE800E4070318E50A0030E507772F08340034D2
:060FF8001A342C343E34D3
:10100000FF1B0A2883137F1883170008840A03191B
:10101000FF0A08007F087F398A000408840A031940
:10102000FF0A8200013400340A340034643400348E
:10103000E8340334103427340134023403340434E4
:1010400005340634023405340434093406340634D5
:10105000413454342B3443345734533441345034B2
:101060005F344434453446343D342234733461347F
:1010700066346534673475346134723464342234D0
:101080002C342234733461346634653467347534F7
:1010900061347234643422342C3435342C34333497
:1010A0000D340A340034533474346134723474347B
:1010B00069346E3467342034533465347234763492
:1010C00069346334653473340034503457345234E3
:1010D000203420343A342034733461346634653437
:1010E00067347534613472346434003453345334A7
:1010F0004934443420343A3420347334613466340F
:101100006534673475346134723464340034533474
:10111000743461347234743469346E346734203416
:10112000523445344C3441345934533400345334FC
:10113000743461347234743469346E3467342034F6
:1011400057344934463449340034543461347334A8
:101150006B34203443346F346D3470346C34653404
:10116000743465340034413454342B3443344934BA
:101170005034533454344134523454343D34223492
:1011800000344534523452344F34523420344634CF
:101190004F3455344E3444343D3400345334743475
:1011A00061347234743469346E34673420344134B9
:1011B00044344334003453347434613472347434FA
:1011C00069346E3467342034523454344334003438
:1011D0005334743461347234743469346E34673423
:1011E00020344C344334443400344F345634453482
:1011F0005234203456344F344C3454344134473410
:1012000045340034413454342B344334493450345D
:10121000533445344E3444343D3400344134543432
:101220002B34433457345134413450340D340A3460
:101230000034413454342B34433449344634533429
:1012400052340D340A340034413454342B34433492
:1012500057344A34413450343D342234003441341C
:1012600054342B34433457344D344F3444344534A0
:101270003D3400346E346F34203463346834613468
:101280006E34673465340034413454342B34523472
:10129000533454340D340A34003456346F346C34BF
:1012A00074346134673465340034543465347334D1
:1012B000743469346E34673400344C3469346E34B9
:1012C0006B3465346434003455346E346C346934B2
:1012D0006E346B3400344534523452344F3452340B
:1012E00000344534723472346F34723400342B3429
:1012F0004934503444342C3400347234653461340D
:101300006434793400340D340A340D340A34003432
:10131000413454340D340A340034463441344934B1
:101320004C34003422340D340A34003422342C344A
:10133000223400344134543445340034543443347A
:1013400050340034553444345034003422342C3476
:0E13500000344F344B340034253475340034EF
:101368008316031387150716283083120313940076
:10137800831603139101831203133B08BF003C0833
:10138800C0003D08C1003E08C20002300310BF0D76
:10139800C00DC10DC20DFF3E031DCA294208A3009E
:1013A8004108A2004008A1003F08A0000030A700A3
:1013B8000030A6000330A500E830A4000A168A1100
:1013C800BA260A128A15831203132308B0002208CA
:1013D800AF002108AE002008AD000130B400313064
:1013E800B3002D30B2000030B1000A128A1506226F
:1013F800831203132D08FF3E8316031393008030D6
:1014080094000800003083120313B9000030B800BC
:101418000030B7000030B60030082F042E042D0429
:1014280003195D2ABA01BA0AB01B282A0130B5008F
:101438000310AD0DAE0DAF0DB00DB50B1C2A01306C
:10144800B5003508BA07182A0130B5000310B60DE3
:10145800B70DB80DB90DB50B2A2A30083402031D93
:101468003F2A2F083302031D3F2A2E083202031D8C
:101478003F2A2D083102031C502A2D08B1022E08DC
:10148800031C2E0FB2022F08031C2F0FB3023008C3
:10149800031C300FB402361401300310B00CAF0C2B
:1014A800AE0CAD0CFF3E031D512A0130BA02031DDC
:1014B800282A3908B0003808AF003708AE003608C7
:1014C800AD00080000300A168A11A3270A128A15EF
:1014D80001300A168A11A3270A128A150C300A1637
:1014E8008A11A3270A128A1500300A168A11A3271F
:1014F8000A128A15F53083120313A8008830A90050
:101508000A168A1179260A128A15F43083120313EF
:10151800B2000130B30032083304031DAB2A0D308A
:1015280083120313B100AF30B000B530AF00AF0B7A
:101538009B2AB00B9B2AB10B9B2AA22AFF3083124D
:101548000313B2070318B30AFF30B3078F2A061D27
:10155800932A00300A168A11A3270A128A15013025
:101568000A168A11A3270A128A150C300A168A113C
:10157800A3270A128A1500300A168A11A3270A120D
:101588008A15553083120313A8008930A9000A165A
:101598008A1179260800303084000630FF00831352
:1015A8008001840AFF0BD32A24308400DE308312A2
:1015B8000313A0000408A1000C30A2002008840036
:1015C80083130008A300A00A2108840023088000D0
:1015D800A10AA20BE22AB801B80A38080319582B45
:1015E8000A168A118E230A128A1583120313A00081
:1015F8002008B600B9013908A0002007243E84005D
:1016080083130008A100840A0008A2003908303EAC
:10161800840000082107840022080318220AFF001A
:101628000A128A1500200A128A153606031D4A2B4B
:101638000130A0003908303E840020088313800759
:101648003908223E840088300318013EFF000A1240
:101658008A1500200A128A15A0003908303E840035
:10166800831300082006031D4F2B39081C3E8400F5
:1016780088300318013EFF000A128A1500200A125A
:101688008A15A0002008B700B8014F2B3908303E52
:101698008400831380010130A0002008B9070630B8
:1016A80039020318F12AFF2A3708080083120313A6
:1016B800A7000130A40078080739013E652B031004
:1016C800A40DFF3E031D632B2408A50076088400A3
:1016D8008317771C8313250880042708A400043087
:1016E8000310A40CFF3E031D742B24080F390A12A3
:1016F8008A15A4240A128A15013083120313A40040
:10170800780CA500A50C250C0739013E8D2B03107C
:10171800A40DFF3E031D8B2B2408A6007608840029
:101728008317771C83132608800441308312031320
:10173800A400A40B9D2BA02B013083120313A4003B
:10174800780CA500A50C250C0739013EAD2B03101C
:10175800A40DFF3E031DAB2B2408FF3AA600760814
:1017680084008317771C83132608800527080F3900
:101778000A128A15A4240A128A1501308312031347
:10178800A400780CA500A50C250C0739013ECE2B2A
:101798000310A40DFF3E031DCC2B2408A6007608D9
:1017A80084008317771C8313260880044130831232
:1017B8000313A400A40BDE2BE12B013083120313C7
:1017C800A400780CA500A50C250C0739013EEE2BCA
:1017D8000310A40DFF3E031DEC2B2408FF3AA600BE
:1017E800760884008317771C831326088005080071
:1017F800103083120313A6002730A7002F08A90072
:101808002E08A8000A168A113B260A128A15831286
:1018180003132608303EB1003008840031088313D2
:101828008000E830A6000330A7002F08A3002E0888
:10183800A2001030A0002730A1000A168A115C25EA
:101848000A128A15831203132108A9002008A80088
:101858000A168A113B260A128A15831203132608D0
:10186800303EB100300A84003108831380006430B0
:10187800A6000030A7002F08A3002E08A200E83019
:10188800A0000330A1000A168A115C250A128A15E5
:10189800831203132108A9002008A8000A168A1138
:1018A8003B260A128A15831203132608303EB1001C
:1018B8003008023E84003108831380000A30A600F5
:1018C8000030A7002F08A3002E08A2006430A00053
:1018D8000030A1000A168A115C250A128A158312A3
:1018E80003132108A9002008A8000A168A113B261C
:1018F8000A128A15831203132608303EB1003008F5
:10190800033E84003108831380000A30A0000030B1
:10191800A1002F08A3002E08A2000A168A115C2530
:10192800831203132008303EB1003008043E8400BF
:101938003108831380003008053E840080010800C8
:1019480083120313A300231CBE2C0130A0007908C6
:101958000739013EB12C0310A00DFF3E031DAF2C2B
:101968002008A100760884008317771C83132108B8
:101978008004D32C0130A00079080739013EC62C19
:101988000310A00DFF3E031DC42C2008FF3AA10040
:10199800760884008317771C831321088005A31C0D
:1019A800ED2C0130A000790CA100A10C210C073905
:1019B800013EE02C0310A00DFF3E031DDE2C200885
:1019C800A200760884008317771C831322088004FA
:1019D800052D0130A000790CA100A10C210C0739BC
:1019E800013EF82C0310A00DFF3E031DF62C200825
:1019F800FF3AA200760884008317771C8313220815
:101A08008005231D1C2D0130A0007A080739013EEE
:101A18000F2D0310A00DFF3E031D0D2D2008A10062
:101A2800760884008317771C831321088004312DDE
:101A38000130A0007A080739013E242D0310A00DBB
:101A4800FF3E031D222D2008FF3AA10076088400DE
:101A58008317771C831321088005A31D4B2D0130A4
:101A6800A0007A0CA100A10C210C0739013E3E2DE3
:101A78000310A00DFF3E031D3C2D2008A200760890
:101A880084008317771C8313220880040800013020
:101A9800A0007A0CA100A10C210C0739013E562D9B
:101AA8000310A00DFF3E031D542D2008FF3AA2008D
:101AB800760884008317771C8313220880050800A2
:101AC80083120313A9000A168A1160230A128A15C1
:101AD800D0300A168A11D9230A128A1500300A163C
:101AE8008A11D9230A128A150A168A116E230A1234
:101AF8008A15D1300A168A11D9230A128A1501309B
:101B080083120313A0000030A1000A168A110425CD
:101B18000A128A150A168A111C240A128A158312B7
:101B28000313A800290884002808831380000130C3
:101B3800A0000030A1000A168A1104250A128A158D
:101B48000A168A111C240A128A1583120313A80084
:101B5800290A84002808831380000130A00000307F
:101B6800A1000A168A1104250A128A150A168A1172
:101B78001C240A128A1583120313A8002908023E9E
:101B880084002808831380000130A0000030A100E1
:101B98000A168A1104250A128A150A168A111C24A3
:101BA8000A128A1583120313A8002908033E840029
:101BB8002808831380000130A0000030A1000A1615
:101BC8008A1104250A128A150A168A111C240A1277
:101BD8008A1583120313A8002908043E84002808E4
:101BE800831380000130A0000030A1000A168A117A
:101BF80004250A128A150A168A111C240A128A1543
:101C080083120313A8002908053E840028088313BB
:101C180080000030A000A1000A168A1104250A12CB
:101C28008A150A168A111C240A128A1583120313AC
:101C3800A8002908063E84002808831380000A1695
:101C48008A1167230800763084008312031328085A
:101C58008000840A29088000840A2A088000840AEF
:101C68002B088000840A2C08800000307706031DAA
:101C78003F2E05307606031D452E83160313850176
:101C8800772E00307706031D4B2E06307606031D8F
:101C9800512E831603138601772E00307706031D15
:101CA800572E07307606031D5D2E83160313870112
:101CB800772E00307706031D632E08307606031D45
:101CC800692E831603138801772E00307706031DCB
:101CD8006F2E09307606031D752E831603138901AE
:101CE800772E00300800823083120313AE00DD30F7
:101CF800AD00AD0B7D2EAE0B7D2E03300A168A117A
:101D0800A3270A128A15213083120313AE007530F7
:101D1800AD00AD0B8D2EAE0B8D2E922E03300A1614
:101D28008A11A3270A128A15683083120313AE009A
:101D3800E330AD00AD0B9E2EAE0B9E2EA32E0330CE
:101D48000A168A11A3270A128A1502300A168A115E
:101D5800A3270A128A1502300A168A11A3270A1223
:101D68008A1508300A168A11A3270A128A15003024
:101D78000A168A11A3270A128A1506300A168A112A
:101D8800A3270A128A15083083120313AD002D0801
:101D9800AF002F152F08AD0004300310AD0CFF3E27
:101DA800031DD12E2D080F390A168A11A3270A12EE
:101DB8008A15831203132F080F390A168A11A327CD
:101DC8000A128A1500300A168A11A3270A128A15E0
:101DD80001300A168A11A327013008008312031361
:101DE800C2000A30A0000030A1004208840083131A
:101DF8000008B400B5013408A2003508A3000A168B
:101E08008A11FB260A128A15831203132008B600CA
:101E18003608BC000A30A0000030A1004208840047
:101E280083130008B400B5013408A2003508A300E4
:101E38000A168A1148270A128A15831203132008E2
:101E4800B6003608BD000A30A0000030A100420AE2
:101E5800840083130008B400B5013408A2003508D3
:101E6800A3000A168A11FB260A128A158312031385
:101E78002008B6003608BE000A30A0000030A100D5
:101E8800420A840083130008B400B5013408A20094
:101E98003508A3000A168A1148270A128A158312E0
:101EA80003132008B6003608BF000A30A00000302F
:101EB800A1004208023E840083130008B400B50163
:101EC8003408A2003508A3000A168A11FB260A1254
:101ED8008A15831203132008B6003608C0000A309A
:101EE800A0000030A1004208023E840083130008CD
:101EF800B400B5013408A2003508A3000A168A11F7
:101F080048270A128A15831203132008B6003608D8
:101F1800C10008300A168A11A3270A128A15003050
:101F28000A168A11A3270A128A1583120313410875
:101F38000A128A155A230A128A15831203134008B3
:101F48000A128A155A230A128A153A300A128A1571
:101F58005A230A128A15831203133F080A128A1594
:101F68005A230A128A15831203133E080A128A1585
:101F78005A230A128A153A300A128A155A230A1263
:101F88008A15831203133D080A128A155A230A1266
:101F98008A15831203133C080A128A155A230A1257
:101FA8008A15831203133308AF003208AE003730A6
:101FB800B4003408B0000A128A15FC230A128A15E4
:101FC8000C300A168A11A3270A128A1500300A163D
:101FD8008A11A3270A128A154D3083120313A80009
:101FE8008930A9000A168A1179260A128A1537300B
:081FF8000A168A117624080084
:1026C0000A168A11852383160313111408000A16AB
:1026D0008A11852383160313111508000A168A111F
:1026E0008523831603139114080083120313A0009B
:1026F0000C1E782B20089900080064008001840AD1
:1027000004060319003404067E2B831603131419E0
:10271000852B11081F3903190800852B8312031319
:10272000981C942B181218168C1E942B1A0808004B
:10273000A93489347D3489348D3489343A348934E8
:102740005D3489346434893466340234FF3083164E
:10275000031385004130831203139F00C03083169A
:1027600003139F000B178B1708007E088A007F0851
:102770008200B5230A168A118000840A04087D06A7
:1027800003190034FF0A0319FE0AB92B831203133D
:10279000A300A201231CD02B2008A1002108A2071E
:1027A0000310A00D0310A30C2308031DCA2B22083D
:1027B000080083120313A0000A168A1185230A1643
:1027C0008A11831203132008930083160313111B2D
:1027D000EB2B031008000314080088308312031346
:1027E000A1008930A2000A168A11DF240A168A1174
:1027F0000A128A15CF220A168A11013A0319022CED
:102800000310080003140800831603130713871727
:102810000A3099001815181283120313981783169B
:102820000313981683120313181683160313181331
:10283000831203131813080083120313A7000F3029
:102840002705A4000A30A5002508A0002708A60037
:1028500004300310A60CFF3E031D292C26080A167F
:102860008A11C6238312031324070800831203135B
:10287000A1003C2C831203136400831603178C18E9
:102880003A2C831203132108831203178D003F3063
:1028900083120313A0002008831603178C050C1461
:1028A000831203170C080800831203130C1F6D2CEE
:1028B0007408F0007007BE3E8400831603131E08E0
:1028C00083138000840A831203131E0880000130E2
:1028D000F4070318F50A0030F50773088A00720838
:1028E0008400710E8300FE0E7E0E09008312031316
:1028F000AB00A901AA0129082B07A8002808840019
:10290000831300080319080029082B07A8002808CA
:10291000840000080A128A155A230A168A11013007
:1029200083120313A9070318AA0A0030AA077B2CF5
:1029300083120313A401A501201CA42C2208A407C0
:102940000318A50A2308A50701300310A20DA30D43
:10295000FF3E031DA52C01300310A10CA00CFF3E6F
:10296000031DAC2C20082104031D9C2C2508A1006C
:102970002408A000080083120313BA002F30A1001E
:102980008930A2000A168A11DF240A168A118312DE
:1029900003133A08303E0A168A1175230A168A1163
:1029A000853083120313A1008930A2000A168A1110
:1029B000DF240A168A110A128A15CF220800831210
:1029C00003132208FF00210884000A128A15002040
:1029D0000A168A11003A031908002208FF0021088C
:1029E00084000A128A1500200A168A110A168A1112
:1029F00075230A168A11013083120313A1070318E5
:102A0000A20A0030A207DF2C0A168A1185230A16B3
:102A10008A118316031391150A168A1185230A1643
:102A20008A11831203131308A2002208A3000A16B6
:102A30008A1185230A168A118312031320082104A0
:102A4000031D262D831603139116292D83160313B8
:102A50009112111683120313230808000030831209
:102A60000313BE000030BD000030BC006430BB006A
:102A70000A128A15B4210A168A110A168A116023CD
:102A80000A168A11D1300A168A11D9230A168A1118
:102A90000A168A116723031083160313111F0314E8
:102AA00000300318013083120313C500C601450826
:102AB000C3004608C4000800831203132008210441
:102AC00003198B2DA501A50AA11B722D013003103E
:102AD000A00DA10DFF3E031D672D0130A4002408A9
:102AE000A507642D21082302031D782D200822024A
:102AF000031C802D2008A2022108031CA303A302AB
:102B000001300310A10CA00CFF3E031D812D0130EC
:102B1000A502031D722D2308A1002208A0000800B1
:102B2000AE2D0F3086000800260C031C0612031879
:102B300006160800260C031C8612031886160800C9
:102B4000260C031C0613031806170800260C031C8A
:102B500086130318861708008601080083120313E2
:102B60002508003A0319B52DAC2D2408003A0319A5
:102B7000912D013A0319942D033A03199A2D013A24
:102B80000319A02D073A0319A62DAC2D08008312B6
:102B90000313A400C530A20022089F052408A20048
:102BA00002300310A20DFF3E031DD12D0310220D94
:102BB000A30023089F04831603130C178312031327
:102BC0000C130D3083120313A300FB30A200A20BE1
:102BD000E72DA30BE72D831203131F1520080319FC
:102BE000FC2D1F19F12D1E08A100831603131E08CA
:102BF00083120313A0000800A001A10108008312A2
:102C00000313BB002430A1008930A2000A168A11E8
:102C1000DF240A168A11831203133B08A100013036
:102C2000A2000A168A11DF240A168A11963083122E
:102C30000313A1008930A2000A168A11DF240A16A4
:102C40008A11831203133A08A1000130A2000A1668
:102C50008A11DF240A168A11923083120313A1000D
:102C60008930A2000A168A11DF240A168A110A1274
:102C70008A15CF22080083120313AB01AC0126088A
:102C800027040319742EAD01AD0AA71B532E013082
:102C90000310A60DA70DFF3E031D482E0130AA000C
:102CA0002A08AD07452E01300310AB0DAC0DFF3ED9
:102CB000031D542E27082902031D602E2608280212
:102CC000031C692E2608A8022708031CA903A902D1
:102CD0002B1401300310A70CA60CFF3E031D6A2E17
:102CE0000130AD02031D532E2C08A7002B08A600AF
:102CF000080083120313AD01AE012D082807AB00B5
:102D00002908AA000318AA0AAD1BAA0383120313F9
:102D10002A08AC002C08FF002B0884000A128A1530
:102D200000200A168A11003A031908002D08280706
:102D3000AB002908AA000318AA0AAD1BAA03831234
:102D400003132A08AC002C08FF002B0884000A1289
:102D50008A1500200A168A110A128A155A230A16A1
:102D60008A11013083120313AD070318AE0A003035
:102D7000AE077D2E003083120313AC000030AB0091
:102D80000030AA000030A900201CDA2E2408A90770
:102D9000250803110318013E031DAA072608031185
:102DA0000318013E031DAB07270803110318013E5A
:102DB000031DAC070130A8000310A40DA50DA60D3E
:102DC000A70DA80BDC2E01300310A30CA20CA10C44
:102DD000A00CFF3E031DE42E23082204210420043E
:102DE000031DC42E2C08A3002B08A2002A08A10052
:102DF0002908A000080083120313A601A31F072FB0
:102E0000A209A309A20A0319A30AA601A60AA11FDF
:102E10000E2FA009A109A00A0319A10A2008210464
:102E200003193B2FA501A50AA11B222F0130031076
:102E3000A00DA10DFF3E031D172F0130A400240893
:102E4000A507142F21082302031D282F2008220282
:102E5000031C302F2008A2022108031CA303A30295
:102E600001300310A10CA00CFF3E031D312F0130D7
:102E7000A502031D222F26080319432FA209A30927
:102E8000A20A0319A30A2308A1002208A00008002F
:102E900083120313A601A11F542FA009A109A00AA0
:102EA0000319A10AA601A60AA31F5F2FA209A3095D
:102EB000A20A0319A30A0130A4002408A606A70148
:102EC000A801200821040319962FA501A50AA11B1A
:102ED000752F01300310A00DA10DFF3E031D6A2FB9
:102EE0000130A4002408A507672F01300310A70DA7
:102EF000A80DFF3E031D762F21082302031D822FFC
:102F000020082202031C8B2F2008A2022108031C88
:102F1000A303A302271401300310A10CA00CFF3E51
:102F2000031D8C2F0130A502031D752F26080319E0
:102F30009E2FA709A809A70A0319A80A2808A10013
:102F40002708A000080083120313A7000130A40083
:102F500078080739013EAE2F0310A40DFF3E031D74
:102F6000AC2F2408FF3AA500760884008317771C4D
:102F700083132508800527080A128A15A4240A1637
:102F80008A11013083120313A400780CA500A50C4C
:102F9000250C0739013ECE2F0310A40DFF3E031D63
:102FA000CC2F2408A600760884008317771C83138F
:102FB000260880041A3083120313A500F730A400FA
:102FC000A40BE02FA50BE02FE52F01308312031394
:102FD000A400780CA500A50C250C0739013EF22FA2
:102FE0000310A40DFF3E031DF02F2408FF3AA60096
:102FF000760884008317771C831326088005080051
:02400E007A3FF7
:00000001FF
