:020000040000FA
:060000000A128A110E280D
:10000800FE00030EF1000408F2000A08F3000A12C9
:100018008A159E280A128A1111288313E930FD00D7
:100028000830FE001A30FF00DD3084000A128A15FD
:1000380039200A128A116D30FD000830FE000030A8
:10004800FF00663084000A128A1539200A128A11C4
:10005800831790308400A3300A168A11F8270A12F1
:100068008A118313A0308400DD300A168A11F8271C
:100078000A128A115330840066300A168A11F8274A
:10008800F601F701F801F901FA0183010A128A1150
:10009800E62D83120313CA01CB01283084006608B9
:1000A80083138000840A67088000840A6808800037
:1000B800840A69088000840A6A0880000A128A1182
:1000C800D5260A128A11003A0319C32800300A12E9
:1000D8008A11A1270A128A1101300A128A11A1274E
:1000E8000A128A1108300A128A11A1270A128A11E3
:1000F80001300A128A11A1270A128A11F8308312D4
:100108000313A8008330A9000A128A1563220A1271
:100118008A111A3083120313C9005E30C8006D308B
:10012800C700C70B9528C80B9528C90B95289C288C
:100138000C300A128A11A1270A128A1101300A12F8
:100148008A11A1270A128A11D23083120313A80038
:100158008430A9000A128A1563220A128A111A30F9
:1001680083120313C9005E30C8006D30C700C70B87
:10017800BB28C80BBB28C90BBB28C228CB28013019
:1001880083120313CA070318CB0A0030CB071A30AF
:1001980083120313C9005E30C8006D30C700C70B57
:1001A800D328C80BD328C90BD328DA2800300A1261
:1001B8008A11A1270A128A1101300A128A11A1276D
:1001C8000A128A1108300A128A11A1270A128A1102
:1001D80001300A128A11A1270A128A11EB30831200
:1001E8000313A8008330A9000A128A1563220A1291
:1001F8008A111A3083120313C9005E30C8006D30AB
:10020800C700C70B0529C80B0529C90B05290C29E7
:100218000C300A128A11A1270A128A1101300A1217
:100228008A11A1270A128A110A128A1554210A1260
:100238008A118312031343034404031D2D29D2306A
:10024800A8008430A9000A128A1563220A128A11AA
:100258003E298530A8008430A9000A128A15632235
:100268000A128A11013083120313CA070318CB0A32
:100278000030CB071A3083120313C9005E30C80060
:100288006D30C700C70B4629C80B4629C90B46293C
:100298004D2900300A128A11A1270A128A11013049
:1002A8000A128A11A1270A128A1108300A128A1121
:1002B800A1270A128A1101300A128A11A1270A12EB
:1002C8008A11DE3083120313A8008330A9000A12B2
:1002D8008A1563220A128A110A128A1526200A121E
:1002E8008A11C53083120313C70047089F050D30D4
:1002F80083120313C800FB30C700C70B8129C80B42
:100308008129831203131F151F1988291A30831294
:100318000313C9005E30C8006D30C700C70B9229AF
:10032800C80B9229C90B922999290C300A128A11F3
:10033800A1270A128A1101300A128A11A1270A126A
:100348008A11831603131E08831203131E04031D48
:10035800BF298530A8008430A9000A128A156322B3
:100368000A128A11013083120313CA070318CB0A31
:100378000030CB07C829D230A8008430A9000A125F
:100388008A1563220A128A111A3083120313C900CC
:100398005E30C8006D30C700C70BD029C80BD02904
:1003A800C90BD029D72900300A128A11A1270A12AD
:1003B8008A1101300A128A11A1270A128A110830FB
:1003C8000A128A11A1270A128A1101300A128A1107
:1003D800A1270A128A11873083120313A8008330D9
:1003E800A9000A128A1563220A128A110F3083168D
:1003F800031386001A3083120313C9005E30C80045
:100408006D30C700C70B062AC80B062AC90B062A77
:100418000D2A0C300A128A11A1270A128A110130FA
:100428000A128A11A1270A128A11B53083120313FE
:10043800A8008330A9000A128A1563220A128A11B9
:100448001A3083120313C9005E30C8006D30C7002C
:10045800C70B2C2AC80B2C2AC90B2C2A332A00308C
:100468000A128A11A1270A128A1101300A128A1166
:10047800A1270A128A1108300A128A11A1270A1222
:100488008A1101300A128A11A1270A128A11A7308B
:1004980083120313A8008330A9000A128A15632265
:1004A8000A128A111A3083120313C9005E30C80079
:1004B8006D30C700C70B5E2AC80B5E2AC90B5E2ABF
:1004C800652A0C300A128A11A1270A128A110130F2
:1004D8000A128A11A1270A128A110A128A11E7221E
:1004E8000A128A110A128A156D200A128A11031C2F
:1004F800892AD23083120313A8008430A9000A1273
:100508008A1563220A128A119C2AB63083120313B1
:10051800A8008430A9000A128A1563220A128A11D7
:10052800013083120313CA070318CB0A0030CB0724
:100538001A3083120313C9005E30C8006D30C7003B
:10054800C70BA42AC80BA42AC90BA42AAB2A0030BB
:100558000A128A11A1270A128A1101300A128A1175
:10056800A1270A128A110C300A128A11A1270A122D
:100578008A1100300A128A11A1270A128A11D13071
:1005880083120313A8008330A9000A128A15632274
:100598000A128A11831203134A08303E0A128A1576
:1005A80033250A128A111A3083120313C9005E30E8
:1005B800C8006D30C700C70BDF2AC80BDF2AC90B7C
:1005C800DF2AE62A080083160313071387170A3061
:1005D800990018151812831203139817831603131A
:1005E800981683120313181683160313181383120D
:0605F800031318130800B4
:10060000FF1B0A2B83137F1883170008840A031922
:10061000FF0A08007F087F398A000408840A03194A
:10062000FF0A8200013400340A3400346434003498
:10063000E8340334103427340134023403340434EE
:1006400005340634023405340434093406340634DF
:10065000413454342B3443345734533441345034BC
:100660005F344434453446343D3422347334613489
:1006700066346534673475346134723464342234DA
:100680002C34223473346134663465346734753401
:1006900061347234643422342C3435342C343334A1
:1006A0000D340A3400345334743461347234743485
:1006B00069346E346734203453346534723476349C
:1006C00069346334653473340034503457345234ED
:1006D000203420343A342034733461346634653441
:1006E00067347534613472346434003453345334B1
:1006F0004934443420343A34203473346134663419
:10070000653467347534613472346434003453347E
:10071000743461347234743469346E346734203420
:10072000523445344C344134593453340034563403
:100730004F344C34543441344734453420347734C6
:10074000613472346E3469346E3467340034533437
:10075000743461347234743469346E3467342034E0
:100760005734493446344934003454346134733492
:100770006B34203443346F346D3470346C346534EE
:10078000743465340034413454342B3443344934A4
:100790005034533454344134523454343D3422347C
:1007A00000344534523452344F34523420344634B9
:1007B0004F3455344E3444343D340034533474345F
:1007C00061347234743469346E34673420344134A3
:1007D00044344334003453347434613472347434E4
:1007E00069346E3467342034523454344334003422
:1007F0005334743461347234743469346E3467340D
:1008000020344C34433444340034413454342B3495
:10081000433449345034533445344E3444343D34F5
:100820000034413454342B3443345734513441343C
:1008300050340D340A340034413454342B344334AE
:1008400049344634533452340D340A34003441347C
:1008500054342B34433457344A34413450343D34C7
:1008600022340034413454342B34433457344D341F
:100870004F34443445343D3400346E346F342034C6
:100880006334683461346E34673465340034413421
:1008900054342B345234533454340D340A34003429
:1008A00056346F346C3474346134673465340034D6
:1008B000543465347334743469346E3467340034BA
:1008C0006E3461346D3465346C3465346E340034A8
:1008D00070346134733473346C3465346E34003482
:1008E0006334743473345F346E346F3400344C3496
:1008F00069346E346B3465346434003455346E348A
:100900006C3469346E346B340034453452345234B0
:100910004F34523400344534723472346F3472348C
:1009200000342B344934503444342C340034723481
:10093000653461346434793400346E3461346D3438
:100940006534003470346134733473340034643487
:1009500061347934733400340D340A340D340A347C
:100960000034413454340D340A34003446344134B4
:1009700049344C34003422340D340A3400342234E7
:100980002C3422340034413454344534003454344B
:100990004334503400345534443450340034223419
:1009A0002C3400344F344B34003425347534003447
:1009B00083120313C2000A30A0000030A1004208D5
:1009C000840083130008B400B5013408A200350880
:1009D000A3000A128A15E5220A128A118312031350
:1009E0002008B6003608BC000A30A0000030A10084
:1009F0004208840083130008B400B5013408A20043
:100A00003508A3000A128A1584230A128A11831258
:100A100003132008B6003608BD000A30A0000030DD
:100A2000A100420A840083130008B400B501340811
:100A3000A2003508A3000A128A15E5220A128A11BB
:100A4000831203132008B6003608BE000A30A00047
:100A50000030A100420A840083130008B400B501ED
:100A60003408A2003508A3000A128A1584230A124A
:100A70008A11831203132008B6003608BF000A301B
:100A8000A0000030A1004208023E84008313000849
:100A9000B400B5013408A2003508A3000A128A1573
:100AA000E5220A128A11831203132008B6003608C1
:100AB000C0000A30A0000030A1004208023E8400BD
:100AC00083130008B400B5013408A2003508A30060
:100AD0000A128A1584230A128A118312031320082A
:100AE000B6003608C10008300A128A11A1270A127E
:100AF0008A1100300A128A11A1270A128A11831260
:100B0000031341080A128A1533250A128A11831227
:100B1000031340080A128A1533250A128A113A3043
:100B20000A128A1533250A128A11831203133F0809
:100B30000A128A1533250A128A11831203133E08FA
:100B40000A128A1533250A128A113A300A128A15B6
:100B500033250A128A11831203133D080A128A15DB
:100B600033250A128A11831203133C080A128A15CC
:100B700033250A128A11831203133308AF00320897
:100B8000AE003730B4003408B0000A128A15D525FB
:100B90000A128A110C300A128A11A1270A128A112C
:100BA00000300A128A11A1270A128A1150308312CA
:100BB0000313A8008430A9000A128A1563220A12BE
:100BC0008A1137300A128A15C02008000A128A11C9
:100BD0004D200A128A1183120313A001A00A0030CB
:100BE0000A128A15ED210A128A11831203132108B1
:100BF000DC002008DB0002305C02673003195B0276
:100C0000031C0618052E861D162E0030A400A50014
:100C10000030A600A7000A128A15B6210A128A110E
:100C20000A128A153F240A128A11222E0530A400C6
:100C30000030A5000030A600A7000A128A15B621D0
:100C40000A128A115F300A128A153D270A128A1188
:100C5000831203135C08B3005B08B2005F300A1212
:100C60008A11D8240A128A11831203136108CC0056
:100C7000CD014C08A0004D08A1006430A200003056
:100C8000A3000A128A15E2200A128A1183120313A2
:100C900060082007CF000030031801302107D00082
:100CA000D101D2015E08803ACC005208803A4C0251
:100CB000031D5C2E51085D02031CEB2D06308312D0
:100CC0000313CC004C08A00051080A128A154620D4
:100CD0000A128A11A03E84008313000883120313B2
:100CE000CD00840A0008CE004E085002031D7A2E63
:100CF0004D084F02031CAF2E0630CC004C08A0005C
:100D000051080A128A1546200A128A11A23E84004E
:100D10008313000883120313CD00840A0008CE0059
:100D200050084E02031D962E4F084D02031CAF2E95
:100D30000630CC004C08A00051080A128A15462043
:100D40000A128A11A43E840083130008831203133D
:100D5000A400840A0008A5000030A600C62E0630B4
:100D6000CC004C08A00051080A128A1546200A122D
:100D70008A11A43E84008313000883120313A40085
:100D8000840A0008A5000130A6000030A7000A125E
:100D90008A15B6210A128A11013083120313D10772
:100DA0000318D20A0030D207522E66308400831214
:100DB0000313280883138000840A29088000840A0A
:100DC0002A088000840A2B088000840A2C088000EE
:100DD00000306706031DEE2E05306606031DF42E57
:100DE000831603138501262F00306706031DFA2E94
:100DF00006306606031D002F831603138601262F77
:100E000000306706031D062F07306606031D0C2FF2
:100E1000831603138701262F00306706031D122F48
:100E200008306606031D182F831603138801262F2A
:100E300000306706031D1E2F09306606031D242F90
:100E4000831603138901262F003008008230831295
:100E50000313AE00DD30AD00AD0B2C2FAE0B2C2FED
:100E600003300A128A11A1270A128A112130831233
:100E70000313AE007530AD00AD0B3C2FAE0B3C2F15
:100E8000412F03300A128A11A1270A128A116830F1
:100E900083120313AE00E330AD00AD0B4D2FAE0B4C
:100EA0004D2F522F03300A128A11A1270A128A11DC
:100EB00002300A128A11A1270A128A1102300A127C
:100EC0008A11A1270A128A1108300A128A11A12751
:100ED0000A128A1100300A128A11A1270A128A11F5
:100EE00006300A128A11A1270A128A1108308312C9
:100EF0000313AD002D08AF002F152F08AD000430EF
:100F00000310AD0CFF3E031D802F2D080F390A1270
:100F10008A11A1270A128A11831203132F080F398D
:100F20000A128A11A1270A128A1100300A128A11A4
:100F3000A1270A128A1101300A128A11A127013051
:100F4000080083120313A7000130A40068080739C2
:100F5000013EAC2F0310A40DFF3E031DAA2F240851
:100F6000FF3AA500660884008317671C83132508D1
:100F7000800527080A128A157D260A128A11013077
:100F800083120313A400680CA500A50C250C0739D7
:100F9000013ECC2F0310A40DFF3E031DCA2F2408D1
:100FA000A600660884008317671C83132608800444
:100FB0001A3083120313A500F730A400A40BDE2F10
:100FC000A50BDE2FE32F013083120313A400680C5E
:100FD000A500A50C250C0739013EF02F0310A40D28
:100FE000FF3E031DEE2F2408FF3AA600660884008A
:0C0FF0008317671C831326088005080087
:10100000083400341A342C343E34663402348316E7
:1010100003131419072811081F390319080007289A
:1010200083120313981C1628181218168C1E1628E3
:101030001A080800D234843497348434B6348434A3
:101040003D348434773484347E348434FF308316E2
:10105000031385004130831203139F00C0308316B1
:1010600003139F000B178B1708007E088A007F0868
:10107000820035200A128A158000840A04087D0641
:1010800003190034FF0A0319FE0A392883120313D7
:10109000A300A201231C50282008A1002108A207B8
:1010A0000310A00D0310A30C2308031D4A282208D7
:1010B000080083120313A0000A128A1507200A12DF
:1010C0008A15831203132008930083160313111B40
:1010D0006B280310080003140800B13083120313B7
:1010E000A1008430A2000A128A1505210A128A156D
:1010F0000A128A15A8240A128A15013A03198228AD
:10110000031008000314080083120313A7000F3014
:101110002705A4000A30A5002508A0002708A6007E
:1011200004300310A60CFF3E031D912826080A1266
:101130008A15462083120313240708008312031321
:101140000C1FB7287408F0007007533E8400831604
:1011500003131E0883138000840A831203131E08DE
:1011600080000130F4070318F50A0030F507730812
:101170008A0072088400710E8300FE0E7E0E090044
:1011800083120313AB00A901AA0129082B07A800A9
:1011900028088400831300080319080029082B0776
:1011A000A8002808840000080A128A1533250A12AC
:1011B0008A15013083120313A9070318AA0A003005
:1011C000AA07C52883120313A401A501201CEE2839
:1011D0002208A4070318A50A2308A5070130031055
:1011E000A20DA30DFF3E031DEF2801300310A10C3B
:1011F000A00CFF3E031DF62820082104031DE6284D
:101200002508A1002408A000080083120313220867
:10121000FF00210884000A128A1100230A128A158D
:10122000003A031908002208FF00210884000A126E
:101230008A1100230A128A150A168A11F0270A1247
:101240008A15013083120313A1070318A20A003084
:10125000A20705290A128A1507200A128A15831681
:10126000031391150A128A1507200A128A15831290
:1012700003131308A2002208A3000A128A150720EC
:101280000A128A158312031320082104031D4C2916
:101290008316031391164F29831603139112111607
:1012A0008312031323080800003083120313BE00C7
:1012B0000030BD000030BC006430BB000A128A154B
:1012C00032230A128A150A168A11DB270A128A1596
:1012D000D1300A128A1559200A128A150A168A1163
:1012E000E227031083160313111F031400300318A1
:1012F000013083120313C500C6014508C300460828
:10130000C400080083120313200821040319B12923
:10131000A501A50AA11B982901300310A00DA10D5C
:10132000FF3E031D8D290130A4002408A5078A294A
:1013300021082302031D9E2920082202031CA6293E
:101340002008A2022108031CA303A30201300310FA
:10135000A10CA00CFF3E031DA7290130A502031D0F
:1013600098292308A1002208A0000800D4290F30E2
:1013700086000800260C031C061203180616080037
:10138000260C031C8612031886160800260C031C64
:101390000613031806170800260C031C86130318EF
:1013A0008617080086010800831203132508003AF7
:1013B0000319DB29D2292408003A0319B729013A75
:1013C0000319BA29033A0319C029013A0319C62996
:1013D000073A0319CC29D229080083120313A40069
:1013E000C530A20022089F052408A2000230031085
:1013F000A20DFF3E031DF7290310220DA3002308B1
:101400009F04831603130C17831203130C130D3060
:1014100083120313A300FB30A200A20B0D2AA30B1F
:101420000D2A831203131F1520080319222A1F19DE
:10143000172A1E08A100831603131E088312031324
:10144000A0000800A001A101080083120313AB0152
:10145000AC012608270403195E2AAD01AD0AA71BBB
:101460003D2A01300310A60DA70DFF3E031D322AB1
:101470000130AA002A08AD072F2A01300310AB0D56
:10148000AC0DFF3E031D3E2A27082902031D4A2AF0
:1014900026082802031C532A2608A8022708031C32
:1014A000A903A9022B1401300310A70CA60CFF3EC0
:1014B000031D542A0130AD02031D3D2A2C08A7004C
:1014C0002B08A600080083120313AD01AE012D08FE
:1014D0002807AB002908AA000318AA0AAD1BAA0313
:1014E000831203132A08AC002C08FF002B08840089
:1014F0000A128A1100230A128A15003A03190800F9
:101500002D082807AB002908AA000318AA0AAD1B5A
:10151000AA03831203132A08AC002C08FF002B082F
:1015200084000A128A1100230A128A150A128A15E7
:1015300033250A128A15013083120313AD070318ED
:10154000AE0A0030AE07672A003083120313AC00E6
:101550000030AB000030AA000030A900201CC42AD3
:101560002408A907250803110318013E031DAA0733
:10157000260803110318013E031DAB0727080311BA
:101580000318013E031DAC070130A8000310A40D91
:10159000A50DA60DA70DA80BC62A01300310A30C9C
:1015A000A20CA10CA00CFF3E031DCE2A230822048E
:1015B00021042004031DAE2A2C08A3002B08A2003E
:1015C0002A08A1002908A000080083120313A6011D
:1015D000A31FF12AA209A309A20A0319A30AA601BB
:1015E000A60AA11FF82AA009A109A00A0319A10AA5
:1015F000200821040319252BA501A50AA11B0C2BEA
:1016000001300310A00DA10DFF3E031D012B013081
:10161000A4002408A507FE2A21082302031D122B7B
:1016200020082202031C1A2B2008A2022108031CF6
:10163000A303A30201300310A10CA00CFF3E031D65
:101640001B2B0130A502031D0C2B260803192D2B83
:10165000A209A309A20A0319A30A2308A1002208C8
:10166000A00008008316031387150716283083127D
:1016700003139400831603139101831203133B0891
:10168000BF003C08C0003D08C1003E08C200023057
:101690000310BF0DC00DC10DC20DFF3E031D482B31
:1016A0004208A3004108A2004008A1003F08A00092
:1016B0000030A7000030A6000330A500E830A400E9
:1016C0000A128A15A4220A128A1583120313230808
:1016D000B0002208AF002108AE002008AD000130A4
:1016E000B4003130B3002D30B2000030B1000A1226
:1016F0008A15DF23831203132D08FF3E831603137D
:10170000930080309400080083120313A601A11FE8
:10171000902BA009A109A00A0319A10AA601A60AF3
:10172000A31F9B2BA209A309A20A0319A30A013034
:10173000A4002408A606A701A80120082104031973
:10174000D22BA501A50AA11BB12B01300310A00DBE
:10175000A10DFF3E031DA62B0130A4002408A50700
:10176000A32B01300310A70DA80DFF3E031DB22BC4
:1017700021082302031DBE2B20082202031CC72BB5
:101780002008A2022108031CA303A302271401308E
:101790000310A10CA00CFF3E031DC82B0130A502B5
:1017A000031DB12B26080319DA2BA709A809A70ADC
:1017B0000319A80A2808A1002708A0000800003083
:1017C00083120313B9000030B8000030B7000030B6
:1017D000B60030082F042E042D040319362CBA014C
:1017E000BA0AB01B012C0130B5000310AD0DAE0DCF
:1017F000AF0DB00DB50BF52B0130B5003508BA07AC
:10180000F12B0130B5000310B60DB70DB80DB90DB1
:10181000B50B032C30083402031D182C2F0833029B
:10182000031D182C2E083202031D182C2D0831021E
:10183000031C292C2D08B1022E08031C2E0FB20206
:101840002F08031C2F0FB3023008031C300FB40203
:10185000361401300310B00CAF0CAE0CAD0CFF3ED3
:10186000031D2A2C0130BA02031D012C3908B000D7
:101870003808AF003708AE003608AD000800003069
:101880000A128A11A1270A128A1501300A128A1136
:10189000A1270A128A150C300A128A11A1270A12EE
:1018A0008A1500300A128A11A1270A128A15973068
:1018B00083120313A8008330A9000A128A15632239
:1018C0000A128A15F43083120313B2000130B300F8
:1018D00032083304031D842C0D3083120313B1002E
:1018E000AF30B000B530AF00AF0B742CB00B742C20
:1018F000B10B742C7B2CFF3083120313B207031837
:10190000B30AFF30B307682C061D6C2C00300A1296
:101910008A11A1270A128A1501300A128A11A127F9
:101920000A128A150C300A128A11A1270A128A1586
:1019300000300A128A11A1270A128A155830831220
:101940000313A8008430A9000A128A156322080034
:10195000303084000630FF0083138001840AFF0BBF
:10196000AC2C24308400DD3083120313A000040863
:10197000A1000C30A2002008840083130008A300FB
:10198000A00A2108840023088000A10AA20BBB2C16
:10199000B801B80A38080319312D0A128A15102027
:1019A0000A128A1583120313A0002008B600B90199
:1019B0003908A0002007243E840083130008A100FA
:1019C000840A0008A2003908303E8400000821077C
:1019D000840022080318220AFF000A128A11002339
:1019E0000A128A153606031D232D0130A00039087E
:1019F000303E84002008831380073908223E84008B
:101A000083300318013EFF000A128A1100230A12D4
:101A10008A15A0003908303E840083130008200690
:101A2000031D282D39081C3E840083300318013E15
:101A3000FF000A128A1100230A128A15A00020084A
:101A4000B700B801282D3908303E84008313800187
:101A50000130A0002008B907063039020318CA2C4B
:101A6000D82C3708080083120313A7000130A40004
:101A700068080739013E3E2D0310A40DFF3E031DEB
:101A80003C2D2408A500660884008317671C831377
:101A9000250880042708A40004300310A40CFF3E8E
:101AA000031D4D2D24080F390A128A157D260A12AE
:101AB0008A15013083120313A400680CA500A50C3D
:101AC000250C0739013E662D0310A40DFF3E031DB2
:101AD000642D2408A600660884008317671C8313FE
:101AE00026088004413083120313A400A40B762D32
:101AF000792D013083120313A400680CA500A50CF6
:101B0000250C0739013E862D0310A40DFF3E031D51
:101B1000842D2408FF3AA600660884008317671CFA
:101B200083132608800527080F390A128A157D2697
:101B30000A128A15013083120313A400680CA50051
:101B4000A50C250C0739013EA72D0310A40DFF3E5F
:101B5000031DA52D2408A600660884008317671CB2
:101B6000831326088004413083120313A400A40BBE
:101B7000B72DBA2D013083120313A400680CA50001
:101B8000A50C250C0739013EC72D0310A40DFF3EFF
:101B9000031DC52D2408FF3AA6006608840083179C
:101BA000671C831326088005080010308312031376
:101BB000A6002730A7002F08A9002E08A8000A12A7
:101BC0008A1525220A128A15831203132608303E2D
:101BD000B10030088400310883138000E830A6008B
:101BE0000330A7002F08A3002E08A2001030A00089
:101BF0002730A1000A128A1582210A128A1583123F
:101C000003132108A9002008A8000A128A1525221A
:101C10000A128A15831203132608303EB100300AD7
:101C200084003108831380006430A6000030A700D0
:101C30002F08A3002E08A200E830A0000330A10066
:101C40000A128A1582210A128A15831203132108A7
:101C5000A9002008A8000A128A1525220A128A154E
:101C6000831203132608303EB1003008023E840080
:101C70003108831380000A30A6000030A7002F0827
:101C8000A3002E08A2006430A0000030A1000A12B8
:101C90008A1582210A128A15831203132108A900CA
:101CA0002008A8000A128A1525220A128A15831212
:101CB00003132608303EB1003008033E840031088B
:101CC000831380000A30A0000030A1002F08A30079
:101CD0002E08A2000A128A158221831203132008FB
:101CE000303EB1003008043E840031088313800088
:101CF0003008053E84008001080083120313A3000E
:101D0000231C972E0130A00069080739013E8A2E56
:101D10000310A00DFF3E031D882E2008A1006608B9
:101D200084008317671C831321088004AC2E0130C4
:101D3000A00069080739013E9F2E0310A00DFF3E49
:101D4000031D9D2E2008FF3AA1006608840083171A
:101D5000671C831321088005A31CC62E0130A00038
:101D6000690CA100A10C210C0739013EB92E03100A
:101D7000A00DFF3E031DB72E2008A20066088400B8
:101D80008317671C831322088004DE2E0130A00015
:101D9000690CA100A10C210C0739013ED12E0310C2
:101DA000A00DFF3E031DCF2E2008FF3AA2006608BB
:101DB00084008317671C831322088005231DF52EDA
:101DC0000130A0006A080739013EE82E0310A00D7B
:101DD000FF3E031DE62E2008A1006608840083173D
:101DE000671C8313210880040A2F0130A0006A08B1
:101DF0000739013EFD2E0310A00DFF3E031DFB2EF3
:101E00002008FF3AA100660884008317671C83132B
:101E100021088005A31D242F0130A0006A0CA10019
:101E2000A10C210C0739013E172F0310A00DFF3E16
:101E3000031D152F2008A200660884008317671C65
:101E400083132208800408000130A0006A0CA1005E
:101E5000A10C210C0739013E2F2F0310A00DFF3ECE
:101E6000031D2D2F2008FF3AA20066088400831767
:101E7000671C831322088005080083120313A9003E
:101E80000A168A11DB270A128A15D0300A128A151F
:101E900059200A128A1500300A128A1559200A128E
:101EA0008A150A168A11E9270A128A15D1300A12F0
:101EB0008A1559200A128A15013083120313A000D3
:101EC0000030A1000A128A152A210A128A150A1264
:101ED0008A1584200A128A1583120313A800290880
:101EE00084002808831380000130A0000030A10086
:101EF0000A128A152A210A128A150A128A158420C2
:101F00000A128A1583120313A800290A84002808DC
:101F1000831380000130A0000030A1000A128A154E
:101F20002A210A128A150A128A1584200A128A1591
:101F300083120313A8002908023E84002808831393
:101F400080000130A0000030A1000A128A152A2169
:101F50000A128A150A128A1584200A128A15831217
:101F60000313A8002908033E840028088313800077
:101F70000130A0000030A1000A128A152A210A129D
:101F80008A150A128A1584200A128A1583120313ED
:101F9000A8002908043E840028088313800001302B
:101FA000A0000030A1000A128A152A210A128A15FF
:101FB0000A128A1584200A128A1583120313A800B4
:101FC0002908053E84002808831380000030A00003
:101FD000A1000A128A152A210A128A150A128A15E4
:101FE00084200A128A1583120313A8002908063ECA
:101FF00084002808831380000A168A11E22708004B
:102FB6000A128A15072083160313111408000A1231
:102FC6008A15072083160313111508000A128A159D
:102FD6000720831603139114080083120313A0001D
:102FE6000C1EF32F20089900080064008001840A53
:0A2FF6000406031900340406F92F45
:02400E007A3FF7
:00000001FF
