:020000040000FA
:060000000A128A110E280D
:10000800FE00030EF1000408F2000A08F3000A12C9
:100018008A1585280A128A1111288313DE30FD00FB
:100028001730FE00F430FF00D23084000A128A1123
:10003800F2220A128A116A30FD001730FE00D2300F
:10004800FF00633084000A128A11F2220A128A1110
:100058000A128A1504200A128A11F6000A128A1551
:1000680005200A128A11F700831790308400B630F1
:100078000A128A11F8270A128A118313A030840001
:10008800D2300A128A11F8270A128A1153308400D2
:1000980063300A128A11F82783010A128A11EC2D9B
:1000A80083120313CA01CB01283084006308831329
:1000B8008000840A64088000840A65088000840A35
:1000C80066088000840A670880000A128A11DA2606
:1000D8000A128A11003A0319CA2800300A128A152E
:1000E80075230A128A1101300A128A1575230A1219
:1000F8008A1108300A128A1575230A128A110130EA
:100108000A128A1575230A128A11F830831203130A
:10011800A8008330A9000A128A154B220A128A11F4
:100128001A3083120313C9005E30C8006D30C7004F
:10013800C70B9C28C80B9C28C90B9C28A3280C30EB
:100148000A128A1575230A128A1101300A128A15B1
:1001580075230A128A11D23083120313A80084303F
:10016800A9000A128A154B220A128A111A30831220
:100178000313C9005E30C8006D30C700C70BC22822
:10018800C80BC228C90BC228C928D228013083123B
:100198000313CA070318CB0A0030CB071A3083129F
:1001A8000313C9005E30C8006D30C700C70BDA28DA
:1001B800C80BDA28C90BDA28E12800300A128A1598
:1001C80075230A128A1101300A128A1575230A1238
:1001D8008A1108300A128A1575230A128A11013009
:1001E8000A128A1575230A128A11EB308312031337
:1001F800A8008330A9000A128A154B220A128A1114
:100208001A3083120313C9005E30C8006D30C7006E
:10021800C70B0C29C80B0C29C90B0C2913290C3046
:100228000A128A1575230A128A1101300A128A15D0
:1002380075230A128A110A128A153B210A128A1199
:100248008312031343034404031D3429D230A80046
:100258008430A9000A128A154B220A128A114529EC
:100268008530A8008430A9000A128A154B220A1288
:100278008A11013083120313CA070318CB0A00300E
:10028800CB071A3083120313C9005E30C8006D30E3
:10029800C700C70B4D29C80B4D29C90B4D29542937
:1002A80000300A128A1575230A128A1101300A12BF
:1002B8008A1575230A128A1108300A128A157523BD
:1002C8000A128A1101300A128A1575230A128A1134
:1002D800DE3083120313A8008330A9000A128A159E
:1002E8004B220A128A110A128A1506200A128A114A
:1002F800C53083120313C70047089F050D308312CA
:100308000313C800FB30C700C70B8829C80B88290E
:10031800831203131F151F198F291A308312031311
:10032800C9005E30C8006D30C700C70B9929C80BDB
:100338009929C90B9929A0290C300A128A15752305
:100348000A128A1101300A128A1575230A128A11B3
:10035800831603131E08831203131E04031DC629E4
:100368008530A8008430A9000A128A154B220A1287
:100378008A11013083120313CA070318CB0A00300D
:10038800CB07CF29D230A8008430A9000A128A15D9
:100398004B220A128A111A3083120313C9005E30E5
:1003A800C8006D30C700C70BD729C80BD729C90BA0
:1003B800D729DE2900300A128A1575230A128A11F4
:1003C80001300A128A1575230A128A1108300A1296
:1003D8008A1575230A128A1101300A128A157523A3
:1003E8000A128A11873083120313A8008330A900E8
:1003F8000A128A154B220A128A110F308316031328
:1004080086001A3083120313C9005E30C8006D30AD
:10041800C700C70B0D2AC80B0D2AC90B0D2A142AB1
:100428000C300A128A1575230A128A1101300A1231
:100438008A1575230A128A11B53083120313A8008E
:100448008330A9000A128A154B220A128A111A301F
:1004580083120313C9005E30C8006D30C700C70B94
:10046800332AC80B332AC90B332A3A2A00300A1216
:100478008A1575230A128A1101300A128A15752302
:100488000A128A1108300A128A1575230A128A116B
:1004980001300A128A1575230A128A11A7308312AD
:1004A8000313A8008330A9000A128A154B220A12E6
:1004B8008A111A3083120313C9005E30C8006D30E8
:1004C800C700C70B652AC80B652AC90B652A6C2AA1
:1004D8000C300A128A1575230A128A1101300A1281
:1004E8008A1575230A128A110A128A1553200A12CC
:1004F8008A110A128A153C200A128A11031C902AB2
:10050800D23083120313A8008430A9000A128A1576
:100518004B220A128A11A32AB63083120313A800A9
:100528008430A9000A128A154B220A128A11013056
:1005380083120313CA070318CB0A0030CB071A30FB
:1005480083120313C9005E30C8006D30C700C70BA3
:10055800AB2AC80BAB2AC90BAB2AB22A00300A1245
:100568008A1575230A128A1101300A128A15752311
:100578000A128A110C300A128A1575230A128A1176
:1005880000300A128A1575230A128A11D130831293
:100598000313A8008330A9000A128A154B220A12F5
:1005A8008A11831203134A08303E0A128A1533252A
:1005B8000A128A111A3083120313C9005E30C80068
:1005C8006D30C700C70BE62AC80BE62AC90BE62A16
:1005D800ED2A08007E088A007F088200EE220A12AF
:1005E8008A118000840A04087D0603190034FF0A72
:0605F8000319FE0AF22ABD
:10060000FF1B0A2B83137F1883170008840A031922
:10061000FF0A08007F087F398A000408840A03194A
:10062000FF0A8200013400340A3400346434003498
:10063000E8340334103427340134023403340434EE
:1006400005340634023405340434093406340634DF
:10065000413454342B3443345734533441345034BC
:100660005F344434453446343D3422347334613489
:1006700066346534673475346134723464342234DA
:100680002C34223473346134663465346734753401
:1006900061347234643422342C3435342C343334A1
:1006A0000D340A3400345334743461347234743485
:1006B00069346E346734203453346534723476349C
:1006C00069346334653473340034503457345234ED
:1006D000203420343A342034733461346634653441
:1006E00067347534613472346434003453345334B1
:1006F0004934443420343A34203473346134663419
:10070000653467347534613472346434003453347E
:10071000743461347234743469346E346734203420
:10072000523445344C344134593453340034563403
:100730004F344C34543441344734453420347734C6
:10074000613472346E3469346E3467340034533437
:10075000743461347234743469346E3467342034E0
:100760005734493446344934003454346134733492
:100770006B34203443346F346D3470346C346534EE
:10078000743465340034413454342B3443344934A4
:100790005034533454344134523454343D3422347C
:1007A00000344534523452344F34523420344634B9
:1007B0004F3455344E3444343D340034533474345F
:1007C00061347234743469346E34673420344134A3
:1007D00044344334003453347434613472347434E4
:1007E00069346E3467342034523454344334003422
:1007F0005334743461347234743469346E3467340D
:1008000020344C34433444340034413454342B3495
:10081000433449345034533445344E3444343D34F5
:100820000034413454342B3443345734513441343C
:1008300050340D340A340034413454342B344334AE
:1008400049344634533452340D340A34003441347C
:1008500054342B34433457344A34413450343D34C7
:1008600022340034413454342B34433457344D341F
:100870004F34443445343D3400346E346F342034C6
:100880006334683461346E34673465340034413421
:1008900054342B345234533454340D340A34003429
:1008A00056346F346C3474346134673465340034D6
:1008B000543465347334743469346E3467340034BA
:1008C0006E3461346D3465346C3465346E340034A8
:1008D00070346134733473346C3465346E34003482
:1008E0006334743473345F346E346F3400344C3496
:1008F00069346E346B3465346434003455346E348A
:100900006C3469346E346B340034453452345234B0
:100910004F34523400344534723472346F3472348C
:1009200000342B344934503444342C340034723481
:10093000653461346434793400346E3461346D3438
:100940006534003470346134733473340034643487
:1009500061347934733400340D340A340D340A347C
:100960000034413454340D340A34003446344134B4
:1009700049344C34003422340D340A3400342234E7
:100980002C3422340034413454344534003454344B
:100990004334503400345534443450340034223419
:1009A0002C3400344F344B34003425347534003447
:1009B00083120313C2000A30A0000030A1004208D5
:1009C000840083130008B400B5013408A200350880
:1009D000A3000A128A15CD220A128A118312031368
:1009E0002008303EB6003608BC000A30A0000030B7
:1009F000A1004208840083130008B400B501340844
:100A0000A2003508A3000A128A151A230A128A11B5
:100A1000831203132008303EB6003608BD000A30AA
:100A2000A0000030A100420A840083130008B40033
:100A3000B5013408A2003508A3000A128A15CD2298
:100A40000A128A11831203132008303EB6003608BA
:100A5000BE000A30A0000030A100420A84008313C7
:100A60000008B400B5013408A2003508A3000A123A
:100A70008A151A230A128A11831203132008303EA2
:100A8000B6003608BF000A30A0000030A1004208BE
:100A9000023E840083130008B400B5013408A200AC
:100AA0003508A3000A128A15CD220A128A11831270
:100AB00003132008303EB6003608C0000A30A000FC
:100AC0000030A1004208023E840083130008B400F5
:100AD000B5013408A2003508A3000A128A151A23AA
:100AE0000A128A11831203132008303EB60036081A
:100AF000C10008300A128A1575230A128A110030C3
:100B00000A128A1575230A128A11831203134108E7
:100B10000A128A1533250A128A1183120313400818
:100B20000A128A1533250A128A113A300A128A15D6
:100B300033250A128A11831203133F080A128A15F9
:100B400033250A128A11831203133E080A128A15EA
:100B500033250A128A113A300A128A1533250A12ED
:100B60008A11831203133D080A128A1533250A12CB
:100B70008A11831203133C080A128A1533250A12BC
:100B80008A11831203133308AF003208AE003730E6
:100B9000B4003408B0000A128A15D5250A128A1149
:100BA0000C300A128A1575230A128A1100300A12B3
:100BB0008A1575230A128A11503083120313A80074
:100BC0008430A9000A128A154B220A128A11373082
:100BD0000A128A15A72008000A128A1154200A1244
:100BE0008A1183120313A001A00A00300A128A1589
:100BF000D4210A128A11831203132108D900200874
:100C0000D8000230590203300319580203180A2E83
:100C1000861D1B2E0030A400A5000030A600A700F2
:100C20000A128A159D210A128A110A128A15322483
:100C30000A128A11272E0530A4000030A5000030CA
:100C4000A600A7000A128A159D210A128A115C309B
:100C50000A128A153D270A128A11831203135908B2
:100C6000B3005808B2005C300A128A11D8240A1264
:100C70008A11831203135E08CC00CD014C08A0003A
:100C80004D08A1006430A2000030A3000A128A15AA
:100C9000C9200A128A11831203135D082007CF00AE
:100CA0000030031801302107D000D101D2015B08C8
:100CB000803ACC005208803A4C02031D612E510844
:100CC0005A02031CF12D063083120313CC004C088A
:100CD000A00051080A128A1515200A128A11A03E96
:100CE00084008313000883120313CD00840A0008D4
:100CF000CE004E085002031D7F2E4D084F02031CEC
:100D0000B42E0630CC004C08A00051080A128A15F7
:100D100015200A128A11A23E840083130008831250
:100D20000313CD00840A0008CE0050084E02031DB4
:100D30009B2E4F084D02031CB42E0630CC004C08ED
:100D4000A00051080A128A1515200A128A11A43E21
:100D500084008313000883120313A400840A00088C
:100D6000A5000030A600CB2E0630CC004C08A00019
:100D700051080A128A1515200A128A11A43E84000D
:100D80008313000883120313A400840A0008A5003B
:100D90000130A6000030A7000A128A159D210A1210
:100DA0008A11013083120313D1070318D20A0030CD
:100DB000D207572E6330840083120313280883134D
:100DC0008000840A29088000840A2A088000840A96
:100DD0002B088000840A2C08800000306406031D64
:100DE000F32E05306306031DF92E831603138501C8
:100DF0002B2F00306406031DFF2E06306306031DF3
:100E0000052F8316031386012B2F00306406031D64
:100E10000B2F07306306031D112F83160313870161
:100E20002B2F00306406031D172F08306306031DA7
:100E30001D2F8316031388012B2F00306406031D1A
:100E4000232F09306306031D292F831603138901FD
:100E50002B2F00300800823083120313AE00DD30E8
:100E6000AD00AD0B312FAE0B312F03300A128A15B6
:100E700075230A128A11213083120313AE007530D4
:100E8000AD00AD0B412FAE0B412F462F03300A12A0
:100E90008A1575230A128A11683083120313AE0073
:100EA000E330AD00AD0B522FAE0B522F572F033056
:100EB0000A128A1575230A128A1102300A128A153B
:100EC00075230A128A1102300A128A1575230A1232
:100ED0008A1108300A128A1575230A128A11003005
:100EE0000A128A1575230A128A1106300A128A1507
:100EF00075230A128A11083083120313AD002D08DE
:100F0000AF002F152F08AD0004300310AD0CFF3ECD
:100F1000031D852F2D080F390A128A1575230A1211
:100F20008A11831203132F080F390A128A157523A9
:100F30000A128A1100300A128A1575230A128A11C0
:100F400001300A128A157523013008008316031335
:100F50008715071628308312031394008316031392
:100F60009101831203133B08BF003C08C0003D08F9
:100F7000C1003E08C20002300310BF0DC00DC10DFC
:100F8000C20DFF3E031DBC2F4208A3004108A20072
:100F90004008A1003F08A0000030A7000030A600D4
:100FA0000330A500E830A4000A128A158C220A1228
:100FB0008A11831203132308B0002208AF0021080E
:100FC000AE002008AD000130B4003130B3002D3048
:100FD000B2000030B1000A128A15D2238312031323
:100FE0002D08FF3E83160313930080309400080001
:100FF00064008001840A0406031900340406F92FF2
:10100800C8340034FF30831603138500413083123F
:1010180003139F00C030831603139F000B178B1711
:10102800080083120313A300A201231C1F28200811
:10103800A1002108A2070310A00D0310A30C230888
:10104800031D19282208080083120313A0000A169A
:101058008A11E1270A128A158312031320089300C4
:1010680083160313111B3A28031008000314080001
:10107800B13083120313A1008430A2000A128A152A
:10108800EC200A128A150A128A15A8240A128A154F
:10109800013A0319512803100800031408008316A5
:1010A8000313071387170A309900181518128312AB
:1010B800031398178316031398168312031318162D
:1010C80083160313181383120313181308008312CB
:1010D8000313A7000F302705A4000A30A500250830
:1010E800A0002708A60004300310A60CFF3E031D2D
:1010F800782826080A128A15152083120313240754
:101108000800831203130C1F9E287408F000700750
:10111800BE3E8400831603131E0883138000840ACE
:10112800831203131E0880000130F4070318F50A20
:101138000030F50773088A0072088400710E830076
:10114800FE0E7E0E090083120313AB00A901AA014B
:1011580029082B07A800280884008313000803190E
:10116800080029082B07A8002808840000080A128C
:101178008A1533250A128A15013083120313A90729
:101188000318AA0A0030AA07AC2883120313A40183
:10119800A501201CD5282208A4070318A50A23089E
:1011A800A50701300310A20DA30DFF3E031DD6288D
:1011B80001300310A10CA00CFF3E031DDD28200800
:1011C8002104031DCD282508A1002408A00008003B
:1011D800831203132208FF00210884000A128A11CF
:1011E80000230A128A15003A031908002208FF0092
:1011F800210884000A128A1100230A128A150A1685
:101208008A11D9270A128A15013083120313A107FC
:101218000318A20A0030A207EC280A168A11E1274F
:101228000A128A158316031391150A168A11E127E3
:101238000A128A15831203131308A2002208A300B6
:101248000A168A11E1270A128A1583120313200845
:101258002104031D33298316031391163629831697
:101268000313911211168312031323080800003088
:1012780083120313BE000030BD000030BC00643090
:10128800BB000A128A11A6270A128A150A168A11A1
:10129800BD270A128A15D1300A128A1528200A1287
:1012A8008A150A168A11C427031083160313111FFF
:1012B800031400300318013083120313C500C6015C
:1012C8004508C3004608C400080083120313200819
:1012D800210403199829A501A50AA11B7F2901301A
:1012E8000310A00DA10DFF3E031D74290130A400B9
:1012F8002408A507712921082302031D8529200830
:101308002202031C8D292008A2022108031CA30322
:10131800A30201300310A10CA00CFF3E031D8E296F
:101328000130A502031D7F292308A1002208A0007F
:101338000800BB290F3086000800260C031C061283
:10134800031806160800260C031C861203188616B6
:101358000800260C031C0613031806170800260CA1
:10136800031C8613031886170800860108008312D9
:1013780003132508003A0319C229B9292408003A99
:1013880003199E29013A0319A129033A0319A72928
:10139800013A0319AD29073A0319B329B9290800F5
:1013A80083120313A400C530A20022089F05240855
:1013B800A20002300310A20DFF3E031DDE29031018
:1013C800220DA30023089F040D3083120313A300EA
:1013D800FB30A200A20BEE29A30BEE298312031304
:1013E80020080319032A1F151F19F8291E08A10030
:1013F800831603131E0883120313A0000800831624
:1014080003130C17831203130C131F15A001A1015A
:10141800080083120313AB01AC0126082704031943
:10142800462AAD01AD0AA71B252A01300310A60DD7
:10143800A70DFF3E031D1A2A0130AA002A08AD078E
:10144800172A01300310AB0DAC0DFF3E031D262AF1
:1014580027082902031D322A26082802031C3B2AD2
:101468002608A8022708031CA903A9022B14013087
:101478000310A70CA60CFF3E031D3C2A0130AD0249
:10148800031D252A2C08A7002B08A6000800831294
:101498000313AD01AE012D082807AB002908AA00E7
:1014A8000318AA0AAD1BAA03831203132A08AC0067
:1014B8002C08FF002B0884000A128A1100230A1244
:1014C8008A15003A031908002D082807AB002908D7
:1014D800AA000318AA0AAD1BAA03831203132A0839
:1014E800AC002C08FF002B0884000A128A11002384
:1014F8000A128A150A128A1533250A128A1501302A
:1015080083120313AD070318AE0A0030AE074F2A43
:10151800003083120313AC000030AB000030AA0087
:101528000030A900201CAC2A2408A90725080311AB
:101538000318013E031DAA07260803110318013EDC
:10154800031DAB07270803110318013E031DAC0751
:101558000130A8000310A40DA50DA60DA70DA80B1A
:10156800AE2A01300310A30CA20CA10CA00CFF3E64
:10157800031DB62A2308220421042004031D962AE9
:101588002C08A3002B08A2002A08A1002908A00003
:10159800080083120313A601A31FD92AA209A309CD
:1015A800A20A0319A30AA601A60AA11FE02AA009F4
:1015B800A109A00A0319A10A2008210403190D2B67
:1015C800A501A50AA11BF42A01300310A00DA10D45
:1015D800FF3E031DE92A0130A4002408A507E62AD6
:1015E80021082302031DFA2A20082202031C022BC9
:1015F8002008A2022108031CA303A3020130031040
:10160800A10CA00CFF3E031D032B0130A502031DF6
:10161800F42A26080319152BA209A309A20A0319FB
:10162800A30A2308A1002208A000080083120313BC
:10163800A601A11F262BA009A109A00A0319A10A26
:10164800A601A60AA31F312BA209A309A20A0319FE
:10165800A30A0130A4002408A606A701A8012008AF
:1016680021040319682BA501A50AA11B472B0130EA
:101678000310A00DA10DFF3E031D3C2B0130A4005B
:101688002408A507392B01300310A70DA80DFF3E2C
:10169800031D482B21082302031D542B2008220276
:1016A800031C5D2B2008A2022108031CA303A3022C
:1016B800271401300310A10CA00CFF3E031D5E2B64
:1016C8000130A502031D472B26080319702BA70913
:1016D800A809A70A0319A80A2808A1002708A00032
:1016E800080083120313A7000130A4006508073916
:1016F800013E802B0310A40DFF3E031D7E2B240802
:10170800FF3AA500630884008317641C8313250827
:10171800800527080A128A157D260A128A150130C3
:1017280083120313A400650CA500A50C250C07392A
:10173800013EA02B0310A40DFF3E031D9E2B240881
:10174800A600630884008317641C8313260880049A
:101758001A3083120313A500F730A400A40BB22B90
:10176800A50BB22BB72B013083120313A400650C11
:10177800A500A50C250C0739013EC42B0310A40DA8
:10178800FF3E031DC22B2408FF3AA600630884000D
:101798008317641C83132608800508000030831211
:1017A8000313B9000030B8000030B7000030B600AD
:1017B80030082F042E042D040319292CBA01BA0A63
:1017C800B01BF42B0130B5000310AD0DAE0DAF0DFD
:1017D800B00DB50BE82B0130B5003508BA07E42B7E
:1017E8000130B5000310B60DB70DB80DB90DB50B26
:1017F800F62B30083402031D0B2C2F083302031D6F
:101808000B2C2E083202031D0B2C2D083102031C51
:101818001C2C2D08B1022E08031C2E0FB2022F0813
:10182800031C2F0FB3023008031C300FB402361408
:1018380001300310B00CAF0CAE0CAD0CFF3E031D15
:101848001D2C0130BA02031DF42B3908B0003808EA
:10185800AF003708AE003608AD00080000300A12A5
:101868008A1575230A128A1501300A128A157523FA
:101878000A128A150C300A128A1575230A128A155B
:1018880000300A128A1575230A128A1597308312B6
:101898000313A8008330A9000A128A154B220A12E2
:1018A8008A15053083120313B2000030B300061DF9
:1018B800752C0D3083120313B100AF30B000B53072
:1018C800AF00AF0B652CB00B652CB10B652C6C2CE5
:1018D800FF3083120313B2070318B30AFF30B307AC
:1018E8005B2C00300A128A1575230A128A150130FA
:1018F8000A128A1575230A128A150C300A128A15DB
:1019080075230A128A1500300A128A1575230A12DD
:101918008A15583083120313A8008430A9000A12CC
:101928008A154B220A128A150D3083120313B1004F
:10193800AF30B000B530AF00AF0BA02CB00BA02C6F
:10194800B10BA02CA72C0800303084000630FF0013
:1019580083138001840AFF0BAC2C24308400D2301E
:1019680083120313A0000408A1000C30A200200871
:10197800840083130008A300A00A21088400230818
:101988008000A10AA20BBB2CB801B80A38080319B9
:10199800312D0A168A11EA270A128A1583120313AF
:1019A800A0002008B600B9013908A0002007243E8D
:1019B800840083130008A100840A0008A2003908E3
:1019C800303E840000082107840022080318220AF8
:1019D800FF000A128A1100230A128A153606031D0F
:1019E800232D0130A0003908303E840020088313DD
:1019F80080073908223E840083300318013EFF0027
:101A08000A128A1100230A128A15A0003908303EEA
:101A18008400831300082006031D282D39081C3E66
:101A2800840083300318013EFF000A128A11002344
:101A38000A128A15A0002008B700B801282D390815
:101A4800303E8400831380010130A0002008B907CC
:101A5800063039020318CA2CD82C3708080083121C
:101A68000313A7000130A40065080739013E3E2D85
:101A78000310A40DFF3E031D3C2D2408A500630898
:101A880084008317641C8313250880042708A40096
:101A980004300310A40CFF3E031D4D2D24080F39FC
:101AA8000A128A157D260A128A1501308312031339
:101AB800A400650CA500A50C250C0739013E662D70
:101AC8000310A40DFF3E031D642D2408A60063081F
:101AD80084008317641C8313260880044130831212
:101AE8000313A400A40B762D792D01308312031360
:101AF800A400650CA500A50C250C0739013E862D10
:101B08000310A40DFF3E031D842D2408FF3AA600F0
:101B1800630884008317641C83132608800527083C
:101B28000F390A128A157D260A128A150130831286
:101B38000313A400650CA500A50C250C0739013E6C
:101B4800A72D0310A40DFF3E031DA52D2408A600F4
:101B5800630884008317641C8313260880044130BB
:101B680083120313A400A40BB72DBA2D01308312DE
:101B78000313A400650CA500A50C250C0739013E2C
:101B8800C72D0310A40DFF3E031DC52D2408FF3AE1
:101B9800A600630884008317641C83132608800545
:101BA8000800103083120313A6002730A7002F085F
:101BB800A9002E08A8000A128A150D220A128A15F1
:101BC800831203132608303EB10030088400310820
:101BD80083138000E830A6000330A7002F08A30075
:101BE8002E08A2001030A0002730A1000A128A1582
:101BF80069210A128A15831203132108A9002008F3
:101C0800A8000A128A150D220A128A1583120313D4
:101C18002608303EB100300A840031088313800062
:101C28006430A6000030A7002F08A3002E08A200E9
:101C3800E830A0000330A1000A128A1569210A12AF
:101C48008A15831203132108A9002008A8000A1284
:101C58008A150D220A128A15831203132608303EAC
:101C6800B1003008023E84003108831380000A3036
:101C7800A6000030A7002F08A3002E08A200643099
:101C8800A0000030A1000A128A1569210A128A15DB
:101C9800831203132108A9002008A8000A128A1534
:101CA8000D220A128A15831203132608303EB1004A
:101CB8003008033E84003108831380000A30A000F6
:101CC8000030A1002F08A3002E08A2000A128A15CE
:101CD8006921831203132008303EB1003008043E06
:101CE80084003108831380003008053E8400800199
:101CF800080083120313A300231C972E0130A000B1
:101D080066080739013E8A2E0310A00DFF3E031D09
:101D1800882E2008A100630884008317641C83139D
:101D280021088004AC2E0130A00066080739013E66
:101D38009F2E0310A00DFF3E031D9D2E2008FF3A85
:101D4800A100630884008317641C8313210880059D
:101D5800A31CC62E0130A000660CA100A10C210C0A
:101D68000739013EB92E0310A00DFF3E031DB72E03
:101D78002008A200630884008317641C83132208C8
:101D88008004DE2E0130A000660CA100A10C210CFD
:101D98000739013ED12E0310A00DFF3E031DCF2EA3
:101DA8002008FF3AA200630884008317641C831389
:101DB80022088005231DF52E0130A0006708073989
:101DC800013EE82E0310A00DFF3E031DE62E20085D
:101DD800A100630884008317641C8313210880040E
:101DE8000A2F0130A00067080739013EFD2E0310B5
:101DF800A00DFF3E031DFB2E2008FF3AA10063083B
:101E080084008317641C831321088005A31D242FD5
:101E18000130A000670CA100A10C210C0739013E7C
:101E2800172F0310A00DFF3E031D152F2008A20039
:101E3800630884008317641C831322088004080045
:101E48000130A000670CA100A10C210C0739013E4C
:101E58002F2F0310A00DFF3E031D2D2F2008FF3A42
:101E6800A200630884008317641C8313220880057A
:101E7800080083120313A9000A168A11BD270A1243
:101E88008A15D0300A128A1528200A128A150030BD
:101E98000A128A1528200A128A150A168A11CB27CF
:101EA8000A128A15D1300A128A1528200A128A15B0
:101EB800013083120313A0000030A1000A128A1512
:101EC80011210A128A150A128A156B200A128A151C
:101ED80083120313A80029088400280883138000AC
:101EE8000130A0000030A1000A128A1511210A123F
:101EF8008A150A128A156B200A128A15831203138F
:101F0800A800290A84002808831380000130A00053
:101F18000030A1000A128A1511210A128A150A1224
:101F28008A156B200A128A1583120313A800290840
:101F3800023E84002808831380000130A00000308E
:101F4800A1000A128A1511210A128A150A128A1585
:101F58006B200A128A1583120313A8002908033E6E
:101F680084002808831380000130A0000030A100FD
:101F78000A128A1511210A128A150A128A156B206B
:101F88000A128A1583120313A8002908043E840044
:101F98002808831380000130A0000030A1000A1235
:101FA8008A1511210A128A150A128A156B200A123B
:101FB8008A1583120313A8002908053E84002808FF
:101FC800831380000030A000A1000A128A15112195
:101FD8000A128A150A128A156B200A128A158312A8
:101FE8000313A8002908063E8400280883138000EC
:081FF8000A168A11C427080033
:102F7A000A168A11E12783160313111408000A1688
:102F8A008A11E12783160313111508000A168A11FC
:102F9A00E1278316031391140800083400341A3405
:102FAA002C343E340234023483120313A0000C1E64
:102FBA00DC2F200899000800831603131419E12F47
:102FCA0011081F3903190800E12F83120313981CF3
:102FDA00F02F181218168C1EF02F1A080800D23477
:102FEA00843497348434B63484343D348434773426
:062FFA0084347E348434AF
:02400E007A3FF7
:00000001FF
