:020000040000FA
:060000000A128A110E280D
:10000800FE00030EF1000408F2000A08F3000A16C5
:100018008A11E42C0A128A1111288313EA30FD0090
:100028000230FE00F430FF00DE3084000A168A1128
:1000380050240A128A116A30FD001430FE001D3067
:10004800FF00633084000A168A1150240A128A11AC
:100058000A168A1106240A128A11F6000A168A114B
:1000680007240A128A11F700831790308400B630EB
:100078000A168A112C240A128A118313A0308400CC
:10008800DE300A168A112C24EA01EB01EC01ED019D
:1000980083010A128A15022F83120313CA01CB01A6
:1000A80028308400630883138000840A6408800071
:1000B800840A65088000840A66088000840A670844
:1000C80080000A128A1536260A128A11003A031984
:1000D800C62800300A128A15AD200A128A1101308A
:1000E8000A128A15AD200A128A1108300A128A15D6
:1000F800AD200A128A1101300A128A15AD200A129F
:100108008A11743083120313A8008430A9000A16D8
:100118008A1131270A128A111A3083120313C9006F
:100128005E30C8006D30C700C70B9828C80B9828E8
:10013800C90B98289F280C300A128A15AD200A127C
:100148008A1101300A128A15AD200A128A11473025
:1001580083120313A8008530A9000A168A113127D3
:100168000A128A111A3083120313C9005E30C800BC
:100178006D30C700C70BBE28C80BBE28C90BBE28E8
:10018800C528CE28013083120313CA070318CB0AE7
:100198000030CB071A3083120313C9005E30C80041
:1001A8006D30C700C70BD628C80BD628C90BD62870
:1001B800DD2800300A128A15AD200A128A11013092
:1001C8000A128A15AD200A128A1108300A128A15F5
:1001D800AD200A128A1101300A128A15AD200A12BE
:1001E8008A11673083120313A8008430A9000A1605
:1001F8008A1131270A128A111A3083120313C9008F
:100208005E30C8006D30C700C70B0829C80B082925
:10021800C90B08290F290C300A128A15AD200A12B9
:100228008A1101300A128A15AD200A128A110A169B
:100238008A11E3250A128A11831203134303440423
:10024800031D30294730A8008530A9000A168A11F5
:1002580031270A128A114129F930A8008430A900EF
:100268000A168A1131270A128A11013083120313E0
:10027800CA070318CB0A0030CB071A3083120313BE
:10028800C9005E30C8006D30C700C70B4929C80BCC
:100298004929C90B4929502900300A128A15AD206D
:1002A8000A128A1101300A128A15AD200A128A111F
:1002B80008300A128A15AD200A128A1101300A1272
:1002C8008A15AD200A128A115A3083120313A80026
:1002D8008430A9000A168A1131270A128A110A16CF
:1002E8008A113D240A128A11C53083120313C700EC
:1002F80047089F050D3083120313C800FB30C70061
:10030800C70B8429C80B8429831203131F151F19CF
:100318008B291A3083120313C9005E30C8006D3070
:10032800C700C70B9529C80B9529C90B95299C2986
:100338000C300A128A15AD200A128A1101300A12ED
:100348008A15AD200A128A11831603131E08831218
:1003580003131E04031DC229F930A8008430A90024
:100368000A168A1131270A128A11013083120313DF
:10037800CA070318CB0A0030CB07CB294730A8009F
:100388008530A9000A168A1131270A128A111A30F3
:1003980083120313C9005E30C8006D30C700C70B55
:1003A800D329C80BD329C90BD329DA2900300A125B
:1003B8008A15AD200A128A1101300A128A15AD2059
:1003C8000A128A1108300A128A15AD200A128A11F7
:1003D80001300A128A15AD200A128A11D53083120B
:1003E8000313A8008330A9000A168A1131270A12BC
:1003F8008A110F308316031386001A3083120313F1
:10040800C9005E30C8006D30C700C70B092AC80B89
:10041800092AC90B092A102A0C300A128A15AD209C
:100428000A128A1101300A128A15AD200A128A119D
:10043800313083120313A8008430A9000A168A11E8
:1004480031270A128A111A3083120313C9005E3049
:10045800C8006D30C700C70B2F2AC80B2F2AC90B3D
:100468002F2A362A00300A128A15AD200A128A115C
:1004780001300A128A15AD200A128A1108300A12B0
:100488008A15AD200A128A1101300A128A15AD2088
:100498000A128A11233083120313A8008430A9009A
:1004A8000A168A1131270A128A111A308312031385
:1004B800C9005E30C8006D30C700C70B612AC80B81
:1004C800612AC90B612A682A0C300A128A15AD20E4
:1004D8000A128A1101300A128A15AD200A128A11ED
:1004E8000A168A11B2240A128A110A168A11842459
:1004F8000A128A11031C8C2A473083120313A8009E
:100508008530A9000A168A1131270A128A119F2AF2
:100518002F3083120313A8008530A9000A168A1108
:1005280031270A128A11013083120313CA070318EC
:10053800CB0A0030CB071A3083120313C9005E3090
:10054800C8006D30C700C70BA72AC80BA72AC90B5C
:10055800A72AAE2A00300A128A15AD200A128A117B
:1005680001300A128A15AD200A128A110C300A12BB
:100578008A15AD200A128A1100300A128A15AD2098
:100588000A128A114D3083120313A8008430A9007F
:100598000A168A1131270A128A11831203134A088C
:1005A800303E0A128A155F230A128A111A30831202
:1005B8000313C9005E30C8006D30C700C70BE22ABC
:1005C800C80BE22AC90BE22AE92A00300A128A1566
:1005D800AD200A128A1101300A128A15AD200800CE
:1005E800473485340B3485342F348534B934843416
:1005F800EB348434F2348434FF1B0A2B83137F18C2
:1006080083170008840A0319FF0A08007F087F3946
:100618008A000408840A0319FF0A8200013400349E
:100628000A34003464340034E83403341034273492
:1006380001340234033404340534063402340534F6
:100648000434093406340634413454342B344334E6
:100658005734443448344334503453345F34443486
:10066800453446343D3431342C3435342C3422343A
:100678003134393432342E343134363438342E343B
:1006880034342E343134303422342C34223431345E
:10069800393432342E343134363438342E34343418
:1006A8002E343134353422340D340A340034413494
:1006B80054342B34433457345334413450345F3436
:1006C8004434453446343D3422345334613466343A
:1006D80065346734753461347234643422342C34AC
:1006E8002234533461346634653467347534613484
:1006F8007234643422342C3435342C3433340D348D
:100708000A340034413454342B344334493450349B
:100718005334453452345634453452343D343134EC
:100728002C3431343034303431340D340A3400341C
:10073800413454342B3443345734443448344334E8
:1007480050345F344434453446343D3430342C34EA
:1007580031340D340A340034413454342B344334A6
:100768004934503452344534433456344D344F347C
:10077800443445343D3430340D340A340034533471
:10078800743461347234743469346E3467342034A8
:10079800533465347234763469346334653473346D
:1007A80000345334743461347234743469346E34BC
:1007B80067342034523445344C344134593453343A
:1007C800003450345734523420343A3420345334BB
:1007D8006134663465346734753461347234643432
:1007E800003453345334493444343A342034533481
:1007F8006134663465346734753461347234643412
:10080800003456344F344C3454344134473445342E
:1008180020347734613472346E3469346E3467341A
:100828000034413454342B344334493450344D3437
:10083800553458343D3431340D340A34003453348B
:10084800743461347234743469346E3467342034E7
:100858005734493446344934003454346134733499
:100868006B34203443346F346D3470346C346534F5
:10087800743465340034413454342B3443344934AB
:100888005034533454344134523454343D34223483
:1008980000344534523452344F34523420344634C0
:1008A8004F3455344E3444343D3400345334743466
:1008B80061347234743469346E34673420344134AA
:1008C80044344334003453347434613472347434EB
:1008D80069346E3467342034523454344334003429
:1008E8005334743461347234743469346E34673414
:1008F80020344C34433444340034413454342B349D
:10090800433449345034533445344E3444343D34FC
:100918000034413454342B34433457345134413443
:1009280050340D340A340034413454342B344334B5
:1009380049344634533452340D340A340034413483
:1009480054342B34433457344A34413450343D34CE
:1009580022340034413454342B34433457344D3426
:100968004F34443445343D3400346E346F342034CD
:100978006334683461346E34673465340034413428
:1009880054342B345234533454340D340A34003430
:10099800543465347334743469346E3467340034D1
:1009A8006E3461346D3465346C3465346E340034BF
:1009B80070346134733473346C3465346E34003499
:1009C8006334743473345F346E346F3400344C34AD
:1009D80069346E346B3465346434003455346E34A1
:1009E8006C3469346E346B340034453452345234C8
:1009F8004F34523400344534723472346F347234A4
:100A080000342B344934503444342C340034723498
:100A180065346134643479340034563420343D34D8
:100A2800203400346E3461346D34653400347034ED
:100A38006134733473340034643461347934733416
:100A480000340D340A340D340A340034413454343B
:100A58000D340A3400344634413449344C340034BB
:100A680022342C3422340034413454344534003494
:100A780054344334503400345534443450340034FE
:100A880022342C3400344F344B340034253475343C
:100A9800003408300A128A15AD200A128A11003073
:100AA8000A128A15AD200A128A11F530831203132F
:100AB800A8008330A9000A168A1131270A128A1160
:100AC8000C300A128A15AD200A128A1100300A1257
:100AD8008A15AD200A128A11E53083120313A80083
:100AE8008330A9000A168A1131270A128A110D309B
:100AF80083120313C100AF30C000B530BF00BF0B75
:100B0800832DC00B832DC10B832D8A2D00300A1233
:100B18008A15AD200A128A1101300A128A15AD20F1
:100B28000A128A1108300A128A15AD200A128A118F
:100B380000300A128A15AD200A128A110A168A1183
:100B48009B240A128A110A168A1194250A128A11FC
:100B5800831203133B033C04031DB42D6F30B52DE2
:100B680065300A128A155F230A128A119C30831293
:100B78000313A1008330A2000A168A116F250A12F6
:100B88008A11283083120313A1008330A2000A16A9
:100B98008A116F250A128A110A128A15D4220A129A
:100BA8008A11013A031DDA2D6F30DB2D65300A12E8
:100BB8008A155F230A128A11153083120313A100C4
:100BC8008430A2000A168A116F250A128A11583039
:100BD8000A128A156A210A128A11863083120313AF
:100BE800A1008330A2000A168A116F250A128A1101
:100BF8000A128A15D4220A128A11013A031D062EF6
:100C08006F30072E65300A128A155F230A128A117F
:100C1800B03083120313A1008330A2000A168A1190
:100C28006F250A128A111A3083120313C1005E302D
:100C3800C0006D30BF00BF0B1F2EC00B1F2EC10B95
:100C48001F2E262E831203135808BF00C0013F0829
:100C5800AE004008AF004830C1004108B0000A1299
:100C68008A1553220A128A11831203135908BF00E6
:100C7800C0013F08AE004008AF004C30C100410839
:100C8800B0000A128A1553220A128A11831203131A
:100C98005A08BF00C0013F08AE004008AF005030FE
:100CA800C1004108B0000A128A1553220A128A119B
:100CB800831203135B08BF00C0013F08AE00400861
:100CC800AF005430C1004108B0000A128A155322FF
:100CD8000A128A1100300A128A15AD200A128A11E6
:100CE80001300A128A15AD200A128A1108300A1238
:100CF8008A15AD200A128A1100300A128A15AD2011
:100D08000A128A1148300A168A1106250A128A110F
:100D18004C300A168A1106250A128A1150300A1612
:100D28008A1106250A128A1154300A168A110625D4
:100D38000A128A110C300A128A15AD200A128A1179
:100D480001300A128A15AD200A128A1168300A1277
:100D58008A155F230A128A11043083120313A7002D
:100D68000030A800A90144300A128A1501240A1289
:100D78008A1144300A128A155F230A128A11AA2E90
:100D880083120313C3000A30A0000030A1004308F7
:100D9800840083130008B400B5013408A2003508A4
:100DA800A3000A168A11B3270A128A1183120313A1
:100DB8002008303EB6003608BD000A30A0000030DA
:100DC800A1004308840083130008B400B501340867
:100DD800A2003508A3000A128A1552200A128A11A5
:100DE800831203132008303EB6003608BE000A30CE
:100DF800A0000030A100430A840083130008B40057
:100E0800B5013408A2003508A3000A168A11B327D1
:100E18000A128A11831203132008303EB6003608DE
:100E2800BF000A30A0000030A100430A84008313E9
:100E38000008B400B5013408A2003508A3000A125E
:100E48008A1552200A128A11831203132008303E91
:100E5800B6003608C0000A30A0000030A1004308E0
:100E6800023E840083130008B400B5013408A200D0
:100E78003508A3000A168A11B3270A128A118312A9
:100E880003132008303EB6003608C1000A30A0001F
:100E98000030A1004308023E840083130008B40018
:100EA800B5013408A2003508A3000A128A15522099
:100EB8000A128A11831203132008303EB60036083E
:100EC800C20008300A128A15AD200A128A110030B1
:100ED8000A128A15AD200A128A11831203134208D6
:100EE8000A128A155F230A128A1183120313410812
:100EF8000A128A155F230A128A113A300A128A15D1
:100F08005F230A128A118312031340080A128A15F2
:100F18005F230A128A11831203133F080A128A15E3
:100F28005F230A128A113A300A128A155F230A12BD
:100F38008A11831203133E080A128A155F230A12C4
:100F48008A11831203133D080A128A155F230A12B5
:100F58008A110A3083120313A0000030A10033085D
:100F6800B5003208B4000310B40DB50D0310B40D6C
:100F7800B50D3408A2003508A3000A128A155220BC
:100F88000A128A11831203132108BC002008BB002F
:100F98003C08AF003B08AE003730B4003408B0005E
:100FA8000A128A1553220A128A110C300A128A155B
:100FB800AD200A128A1100300A128A15AD200A12D1
:100FC8008A11113083120313A8008530A9000A166C
:100FD8008A1131270A128A1137300A168A11062512
:100FE800080083120313981CFB2F181218168C1E66
:060FF800FB2F1A0808009F
:1010000083160313871507162830831203139400E1
:10101000831603139101831203133B08BF003C089E
:10102000C0003D08C1003E08C20002300310BF0DE1
:10103000C00DC10DC20DFF3E031D16284208A300BE
:101040004108A2004008A1003F08A0000030A7000E
:101050000030A6000330A500E830A4000A168A116B
:1010600072270A128A15831203132308B00022087C
:10107000AF002108AE002008AD000130B4003130CF
:10108000B3002D30B2000030B1000A128A150A21D7
:10109000831203132D08FF3E831603139300803041
:1010A0009400080083120313A601A11F5E28A00963
:1010B000A109A00A0319A10AA601A60AA31F69286B
:1010C000A209A309A20A0319A30A0130A400240853
:1010D000A606A701A801200821040319A028A5013C
:1010E000A50AA11B7F2801300310A00DA10DFF3E12
:1010F000031D74280130A4002408A50771280130BD
:101100000310A70DA80DFF3E031D80282108230210
:10111000031D8C2820082202031C95282008A20207
:101120002108031CA303A302271401300310A10C00
:10113000A00CFF3E031D96280130A502031D7F2849
:1011400026080319A828A709A809A70A0319A80AA5
:101150002808A1002708A000080083120313A70095
:101160000130A40065080739013EB8280310A40D1A
:10117000FF3E031DB6282408FF3AA500630884003B
:101180008317641C83132508800527080A128A1513
:10119000B3240A128A15013083120313A400650CCC
:1011A000A500A50C250C0739013ED8280310A40D75
:1011B000FF3E031DD6282408A60063088400831779
:1011C000641C8313260880041A3083120313A500BD
:1011D000F730A400A40BEA28A50BEA28EF28013079
:1011E00083120313A400650CA500A50C250C073978
:1011F000013EFC280310A40DFF3E031DFA2824081D
:10120000FF3AA600630884008317641C8313260832
:1012100080050800003083120313B9000030B800C5
:101220000030B7000030B60030082F042E042D0423
:1012300003196129BA01BA0AB01B2C290130B50083
:101240000310AD0DAE0DAF0DB00DB50B2029013063
:10125000B5003508BA071C290130B5000310B60DDA
:10126000B70DB80DB90DB50B2E2930083402031D8A
:1012700043292F083302031D43292E083202031D80
:1012800043292D083102031C54292D08B1022E08D0
:10129000031C2E0FB2022F08031C2F0FB3023008BD
:1012A000031C300FB402361401300310B00CAF0C25
:1012B000AE0CAD0CFF3E031D55290130BA02031DD3
:1012C0002C293908B0003808AF003708AE003608BE
:1012D000AD00080083120313AB009830A1008430E6
:1012E000A2000A168A116F250A128A150A128A119B
:1012F000F5270A128A1583120313A7002708AD00E9
:1013000030302D02031C76293A302D02031876293D
:10131000AC012C082B07A700270884008313800149
:1013200095293A302D020318C0290A30A700270852
:10133000A0002C082B07A8002808840083130008AD
:101340000A168A115D240A128A15831203132D07C7
:10135000D03EA9002C082B07AA002A0884002908DF
:10136000831380000A128A11F5270A128A15831244
:101370000313A7002708AD0030302D020318912970
:101380000A128A11F5270A128A1583120313A7007D
:101390002708AD000130A7002708AC0704302C0255
:1013A000031C89294730A0008530A1000A168A1144
:1013B000F326080000300A128A15AD200A128A1599
:1013C00001300A128A15AD200A128A150C300A1251
:1013D0008A15AD200A128A1500300A128A15AD202E
:1013E0000A128A15053083120313A8008430A9005D
:1013F0000A168A1131270A128A15643083120313E0
:10140000B2000030B3000D3083120313B100AF30CF
:10141000B000B530AF00AF0B0B2AB00B0B2AB10BED
:101420000B2A122A83120313061D0800FF30B2078D
:101430000318B30AFF30B30732083304031D032A2D
:1014400000300A128A15AD200A128A1501300A12DC
:101450008A15AD200A128A150C300A128A15AD20A1
:101460000A128A1500300A128A15AD200A128A154E
:10147000CC3083120313A8008430A9000A168A1105
:1014800031270A128A150D3083120313B100AF30D1
:10149000B000B530AF00AF0B4B2AB00B4B2AB10BED
:1014A0004B2A522A0800E83083120313A6000330A7
:1014B000A7002F08A9002E08A8000A168A11B52631
:1014C0000A128A15831203132608303EB100300831
:1014D00084003108831380006430A6000030A70028
:1014E0002F08A3002E08A200E830A0000330A100BE
:1014F0000A168A1111260A128A158312031321086B
:10150000A9002008A8000A168A11B5260A128A1511
:10151000831203132608303EB100300A84003108DC
:10152000831380000A30A6000030A7002F08A30014
:101530002E08A2006430A0000030A1000A168A1113
:1015400011260A128A15831203132108A900200804
:10155000A8000A168A11B5260A128A1583120313E7
:101560002608303EB1003008023E84003108831363
:1015700080000A30A0000030A1002F08A3002E0830
:10158000A2000A168A111126831203132008303E86
:10159000B1003008033E8400310883138000300816
:1015A000043E840080010800303084000630FF00D3
:1015B00083138001840AFF0BD82A24308400DE3094
:1015C00083120313A0000408A1000C30A20020081D
:1015D000840083130008A300A00A210884002308C4
:1015E0008000A10AA20BE72AB801B80A380803193B
:1015F0005D2B0A128A11F5270A128A15831203132A
:10160000A0002008B600B9013908A0002007243E38
:10161000840083130008A100840A0008A20039088E
:10162000303E840000082107840022080318220AA3
:10163000FF000A128A1100230A128A153606031DBA
:101640004F2B0130A0003908303E8400200883135E
:1016500080073908223E840083300318013EFF00D2
:101660000A128A1100230A128A15A0003908303E96
:101670008400831300082006031D542B39081C3EE8
:10168000840083300318013EFF000A128A110023F0
:101690000A128A15A0002008B700B801542B390897
:1016A000303E8400831380010130A0002008B90778
:1016B000063039020318F62A042B37080800831273
:1016C0000313A7000130A40065080739013E6A2B07
:1016D0000310A40DFF3E031D682B2408A50063081A
:1016E00084008317641C8313250880042708A40042
:1016F00004300310A40CFF3E031D792B24080F397E
:101700000A128A15B3240A128A15013083120313B0
:10171000A400650CA500A50C250C0739013E922BF1
:101720000310A40DFF3E031D902B2408A6006308A0
:1017300084008317641C83132608800441308312BD
:101740000313A400A40BA22BA52B013083120313B7
:10175000A400650CA500A50C250C0739013EB22B91
:101760000310A40DFF3E031DB02B2408FF3AA60072
:10177000630884008317641C8313260880052708E8
:101780000F390A128A15B3240A128A1501308312FE
:101790000313A400650CA500A50C250C0739013E18
:1017A000D32B0310A40DFF3E031DD12B2408A6004C
:1017B000630884008317641C831326088004413067
:1017C00083120313A400A40BE32BE62B0130831236
:1017D0000313A400650CA500A50C250C0739013ED8
:1017E000F32B0310A40DFF3E031DF12B2408FF3A39
:1017F000A600630884008317641C831326088005F1
:10180000080083120313AC000530A0008530A1004E
:101810000A168A11F3260A128A1583120313AE01DF
:10182000AF010A128A11F5270A128A1583120313CF
:10183000AA002A08AD00202C3A302D0203184D2CA6
:101840002F08A1002E08A0000A30A2000030A3003B
:101850000A168A1128250A128A15831203132D08E5
:101860002007AA000030031801302107AB002A0826
:10187000D03EAE002B080318013EFF3EAF000A1217
:101880008A11F5270A128A1583120313AA002A085F
:10189000AD0030302D0203181C2C29080319612CCF
:1018A0002530A0008530A1000A168A11F3260A12FD
:1018B0008A15831203132008AE022108031CAF030C
:1018C000AF0228082F02031D672C27082E020318D9
:1018D0006D2C2F08A8002E08A700B001B101280820
:1018E0003102031D752C2708300203188E2C0A12B2
:1018F0008A11F5270A128A1583120313AA003008E9
:101900002C07AB002B0884002A08831380000130C9
:10191000B0070318B10A0030B1076F2C30082C074C
:10192000AA002A088400831380012F083102031DB6
:101930009B2C2E0830020318AB2C0A128A11F527B3
:101940000A128A15013083120313B0070318B10A73
:101950000030B107952C4730A0008530A1000A1651
:101960008A11F326080083120313A300231CCD2C35
:101970000130A00066080739013EC02C0310A00DFD
:10198000FF3E031DBE2C2008A100630884008317BE
:10199000641C831321088004E22C0130A000660837
:1019A0000739013ED52C0310A00DFF3E031DD32C9B
:1019B0002008FF3AA100630884008317641C831386
:1019C00021088005A31CFC2C0130A000660CA1009E
:1019D000A10C210C0739013EEF2C0310A00DFF3E96
:1019E000031DED2C2008A200630884008317641CEB
:1019F000831322088004142D0130A000660CA1007E
:101A0000A10C210C0739013E072D0310A00DFF3E4C
:101A1000031D052D2008FF3AA200630884008317E8
:101A2000641C831322088005231D2B2D0130A00088
:101A300067080739013E1E2D0310A00DFF3E031D50
:101A40001C2D2008A100630884008317641C8313E5
:101A500021088004402D0130A00067080739013EAD
:101A6000332D0310A00DFF3E031D312D2008FF3A3A
:101A7000A100630884008317641C83132108800578
:101A8000A31D5A2D0130A000670CA100A10C210C50
:101A90000739013E4D2D0310A00DFF3E031D4B2DB8
:101AA0002008A200630884008317641C83132208A3
:101AB000800408000130A000670CA100A10C210CDB
:101AC0000739013E652D0310A00DFF3E031D632D58
:101AD0002008FF3AA200630884008317641C831364
:101AE00022088005080083120313A9000A168A1130
:101AF00008240A128A15D0300A168A1170240A1294
:101B00008A1500300A168A1170240A128A150A16DC
:101B10008A1116240A128A15D1300A168A117024E5
:101B20000A128A15013083120313A0000030A100AD
:101B30000A168A11B9250A128A150A168A11CA24A8
:101B40000A128A1583120313A800290884002808A2
:101B5000831380000130A0000030A1000A168A1112
:101B6000B9250A128A150A168A11CA240A128A1578
:101B700083120313A800290A840028088313800015
:101B80000130A0000030A1000A168A11B9250A12FE
:101B90008A150A168A11CA240A128A158312031397
:101BA000A8002908023E8400280883138000013021
:101BB000A0000030A1000A168A11B9250A128A1560
:101BC0000A168A11CA240A128A1583120313A8005E
:101BD0002908033E84002808831380000130A000F8
:101BE0000030A1000A168A11B9250A128A150A16B0
:101BF0008A11CA240A128A1583120313A80029081D
:101C0000043E84002808831380000130A0000030C7
:101C1000A1000A168A11B9250A128A150A168A1114
:101C2000CA240A128A1583120313A8002908053E44
:101C300084002808831380000030A000A1000A1649
:101C40008A11B9250A128A150A168A11CA240A129B
:101C50008A1583120313A8002908063E8400280869
:101C6000831380000A168A110F2408006330840051
:101C700083120313280883138000840A2908800034
:101C8000840A2A088000840A2B088000840A2C0811
:101C9000800000306406031D4F2E05306306031DCF
:101CA000552E831603138501872E00306406031D0D
:101CB0005B2E06306306031D612E83160313860117
:101CC000872E00306406031D672E07306306031D50
:101CD0006D2E831603138701872E00306406031DC3
:101CE000732E08306306031D792E831603138801B3
:101CF000872E00306406031D7F2E09306306031D06
:101D0000852E831603138901872E00300800823048
:101D100083120313AE00DD30AD00AD0B8D2EAE0B84
:101D20008D2E03300A128A15AD200A128A15213031
:101D300083120313AE007530AD00AD0B9D2EAE0BBC
:101D40009D2EA22E03300A128A15AD200A128A1582
:101D5000683083120313AE00E330AD00AD0BAE2E3E
:101D6000AE0BAE2EB32E03300A128A15AD200A1226
:101D70008A1502300A128A15AD200A128A1502301D
:101D80000A128A15AD200A128A1508300A128A151D
:101D9000AD200A128A1500300A128A15AD200A12E7
:101DA0008A1506300A128A15AD200A128A150830E3
:101DB00083120313AD002D08AF002F152F08AD00BF
:101DC00004300310AD0CFF3E031DE12E2D080F392A
:101DD0000A128A15AD200A128A15831203132F08DE
:101DE0000F390A128A15AD200A128A1500300A121C
:101DF0008A15AD200A128A1501300A128A15AD2003
:101E0000013008000A128A1150200A128A15831222
:101E10000313A001A00A00300A168A117C260A12B8
:101E20008A15831203132108EB002008EA00023010
:101E3000831203136B02B73003196A02031C312F9C
:101E40000030A400A5000030A600A7000A168A11E1
:101E500045260A128A150A128A15DA210A128A15EB
:101E6000172F8619202F0530A4000030A500003060
:101E7000A600A7000A168A1145260A128A15D7302D
:101E80000A128A1573250A128A15831203136B0826
:101E9000B3006A08B200D7300A128A11C4260A12A7
:101EA0008A1583160313590883120313DC00DD011E
:101EB0005C08A0005D08A1006430A2000030A3000F
:101EC0000A168A1128250A128A1583160313580840
:101ED000831203132007DF000030031801302107AD
:101EE000E000E101E2016D08803ADC006208803A1E
:101EF0005C02031D7D2F61086C02031CF62F063067
:101F000083120313DC005C08A00061080A168A1122
:101F10005D240A128A15A03E8400831300088312F0
:101F20000313DD00840A0008DE005E086002031D62
:101F30009B2F5D085F02031CD02F0630DC005C087D
:101F4000A00061080A168A115D240A128A15A23EB1
:101F500084008313000883120313DD00840A000841
:101F6000DE0060085E02031DB72F5F085D02031CE0
:101F7000D02F0630DC005C08A00061080A168A1128
:101F80005D240A128A15A43E84008313000883127C
:101F90000313A400840A0008A5000030A600E72F60
:101FA0000630DC005C08A00061080A168A115D2476
:101FB0000A128A15A43E84008313000883120313B7
:101FC000A400840A0008A5000130A6000030A70084
:101FD0000A168A1145260A128A1501308312031344
:101FE000E1070318E20A0030E207732F831203139C
:101FF0008618072F0A128A114D250A128A15072FF3
:10280C00C83400340A168A113424831603131114A5
:10281C0008000A168A1134248316031311150800B4
:10282C000A168A11342483160313911408000834F1
:10283C0000341A342C343E34B6340234831203136D
:10284C00A0000C1E272C20089900080064008001B1
:10285C00840A04060319003404062D2C8316031372
:10286C001419342C11081F3903190800342CFF30AB
:10287C008316031385004130831203139F00C0306D
:10288C00831603139F000B178B1708007E088A0012
:10289C007F0882004C240A168A118000840A0408DE
:1028AC007D0603190034FF0A0319FE0A502C83120B
:1028BC000313A300A201231C672C2008A1002108EC
:1028CC00A2070310A00D0310A30C2308031D612CF9
:1028DC002208080083120313A0000A168A1134245C
:1028EC000A168A118312031320089300831603130C
:1028FC00111B822C03100800031408002A308312C9
:10290C000313A1008530A2000A168A116F250A163E
:10291C008A110A128A15D4220A168A11013A03194D
:10292C00992C0310080003140800C33083120313FE
:10293C00A1008430A2000A168A116F250A168A118A
:10294C000A128A15D4220A168A11013A031D0800AC
:10295C000A128A15D422080083160313071387174B
:10296C000A3099001815181283120313981783163E
:10297C0003139816831203131816831603131813D4
:10298C00831203131813080083120313A7000F30CC
:10299C002705A4000A30A5002508A0002708A600DA
:1029AC0004300310A60CFF3E031DD72C26080A1674
:1029BC008A115D2483120313240708008312031366
:1029CC000C1FFD2C7408F0007007BE3E84008316AB
:1029DC0003131E0883138000840A831203131E083A
:1029EC0080000130F4070318F50A0030F50773086E
:1029FC008A0072088400710E8300FE0E7E0E0900A0
:102A0C0083120313AB00A901AA0129082B07A80004
:102A1C0028088400831300080319080029082B07D1
:102A2C00A8002808840000080A128A155F230A16D9
:102A3C008A11013083120313A9070318AA0A003064
:102A4C00AA070B2D83120313A401A501201C342DFE
:102A5C002208A4070318A50A2308A50701300310B0
:102A6C00A20DA30DFF3E031D352D01300310A10C4B
:102A7C00A00CFF3E031D3C2D20082104031D2C2D12
:102A8C002508A1002408A000080083120313BA0033
:102A9C00AE30A1008430A2000A168A116F250A16E6
:102AAC008A11831203133A08303E0A168A11242421
:102ABC000A168A11273083120313A1008530A20055
:102ACC000A168A116F250A168A110A128A15D4223F
:102ADC000800831203132208FF00210884000A1245
:102AEC008A1100230A168A11003A031908002208D9
:102AFC00FF00210884000A128A1100230A168A1189
:102B0C000A168A1124240A168A110130831203131F
:102B1C00A1070318A20A0030A2076F2D02300A1673
:102B2C008A114B250A168A115B3083120313A100FC
:102B3C008330A2000A168A116F250A168A110A120E
:102B4C008A15D4220A168A11013A031DAF2D0130C1
:102B5C00B02D003083120313BD00BE013D08BB0035
:102B6C003E08BC0008000A168A1134240A168A1181
:102B7C008316031391150A168A1134240A168A1126
:102B8C00831203131308A2002208A3000A168A1149
:102B9C0034240A168A118312031320082104031DFE
:102BAC00DB2D831603139116DE2D8316031391125E
:102BBC001116831203132308080000308312031329
:102BCC00BE000030BD000030BC006430BB000A12F7
:102BDC008A1500200A168A110A168A1108240A1668
:102BEC008A11D1300A168A1170240A168A110A1613
:102BFC008A110F24031083160313111F03140030C2
:102C0C000318013083120313C500C6014508C30025
:102C1C004608C4000800831203132008210403197A
:102C2C00402EA501A50AA11B272E01300310A00DD3
:102C3C00A10DFF3E031D1C2E0130A4002408A50786
:102C4C00192E21082302031D2D2E20082202031CFD
:102C5C00352E2008A2022108031CA303A302013075
:102C6C000310A10CA00CFF3E031D362E0130A50253
:102C7C00031D272E2308A1002208A0000800632EA4
:102C8C000F3086000800260C031C061203180616CB
:102C9C000800260C031C8612031886160800260C46
:102CAC00031C0613031806170800260C031C8613B6
:102CBC0003188617080086010800831203132508E1
:102CCC00003A03196A2E612E2408003A0319462E85
:102CDC00013A0319492E033A03194F2E013A0319ED
:102CEC00552E073A03195B2E612E0800831203132D
:102CFC00A400C530A20022089F052408A2000230BF
:102D0C000310A20DFF3E031D862E0310220DA300FF
:102D1C0023089F040D3083120313A300FB30A20081
:102D2C00A20B962EA30B962E8312031320080319C5
:102D3C00AB2E1F151F19A02E1E08A10083160313FE
:102D4C001E0883120313A0000800831603130C172C
:102D5C00831203130C131F15A001A1010800831289
:102D6C000313AB01AC01260827040319EE2EAD01A9
:102D7C00AD0AA71BCD2E01300310A60DA70DFF3EEB
:102D8C00031DC22E0130AA002A08AD07BF2E013048
:102D9C000310AB0DAC0DFF3E031DCE2E27082902F0
:102DAC00031DDA2E26082802031CE32E2608A8028F
:102DBC002708031CA903A9022B1401300310A70C2C
:102DCC00A60CFF3E031DE42E0130AD02031DCD2EDB
:102DDC002C08A7002B08A600080083120313A601D9
:102DEC00A401A5010A128A11F5270A168A11831269
:102DFC000313A2002208A3000130A4070318A50A9C
:102E0C000030A50726082007840021080318210A92
:102E1C00FF000A128A1100230A168A112306031DC9
:102E2C001C2F0130A2002208A6071D2FA601260880
:102E3C002007840021080318210AFF000A128A11B6
:102E4C0000230A168A11003A031DF82E2508A1004A
:102E5C002408A000080083120313AD01AE012D0855
:102E6C002807AB002908AA000318AA0AAD1BAA035D
:102E7C00831203132A08AC002C08FF002B088400D3
:102E8C000A128A1100230A168A11003A0319080043
:102E9C002D082807AB002908AA000318AA0AAD1BA5
:102EAC00AA03831203132A08AC002C08FF002B087A
:102EBC0084000A128A1100230A168A110A128A1532
:102ECC005F230A168A11013083120313AD0703180E
:102EDC00AE0A0030AE07352F003083120313AC005E
:102EEC000030AB000030AA000030A900201C922F4B
:102EFC002408A907250803110318013E031DAA077E
:102F0C00260803110318013E031DAB072708031104
:102F1C000318013E031DAC070130A8000310A40DDB
:102F2C00A50DA60DA70DA80B942F01300310A30C13
:102F3C00A20CA10CA00CFF3E031D9C2F2308220405
:102F4C0021042004031D7C2F2C08A3002B08A200B5
:102F5C002A08A1002908A000080083120313A60167
:102F6C00A31FBF2FA209A309A20A0319A30AA60132
:102F7C00A60AA11FC62FA009A109A00A0319A10A1C
:102F8C00200821040319F32FA501A50AA11BDA2F90
:102F9C0001300310A00DA10DFF3E031DCF2F0130FA
:102FAC00A4002408A507CC2F21082302031DE02F21
:102FBC0020082202031CE82F2008A2022108031C6F
:102FCC00A303A30201300310A10CA00CFF3E031DB0
:102FDC00E92F0130A502031DDA2F26080319FB2F58
:102FEC00A209A309A20A0319A30A2308A100220813
:042FFC00A000080029
:02400E007A3FF7
:00000001FF
