:020000040000FA
:060000000A128A110E280D
:10000800FE00030EF1000408F2000A08F3000A16C5
:100018008A11DE2D0A128A1111288313DE30FD00A1
:100028001530FE006230FF00D23084000A128A11B7
:10003800F2220A128A116A30FD001530FE003830AB
:10004800FF00633084000A128A11F2220A128A1110
:100058000A128A1502200A128A11F6000A128A1553
:1000680003200A128A11F700831790308400B630F3
:100078000A168A1147250A128A118313A0308400B0
:10008800D2300A168A1147250A128A115330840081
:1000980063300A168A11472583010A128A11542EE1
:1000A80083120313CA01CB01283084006308831329
:1000B8008000840A64088000840A65088000840A35
:1000C80066088000840A670880000A128A154C2690
:1000D8000A128A11003A0319CA2800300A128A152E
:1000E800B9210A128A1101300A128A15B9210A1295
:1000F8008A1108300A128A15B9210A128A110130A8
:100108000A128A15B9210A128A115F308312031361
:10011800A8008430A9000A128A153D200A128A1103
:100128001A3083120313C9005E30C8006D30C7004F
:10013800C70B9C28C80B9C28C90B9C28A3280C30EB
:100148000A128A15B9210A128A1101300A128A156F
:10015800B9210A128A11353083120313A800853099
:10016800A9000A128A153D200A128A111A30831230
:100178000313C9005E30C8006D30C700C70BC22822
:10018800C80BC228C90BC228C928D228013083123B
:100198000313CA070318CB0A0030CB071A3083129F
:1001A8000313C9005E30C8006D30C700C70BDA28DA
:1001B800C80BDA28C90BDA28E12800300A128A1598
:1001C800B9210A128A1101300A128A15B9210A12B4
:1001D8008A1108300A128A15B9210A128A110130C7
:1001E8000A128A15B9210A128A115230831203138E
:1001F800A8008430A9000A128A153D200A128A1123
:100208001A3083120313C9005E30C8006D30C7006E
:10021800C70B0C29C80B0C29C90B0C2913290C3046
:100228000A128A15B9210A128A1101300A128A158E
:10023800B9210A128A110A168A11BB260A128A11D2
:100248008312031343034404031D34293530A800E3
:100258008530A9000A128A153D200A128A114529FB
:10026800EC30A8008430A9000A128A153D200A1231
:100278008A11013083120313CA070318CB0A00300E
:10028800CB071A3083120313C9005E30C8006D30E3
:10029800C700C70B4D29C80B4D29C90B4D29542937
:1002A80000300A128A15B9210A128A1101300A127D
:1002B8008A15B9210A128A1108300A128A15B92139
:1002C8000A128A1101300A128A15B9210A128A11F2
:1002D800453083120313A8008430A9000A128A1536
:1002E8003D200A128A110A128A11F0270A128A116D
:1002F800C53083120313C70047089F050D308312CA
:100308000313C800FB30C700C70B8829C80B88290E
:10031800831203131F151F198F291A308312031311
:10032800C9005E30C8006D30C700C70B9929C80BDB
:100338009929C90B9929A0290C300A128A15B921C3
:100348000A128A1101300A128A15B9210A128A1171
:10035800831603131E08831203131E04031DC629E4
:10036800EC30A8008430A9000A128A153D200A1230
:100378008A11013083120313CA070318CB0A00300D
:10038800CB07CF293530A8008530A9000A128A1575
:100398003D200A128A111A3083120313C9005E30F5
:1003A800C8006D30C700C70BD729C80BD729C90BA0
:1003B800D729DE2900300A128A15B9210A128A11B2
:1003C80001300A128A15B9210A128A1108300A1254
:1003D8008A15B9210A128A1101300A128A15B9211F
:1003E8000A128A11C03083120313A8008330A900AF
:1003F8000A128A153D200A128A110F308316031338
:1004080086001A3083120313C9005E30C8006D30AD
:10041800C700C70B0D2AC80B0D2AC90B0D2A142AB1
:100428000C300A128A15B9210A128A1101300A12EF
:100438008A15B9210A128A111C3083120313A800E5
:100448008430A9000A128A153D200A128A111A302E
:1004580083120313C9005E30C8006D30C700C70B94
:10046800332AC80B332AC90B332A3A2A00300A1216
:100478008A15B9210A128A1101300A128A15B9217E
:100488000A128A1108300A128A15B9210A128A1129
:1004980001300A128A15B9210A128A110E30831204
:1004A8000313A8008430A9000A128A153D200A12F5
:1004B8008A111A3083120313C9005E30C8006D30E8
:1004C800C700C70B652AC80B652AC90B652A6C2AA1
:1004D8000C300A128A15B9210A128A1101300A123F
:1004E8008A15B9210A128A110A168A11AC250A122C
:1004F8008A110A168A1195250A128A11031C902A54
:10050800353083120313A8008530A9000A128A1512
:100518003D200A128A11A32A1D3083120313A80052
:100528008530A9000A128A153D200A128A11013065
:1005380083120313CA070318CB0A0030CB071A30FB
:1005480083120313C9005E30C8006D30C700C70BA3
:10055800AB2AC80BAB2AC90BAB2AB22A00300A1245
:100568008A15B9210A128A1101300A128A15B9218D
:100578000A128A110C300A128A15B9210A128A1134
:1005880000300A128A15B9210A128A1138308312EA
:100598000313A8008430A9000A128A153D200A1204
:1005A8008A11831203134A08303E0A128A114E2711
:1005B8000A128A111A3083120313C9005E30C80068
:1005C8006D30C700C70BE62AC80BE62AC90BE62A16
:1005D800ED2A08007E088A007F088200EE220A12AF
:1005E8008A118000840A04087D0603190034FF0A72
:0605F8000319FE0AF22ABD
:10060000FF1B0A2B83137F1883170008840A031922
:10061000FF0A08007F087F398A000408840A03194A
:10062000FF0A8200013400340A3400346434003498
:10063000E8340334103427340134023403340434EE
:1006400005340634023405340434093406340634DF
:10065000413454342B3443345734443448344334D1
:10066000503453345F344434453446343D343134AB
:100670002C3435342C3422343134393432342E3461
:100680003134363438342E3434342E343134223448
:100690002C3422343134393432342E34313436343B
:1006A00038342E3434342E343134303422340D3452
:1006B0000A340034413454342B34433457345334E3
:1006C000413450345F344434453446343D3422346C
:1006D000733461346634653467347534613472342C
:1006E000643422342C3422347334613466346534F7
:1006F0006734753461347234643422342C343534C4
:100700002C3433340D340A340034413454342B3413
:1007100043344934503453344534523456344534D8
:1007200052343D3431342C343334333433340D3497
:100730000A340034413454342B3443345734443471
:100740004834433450345F344434453446343D34C3
:1007500030342C3431340D340A340034533474348E
:1007600061347234743469346E34673420345334F1
:1007700065347234763469346334653473340034E8
:100780005334743461347234743469346E3467347D
:100790002034523445344C344134593453340034C9
:1007A00050345734523420343A3420347334613462
:1007B00066346534673475346134723464340034BB
:1007C00053345334493444343A3420347334613428
:1007D000663465346734753461347234643400349B
:1007E00056344F344C345434413447344534203437
:1007F0007734613472346E3469346E346734003463
:10080000413454342B344334493450344D3455340A
:1008100058343D3431340D340A3400345334743494
:1008200061347234743469346E346734203457342C
:1008300049344634493400345434613473346B34AD
:10084000203443346F346D3470346C346534743414
:1008500065340034413454342B34433449345034F7
:10086000533454344134523454343D3422340034FB
:100870004534523452344F345234203446344F3499
:1008800055344E3444343D3400345334743461347C
:100890007234743469346E346734203441344434EF
:1008A00043340034533474346134723474346934EE
:1008B0006E34673420345234543443340034533467
:1008C000743461347234743469346E34673420346F
:1008D0004C34433444340034413454342B344334A2
:1008E00049345034533445344E3444343D34003468
:1008F000413454342B34433457345134413450341C
:100900000D340A340034413454342B3443344934E4
:100910004634533452340D340A34003441345434A0
:100920002B34433457344A34413450343D34223428
:100930000034413454342B34433457344D344F3421
:10094000443445343D3400346E346F3420346334E1
:10095000683461346E34673465340034413454345F
:100960002B345234533454340D340A340034563456
:100970006F346C3474346134673465340034543407
:1009800065347334743469346E34673400346E34CF
:1009900061346D3465346C3465346E3400347034D5
:1009A0006134733473346C3465346E3400346334BE
:1009B000743473345F346E346F3400344C346934BF
:1009C0006E346B3465346434003455346E346C34B6
:1009D00069346E346B3400344534523452344F34FD
:1009E000523400344534723472346F34723400340B
:1009F0002B344934503444342C340034723465344C
:100A000061346434793400346E3461346D34653467
:100A100000347034613473347334003464346134BA
:100A20007934733400340D340A340D340A3400340C
:100A3000413454340D340A3400344634413449349A
:100A40004C34003422342C342234003441345434B5
:100A50004534003454344334503400345534443431
:100A60005034003422342C3400344F344B340034AE
:100A700025347534003483120313C1000A30A000FA
:100A80000030A1004108840083130008B400B501C0
:100A90003408A2003508A3000A128A15BF200A12E2
:100AA0008A11831203132008303EB6003608BB00BB
:100AB0000A30A0000030A100410884008313000820
:100AC000B400B5013408A2003508A3000A128A1543
:100AD0005E210A128A11831203132008303EB600E9
:100AE0003608BC000A30A0000030A100410A840092
:100AF00083130008B400B5013408A2003508A30030
:100B00000A128A15BF200A128A11831203132008C1
:100B1000303EB6003608BD000A30A0000030A1000B
:100B2000410A840083130008B400B5013408A20010
:100B30003508A3000A128A155E210A128A1183124F
:100B400003132008303EB6003608BE000A30A0006D
:100B50000030A1004108023E840083130008B40065
:100B6000B5013408A2003508A3000A128A15BF2077
:100B70000A128A11831203132008303EB600360889
:100B8000BF000A30A0000030A1004108023E8400EE
:100B900083130008B400B5013408A2003508A3008F
:100BA0000A128A155E210A128A1183120313200881
:100BB000303EB6003608C00008300A128A15B92146
:100BC0000A128A1100300A128A15B9210A128A11F2
:100BD0008312031340080A128A114E270A128A113F
:100BE000831203133F080A128A114E270A128A1130
:100BF0003A300A128A114E270A128A1183120313FD
:100C00003E080A128A114E270A128A118312031310
:100C10003D080A128A114E270A128A113A300A1226
:100C20008A114E270A128A11831203133C080A12F2
:100C30008A114E270A128A11831203133B080A12E3
:100C40008A114E270A128A11831203133308AF0048
:100C50003208AE003730B4003408B0000A128A15EA
:100C60007A230A128A110C300A128A15B9210A1243
:100C70008A1100300A128A15B9210A128A11B73076
:100C800083120313A8008430A9000A128A153D209C
:100C90000A128A11373083120313A8000030A9000A
:100CA0000A168A11E92608000A128A1154200A122B
:100CB0008A1183120313A001A00A00300A128A15B8
:100CC00004200A128A11831203132108D900200874
:100CD000D8000230831203135902B73003195802A7
:100CE000031C832E0030A400A5000030A600A7003E
:100CF0000A168A114D270A128A110A128A157622BB
:100D00000A128A11692E8619722E0530A40000304D
:100D1000A5000030A600A7000A168A114D270A1266
:100D20008A115C300A128A1589250A128A118312E7
:100D300003135908B3005808B2005C300A128A1134
:100D40003B250A128A11831203135E08CC00CD01E1
:100D50004C08A0004D08A1006430A2000030A300A0
:100D60000A168A1100260A128A11831203135D08DB
:100D70002007CF000030031801302107D000D10137
:100D8000D2015B08803ACC005208803A4C02031D25
:100D9000CB2E51085A02031C442F06308312031332
:100DA000CC004C08A00051080A168A116E250A12C0
:100DB0008A11A03E84008313000883120313CD0020
:100DC000840A0008CE004E085002031DE92E4D088B
:100DD0004F02031C1E2F0630CC004C08A000510807
:100DE0000A168A116E250A128A11A23E8400831304
:100DF000000883120313CD00840A0008CE005008B7
:100E00004E02031D052F4F084D02031C1E2F0630F6
:100E1000CC004C08A00051080A168A116E250A124F
:100E20008A11A43E84008313000883120313A400D4
:100E3000840A0008A5000030A600352F0630CC003B
:100E40004C08A00051080A168A116E250A128A1150
:100E5000A43E84008313000883120313A400840AB1
:100E60000008A5000130A6000030A7000A168A116C
:100E70004D270A128A11013083120313D107031878
:100E8000D20A0030D207C12E831203138618592EBE
:100E90000A128A1518270A128A11592E831203136F
:100EA000A7000130A40065080739013E592F03103F
:100EB000A40DFF3E031D572F2408A50063088400DE
:100EC0008317641C8313250880042708A4000430BA
:100ED0000310A40CFF3E031D682F24080F390A12CB
:100EE0008A15C9240A128A11013083120313A4003F
:100EF000650CA500A50C250C0739013E812F0310B8
:100F0000A40DFF3E031D7F2F2408A6006308840064
:100F10008317641C83132608800441308312031353
:100F2000A400A40B912F942F013083120313A4006B
:100F3000650CA500A50C250C0739013EA12F031057
:100F4000A40DFF3E031D9F2F2408FF3AA60063084F
:100F500084008317641C83132608800527080F3933
:100F60000A128A15C9240A128A1101308312031346
:100F7000A400650CA500A50C250C0739013EC22F65
:100F80000310A40DFF3E031DC02F2408A600630814
:100F900084008317641C8313260880044130831265
:100FA0000313A400A40BD22FD52F013083120313F7
:100FB000A400650CA500A50C250C0739013EE22F05
:100FC0000310A40DFF3E031DE02F2408FF3AA600E6
:100FD000630884008317641C8313260880050800B7
:100FE000FF308316031385004130831203139F00E3
:0E0FF000C030831603139F000B178B170800E9
:10100400C834003483120313A400C530A20022089C
:101014009F052408A20002300310A20DFF3E031D09
:101024000E280310220DA30023089F040D30831201
:101034000313A300FB30A200A20B1E28A30B1E283F
:10104400831203132008031933281F151F19282896
:101054001E08A100831603131E0883120313A000A5
:101064000800831603130C17831203130C131F15A4
:10107400A001A101080083120313AD01AE012D08E4
:101084002807AB002908AA000318AA0AAD1BAA0363
:10109400831203132A08AC002C08FF002B088400D9
:1010A4000A128A1100230A128A15003A0319080049
:1010B4002D082807AB002908AA000318AA0AAD1BAB
:1010C400AA03831203132A08AC002C08FF002B0880
:1010D40084000A128A1100230A128A150A128A113C
:1010E4004E270A128A15013083120313AD07031821
:1010F400AE0A0030AE074128003083120313AC005F
:101104000030AB000030AA000030A900201C9E284B
:101114002408A907250803110318013E031DAA0783
:10112400260803110318013E031DAB07270803110A
:101134000318013E031DAC070130A8000310A40DE1
:10114400A50DA60DA70DA80BA02801300310A30C14
:10115400A20CA10CA00CFF3E031DA8282308220406
:1011640021042004031D88282C08A3002B08A200B6
:101174002A08A1002908A000080083120313A6016D
:10118400A31FCB28A209A309A20A0319A30AA60133
:10119400A60AA11FD228A009A109A00A0319A10A1D
:1011A400200821040319FF28A501A50AA11BE6288C
:1011B40001300310A00DA10DFF3E031DDB280130FB
:1011C400A4002408A507D82821082302031DEC281D
:1011D40020082202031CF4282008A2022108031C70
:1011E400A303A30201300310A10CA00CFF3E031DB6
:1011F400F5280130A502031DE6282608031907294E
:10120400A209A309A20A0319A30A2308A100220818
:10121400A0000800831603138715071628308312CD
:1012240003139400831603139101831203133B08E1
:10123400BF003C08C0003D08C1003E08C2000230A7
:101244000310BF0DC00DC10DC20DFF3E031D2229A9
:101254004208A3004108A2004008A1003F08A000E2
:101264000030A7000030A6000330A500E830A40039
:101274000A128A157E200A128A1583120313230880
:10128400B0002208AF002108AE002008AD000130F4
:10129400B4003130B3002D30B2000030B1000A1276
:1012A4008A151622831203132D08FF3E8316031397
:1012B400930080309400080083120313A601A11F39
:1012C4006A29A009A109A00A0319A10AA601A60A6C
:1012D400A31F7529A209A309A20A0319A30A0130AD
:1012E400A4002408A606A701A801200821040319C4
:1012F400AC29A501A50AA11B8B2901300310A00D5F
:10130400A10DFF3E031D80290130A4002408A50778
:101314007D2901300310A70DA80DFF3E031D8C2964
:1013240021082302031D982920082202031CA12955
:101334002008A2022108031CA303A30227140130DE
:101344000310A10CA00CFF3E031DA2290130A5022D
:10135400031D8B2926080319B429A709A809A70A7C
:101364000319A80A2808A1002708A000080083126E
:101374000313A7000130A40065080739013EC429FE
:101384000310A40DFF3E031DC2292408FF3AA50043
:10139400630884008317641C8313250880052708C9
:1013A4000A128A15C9240A128A15013083120313FA
:1013B400A400650CA500A50C250C0739013EE42901
:1013C4000310A40DFF3E031DE2292408A6006308B0
:1013D40084008317641C8313260880041A30831244
:1013E4000313A500F730A400A40BF629A50BF629D6
:1013F400FB29013083120313A400650CA500A50C7E
:10140400250C0739013E082A0310A40DFF3E031DD5
:10141400062A2408FF3AA600630884008317641C84
:101424008313260880050800003083120313B900D3
:101434000030B8000030B7000030B60030082F0488
:101444002E042D0403196D2ABA01BA0AB01B382AD6
:101454000130B5000310AD0DAE0DAF0DB00DB50BE1
:101464002C2A0130B5003508BA07282A0130B50006
:101474000310B60DB70DB80DB90DB50B3A2A3008E7
:101484003402031D4F2A2F083302031D4F2A2E084E
:101494003202031D4F2A2D083102031C602A2D0835
:1014A400B1022E08031C2E0FB2022F08031C2F0FAB
:1014B400B3023008031C300FB40236140130031099
:1014C400B00CAF0CAE0CAD0CFF3E031D612A013015
:1014D400BA02031D382A3908B0003808AF003708AB
:1014E400AE003608AD00080000300A128A15B92192
:1014F4000A128A1501300A128A15B9210A128A15AC
:101504000C300A128A15B9210A128A1500300A12FF
:101514008A15B9210A128A15F03083120313A80020
:101524008330A9000A128A153D200A128A156430F4
:1015340083120313B2000030B3000D30831203137F
:10154400B100AF30B000B530AF00AF0BA72AB00B7D
:10155400A72AB10BA72AAE2A83120313061D08007B
:10156400FF30B2070318B30AFF30B307320833045D
:10157400031D9F2A00300A128A15B9210A128A15FE
:1015840001300A128A15B9210A128A150C300A127E
:101594008A15B9210A128A1500300A128A15B9214E
:1015A4000A128A15BF3083120313A8008430A900DD
:1015B4000A128A153D200A128A150D30831203136C
:1015C400B100AF30B000B530AF00AF0BE72AB00BBD
:1015D400E72AB10BE72AEE2A0800303084000630EF
:1015E400FF0083138001840AFF0BF32A2430840054
:1015F400D23083120313A0000408A1000C30A2000F
:101604002008840083130008A300A00A2108840092
:1016140023088000A10AA20B022BB801B80A3808DB
:101624000319782B0A168A1158250A128A1583126F
:101634000313A0002008B600B9013908A000200750
:10164400243E840083130008A100840A0008A20039
:101654003908303E8400000821078400220803185A
:10166400220AFF000A128A1100230A128A1536067A
:10167400031D6A2B0130A0003908303E8400200885
:10168400831380073908223E840083300318013E07
:10169400FF000A128A1100230A128A15A0003908D1
:1016A400303E8400831300082006031D6F2B390885
:1016B4001C3E840083300318013EFF000A128A1185
:1016C40000230A128A15A0002008B700B8016F2B66
:1016D4003908303E8400831380010130A0002008C3
:1016E400B907063039020318112B1F2B37080800DD
:1016F400E83083120313A6000330A7002F08A300C9
:101704002E08A2001030A0002730A1000A168A116A
:1017140019270A128A15831203132108A900200825
:10172400A8000A168A1184270A128A158312031341
:101734002608303EB100300884003108831380004D
:101744006430A6000030A7002F08A3002E08A200D2
:10175400E830A0000330A1000A168A1119270A12E2
:101764008A15831203132108A9002008A8000A1669
:101774008A1184270A128A15831203132608303E1D
:10178400B100300A84003108831380000A30A600B7
:101794000030A7002F08A3002E08A2006430A00088
:1017A4000030A1000A168A1119270A128A15831219
:1017B40003132108A9002008A8000A168A11842707
:1017C4000A128A15831203132608303EB10030082A
:1017D400023E84003108831380000A30A0000030E8
:1017E400A1002F08A3002E08A2000A168A111927A7
:1017F400831203132008303EB1003008033E8400F6
:101804003108831380003008043E840080010800FE
:10181400F83083120313A0008430A1000A168A1141
:10182400C2270A128A1583120313B001B1010A16E2
:101834008A1158250A128A1583120313AC002C0846
:10184400AF00282C3A302F020318552C3108A10080
:101854003008A0000A30A2000030A3000A168A1142
:1018640000260A128A15831203132F082007AC00DE
:101874000030031801302107AD002C08D03EB00021
:101884002D080318013EFF3EB1000A168A1158259F
:101894000A128A1583120313AC002C08AF003030EF
:1018A4002F020318242C2B080319692C1330A000D1
:1018B4008530A1000A168A11C2270A128A158312DA
:1018C40003132008B0022108031CB103B1022A0843
:1018D4003102031D6F2C290830020318752C3108BE
:1018E400AA003008A900B201B3012A083302031D7B
:1018F4007D2C2908320203189D2C0A168A115825BA
:101904000A128A1583120313AC0032082707AD00AC
:1019140033080318330A2807AE002D088400831700
:101924002E1C83132C0880000130B2070318B30A5D
:101934000030B307772C32082707AC0033080318AC
:10194400330A2807AD002C08840083172D1C831349
:10195400800131083302031DB12C30083202031810
:10196400C12C0A168A1158250A128A1501308312CD
:101974000313B2070318B30A0030B307AB2C353096
:10198400A0008530A1000A168A11C227080083121C
:101994000313A300231CE32C0130A00066080739BD
:1019A400013ED62C0310A00DFF3E031DD42C2008AD
:1019B400A100630884008317641C83132108800436
:1019C400F82C0130A00066080739013EEB2C031007
:1019D400A00DFF3E031DE92C2008FF3AA100630877
:1019E40084008317641C831321088005A31C122D13
:1019F4000130A000660CA100A10C210C0739013EA6
:101A0400052D0310A00DFF3E031D032D2008A20089
:101A1400630884008317641C8313220880042A2D1E
:101A24000130A000660CA100A10C210C0739013E75
:101A34001D2D0310A00DFF3E031D1B2D2008FF3A92
:101A4400A200630884008317641C831322088005A2
:101A5400231D412D0130A00067080739013E342DB4
:101A64000310A00DFF3E031D322D2008A1006308C2
:101A740084008317641C831321088004562D0130CD
:101A8400A00067080739013E492D0310A00DFF3E51
:101A9400031D472D2008FF3AA10063088400831723
:101AA400641C831321088005A31D702D0130A00040
:101AB400670CA100A10C210C0739013E632D031012
:101AC400A00DFF3E031D612D2008A20063088400C1
:101AD4008317641C83132208800408000130A000CB
:101AE400670CA100A10C210C0739013E7B2D0310CA
:101AF400A00DFF3E031D792D2008FF3AA2006308C4
:101B040084008317641C8313220880050800831251
:101B14000313A9000A168A1123250A128A15D03044
:101B24000A168A1181250A128A1500300A168A11AA
:101B340081250A128A150A168A1131250A128A1574
:101B4400D1300A168A1181250A128A1501308312AE
:101B54000313A0000030A1000A168A1191260A126C
:101B64008A150A168A11C4250A128A1583120313C8
:101B7400A800290884002808831380000130A000ED
:101B84000030A1000A168A1191260A128A150A1633
:101B94008A11C4250A128A1583120313A800290A7C
:101BA40084002808831380000130A0000030A100C5
:101BB4000A168A1191260A128A150A168A11C42550
:101BC4000A128A1583120313A8002908023E84000E
:101BD4002808831380000130A0000030A1000A16F9
:101BE4008A1191260A128A150A168A11C4250A1224
:101BF4008A1583120313A8002908033E84002808C9
:101C0400831380000130A0000030A1000A168A115D
:101C140091260A128A150A168A11C4250A128A15EF
:101C240083120313A8002908043E840028088313A0
:101C340080000130A0000030A1000A168A1191260C
:101C44000A128A150A168A11C4250A128A158312E1
:101C54000313A8002908053E840028088313800084
:101C64000030A000A1000A168A1191260A128A15D2
:101C74000A168A11C4250A128A1583120313A800AE
:101C84002908063E84002808831380000A168A1156
:101C94002A25080063308400831203132808831361
:101CA4008000840A29088000840A2A088000840AA3
:101CB4002B088000840A2C08800000306406031D71
:101CC400652E05306306031D6B2E831603138501F1
:101CD4009D2E00306406031D712E06306306031D1D
:101CE400772E8316031386019D2E00306406031D90
:101CF4007D2E07306306031D832E8316031387018D
:101D04009D2E00306406031D892E08306306031DD2
:101D14008F2E8316031388019D2E00306406031D45
:101D2400952E09306306031D9B2E83160313890128
:101D34009D2E00300800823083120313AE00DD3084
:101D4400AD00AD0BA32EAE0BA32E03300A128A15E1
:101D5400B9210A128A15213083120313AE0075309B
:101D6400AD00AD0BB32EAE0BB32EB82E03300A125A
:101D74008A15B9210A128A15683083120313AE003A
:101D8400E330AD00AD0BC42EAE0BC42EC92E033010
:101D94000A128A15B9210A128A1502300A128A1502
:101DA400B9210A128A1502300A128A15B9210A12B7
:101DB4008A1508300A128A15B9210A128A150030C8
:101DC4000A128A15B9210A128A1506300A128A15CE
:101DD400B9210A128A15083083120313AD002D08A5
:101DE400AF002F152F08AD0004300310AD0CFF3EDB
:101DF400031DF72E2D080F390A128A15B9210A126C
:101E04008A15831203132F080F390A128A15B92170
:101E14000A128A1500300A128A15B9210A128A1583
:101E240001300A128A15B9210130080008300A125B
:101E34008A15B9210A128A1500300A128A15B921A5
:101E44000A128A15E03083120313A8008330A90014
:101E54000A128A153D200A128A150C300A128A15B4
:101E6400B9210A128A1500300A128A15B9210A12F8
:101E74008A15D03083120313A8008330A9000A12F4
:101E84008A153D200A128A150D3083120313C100EE
:101E9400AF30C000B530BF00BF0B4E2FC00B4E2F6C
:101EA400C10B4E2F552F00300A128A15B9210A1280
:101EB4008A1501300A128A15B9210A128A150830C6
:101EC4000A128A15B9210A128A1500300A128A15D3
:101ED400B9210A128A150A168A116C260A128A1561
:101EE400831203133B033C04031D7A2F6F307B2FB3
:101EF40065300A128A114E270A128A159A30831203
:101F04000313A1008330A2000A168A1147260A127D
:101F14008A15283083120313A1008330A2000A1605
:101F24008A1147260A128A150A128A15EF220A1202
:101F34008A15013A031DA02F6F30A12F65300A12B4
:101F44008A114E270A128A15003083120313A10046
:101F54008430A2000A168A1147260A128A1585308F
:101F640083120313A1008330A2000A168A114726A4
:101F74000A128A150A128A15EF220A128A15013AE0
:101F8400031DC62F6F30C72F65300A128A114E27E2
:101F94000A128A150C300A128A15B9210A128A15F6
:101FA40001300A128A15B9210A128A1568300A12F8
:101FB4008A114E270A128A15831203134408BF009C
:101FC400C0013F08A7004008A8000130A900003064
:101FD400AA00AB010A128A150A240A128A1583126E
:101FE40003134408BF00C0013F08A8004008A9002B
:0C1FF4000A168A11E9260A128A15D82F55
:102A46000A168A114F2583160313111408000A1655
:102A56008A114F2583160313111508000A168A11C9
:102A66004F258316031391140800083400341A34D2
:102A76002C343E34B634023483120313A0000C1EE9
:102A8600422D20089900080064008001840A04068B
:102A9600031900340406482D8316031314194F2D09
:102AA60011081F39031908004F2D83120313981CB0
:102AB6005E2D181218168C1E5E2D1A080800353465
:102AC6008534FE3484341D348534A4348434DE34B1
:102AD6008434E534843483120313A300A201231C37
:102AE600782D2008A1002108A2070310A00D0310CD
:102AF600A30C2308031D722D22080800831203135A
:102B0600A0000A168A114F250A168A11831203138A
:102B16002008930083160313111B932D031008003E
:102B260003140800183083120313A1008530A20095
:102B36000A168A1147260A168A110A128A15EF22E0
:102B46000A168A11013A0319AA2D03100800031464
:102B5600080083160313071387170A309900181500
:102B660018128312031398178316031398168312E9
:102B7600031318168316031318138312031318135B
:102B8600080083120313A7000F302705A4000A309C
:102B9600A5002508A0002708A60004300310A60CEF
:102BA600FF3E031DD12D26080A168A116E258312B3
:102BB600031324070800831203130C1FF72D740850
:102BC600F0007007BE3E8400831603131E088313AD
:102BD6008000840A831203131E0880000130F40764
:102BE6000318F50A0030F50773088A007208840096
:102BF600710E8300FE0E7E0E090083120313A401DC
:102C0600A501201C0C2E2208A4070318A50A2308D8
:102C1600A50701300310A20DA30DFF3E031D0D2EC7
:102C260001300310A10CA00CFF3E031D142E20083A
:102C36002104031D042E2508A1002408A000080075
:102C460083120313BA009930A1008430A2000A1639
:102C56008A1147260A168A11831203133A08303E50
:102C66000A168A113F250A168A1115308312031394
:102C7600A1008530A2000A168A1147260A168A1173
:102C86000A128A15EF220800831203132208FF0096
:102C9600210884000A128A1100230A168A11003AB2
:102CA600031908002208FF00210884000A128A116D
:102CB60000230A168A110A168A113F250A168A1156
:102CC600013083120313A1070318A20A0030A207DA
:102CD600472E02300A168A1123260A168A115A30FE
:102CE60083120313A1008330A2000A168A11472615
:102CF6000A168A110A128A15EF220A168A11013A51
:102D0600031D872E0130882E003083120313BD0069
:102D1600BE013D08BB003E08BC0008000A168A1129
:102D26004F250A168A118316031391150A168A115E
:102D36004F250A168A11831203131308A2002208CC
:102D4600A3000A168A114F250A168A118312031345
:102D560020082104031DB32E831603139116B62EE5
:102D66008316031391121116831203132308080006
:102D7600003083120313BE000030BD000030BC00DB
:102D86006430BB000A128A150C210A168A110A162B
:102D96008A1123250A168A11D1300A168A1181252D
:102DA6000A168A110A168A112A2503108316031396
:102DB600111F031400300318013083120313C500DA
:102DC600C6014508C3004608C40008008312031361
:102DD600AC01AD012C082807AA002D0803182D0AFE
:102DE6002907AB002A08840083172B1C83130008CD
:102DF600031908002C082807AA002D0803182D0A15
:102E06002907AB002A08840083172B1C83130008AC
:102E16000A128A114E270A168A11013083120313E9
:102E2600AC070318AD0A0030AD07ED2E831203136D
:102E3600200821040319482FA501A50AA11B2F2F3D
:102E460001300310A00DA10DFF3E031D242F0130FC
:102E5600A4002408A507212F21082302031D352FCE
:102E660020082202031C3D2F2008A2022108031C71
:102E7600A303A30201300310A10CA00CFF3E031D07
:102E86003E2F0130A502031D2F2F2308A100220883
:102E9600A00008006B2F0F3086000800260C031CCC
:102EA6000612031806160800260C031C86120318C1
:102EB60086160800260C031C0613031806170800BE
:102EC600260C031C861303188617080086010800C3
:102ED600831203132508003A0319722F692F240859
:102EE600003A03194E2F013A0319512F033A0319D9
:102EF600572F013A03195D2F073A0319632F692FDC
:102F0600080083120313AB01AC012608270403193A
:102F1600BD2FAD01AD0AA71B9C2F01300310A60DD6
:102F2600A70DFF3E031D912F0130AA002A08AD0709
:102F36008E2F01300310AB0DAC0DFF3E031D9D2FF0
:102F460027082902031DA92F26082802031CB22FD1
:102F56002608A8022708031CA903A9022B1401307E
:102F66000310A70CA60CFF3E031DB32F0130AD02C4
:102F7600031D9C2F2C08A7002B08A600080083120F
:102F86000313A601A401A5010A168A1158250A16DB
:102F96008A1183120313A2002208A3000130A4079A
:102FA6000318A50A0030A507260820078400210873
:102FB6000318210AFF000A128A1100230A168A1131
:102FC6002306031DEB2F0130A2002208A607EC2FD3
:102FD600A60126082007840021080318210AFF00FD
:102FE6000A128A1100230A168A11003A031DC72FF6
:0A2FF6002508A1002408A00008002F
:02400E007A3FF7
:00000001FF
