:020000040000FA
:060000000A128A110E280D
:10000800FE00030EF1000408F2000A08F3000A16C5
:100018008A11462E0A128A1111288313DE30FD0038
:100028001530FE00A630FF00D23084000A128A1173
:10003800F2220A128A116A30FD001530FE0086305D
:10004800FF00633084000A128A11F2220A128A1110
:100058000A168A116F250A128A11F6000A168A11E1
:1000680070250A128A11F700831790308400B63081
:100078000A168A1195250A128A118313A030840062
:10008800D2300A168A1195250A128A115330840033
:1000980063300A168A11952583010A128A11422EA5
:1000A80083120313CA01CB01283084006308831329
:1000B8008000840A64088000840A65088000840A35
:1000C80066088000840A670880000A128A153427A7
:1000D8000A128A11003A0319CA2800300A128A152E
:1000E80002220A128A1101300A128A1502220A1201
:1000F8008A1108300A128A1502220A128A1101305E
:100108000A128A1502220A128A114930831203132D
:10011800A8008430A9000A128A1586200A128A11BA
:100128001A3083120313C9005E30C8006D30C7004F
:10013800C70B9C28C80B9C28C90B9C28A3280C30EB
:100148000A128A1502220A128A1101300A128A1525
:1001580002220A128A11233083120313A800853061
:10016800A9000A128A1586200A128A111A308312E7
:100178000313C9005E30C8006D30C700C70BC22822
:10018800C80BC228C90BC228C928D228013083123B
:100198000313CA070318CB0A0030CB071A3083129F
:1001A8000313C9005E30C8006D30C700C70BDA28DA
:1001B800C80BDA28C90BDA28E12800300A128A1598
:1001C80002220A128A1101300A128A1502220A1220
:1001D8008A1108300A128A1502220A128A1101307D
:1001E8000A128A1502220A128A113C30831203135A
:1001F800A8008430A9000A128A1586200A128A11DA
:100208001A3083120313C9005E30C8006D30C7006E
:10021800C70B0C29C80B0C29C90B0C2913290C3046
:100228000A128A1502220A128A1101300A128A1544
:1002380002220A128A110A168A11FE260A128A1145
:100248008312031343034404031D34292330A800F5
:100258008530A9000A128A1586200A128A114529B2
:10026800D630A8008430A9000A128A1586200A12FE
:100278008A11013083120313CA070318CB0A00300E
:10028800CB071A3083120313C9005E30C8006D30E3
:10029800C700C70B4D29C80B4D29C90B4D29542937
:1002A80000300A128A1502220A128A1101300A1233
:1002B8008A1502220A128A1108300A128A150222A5
:1002C8000A128A1101300A128A1502220A128A11A8
:1002D8002F3083120313A8008430A9000A128A154C
:1002E80086200A128A110A168A11B2250A128A1160
:1002F800C53083120313C70047089F050D308312CA
:100308000313C800FB30C700C70B8829C80B88290E
:10031800831203131F151F198F291A308312031311
:10032800C9005E30C8006D30C700C70B9929C80BDB
:100338009929C90B9929A0290C300A128A15022279
:100348000A128A1101300A128A1502220A128A1127
:10035800831603131E08831203131E04031DC629E4
:10036800D630A8008430A9000A128A1586200A12FD
:100378008A11013083120313CA070318CB0A00300D
:10038800CB07CF292330A8008530A9000A128A1587
:1003980086200A128A111A3083120313C9005E30AC
:1003A800C8006D30C700C70BD729C80BD729C90BA0
:1003B800D729DE2900300A128A1502220A128A1168
:1003C80001300A128A1502220A128A1108300A120A
:1003D8008A1502220A128A1101300A128A1502228B
:1003E8000A128A11AA3083120313A8008330A900C5
:1003F8000A128A1586200A128A110F3083160313EF
:1004080086001A3083120313C9005E30C8006D30AD
:10041800C700C70B0D2AC80B0D2AC90B0D2A142AB1
:100428000C300A128A1502220A128A1101300A12A5
:100438008A1502220A128A11063083120313A800B1
:100448008430A9000A128A1586200A128A111A30E5
:1004580083120313C9005E30C8006D30C700C70B94
:10046800332AC80B332AC90B332A3A2A00300A1216
:100478008A1502220A128A1101300A128A150222EA
:100488000A128A1108300A128A1502220A128A11DF
:1004980001300A128A1502220A128A11F8308312D0
:1004A8000313A8008330A9000A128A1586200A12AD
:1004B8008A111A3083120313C9005E30C8006D30E8
:1004C800C700C70B652AC80B652AC90B652A6C2AA1
:1004D8000C300A128A1502220A128A1101300A12F5
:1004E8008A1502220A128A110A168A1114260A1279
:1004F8008A110A168A11FD250A128A11031C902AEC
:10050800233083120313A8008530A9000A128A1524
:1005180086200A128A11A32A073083120313A8001F
:100528008530A9000A128A1586200A128A1101301C
:1005380083120313CA070318CB0A0030CB071A30FB
:1005480083120313C9005E30C8006D30C700C70BA3
:10055800AB2AC80BAB2AC90BAB2AB22A00300A1245
:100568008A1502220A128A1101300A128A150222F9
:100578000A128A110C300A128A1502220A128A11EA
:1005880000300A128A1502220A128A1122308312B6
:100598000313A8008430A9000A128A1586200A12BB
:1005A8008A11831203134A08303E0A128A1553240B
:1005B8000A128A111A3083120313C9005E30C80068
:1005C8006D30C700C70BE62AC80BE62AC90BE62A16
:1005D800ED2A08007E088A007F088200EE220A12AF
:1005E8008A118000840A04087D0603190034FF0A72
:0605F8000319FE0AF22ABD
:10060000FF1B0A2B83137F1883170008840A031922
:10061000FF0A08007F087F398A000408840A03194A
:10062000FF0A8200013400340A3400346434003498
:10063000E8340334103427340134023403340434EE
:1006400005340634023405340434093406340634DF
:10065000413454342B3443345734443448344334D1
:10066000503453345F344434453446343D343134AB
:100670002C3435342C3422343134393432342E3461
:100680003134363438342E3434342E343134223448
:100690002C3422343134393432342E34313436343B
:1006A00038342E3434342E3431343034223400345F
:1006B000413454342B34433457345334413450345C
:1006C0005F344434453446343D3422347334613429
:1006D000663465346734753461347234643422347A
:1006E0002C342234733461346634653467347534A1
:1006F00061347234643422342C3435342C34333441
:100700000D340A340034413454342B3443344934E6
:1007100050345334453452345634453452343D34D5
:1007200031342C343334333433340D340A3400341C
:100730005334743461347234743469346E346734CD
:100740002034533465347234763469346334653418
:10075000733400345334743461347234743469340F
:100760006E3467342034523445344C344134593477
:100770005334003450345734523420343A34203413
:10078000733461346634653467347534613472347B
:100790006434003453345334493444343A342034C8
:1007A000733461346634653467347534613472345B
:1007B0006434003456344F344C3454344134473468
:1007C000453420347734613472346E3469346E3495
:1007D00067340034413454342B3443344934503476
:1007E0004D34553458343D3431340D340A340034EA
:1007F0005334743461347234743469346E3467340D
:100800002034573449344634493400345434613444
:1008100073346B34203443346F346D3470346C343F
:100820006534743465340034413454342B344334E7
:1008300049345034533454344134523454343D34B4
:10084000223400344534523452344F34523420343C
:1008500046344F3455344E3444343D3400345334EC
:10086000743461347234743469346E3467342034CF
:100870004134443443340034533474346134723476
:10088000743469346E34673420345234543443340D
:1008900000345334743461347234743469346E34D3
:1008A000673420344C3443344434003441345434B9
:1008B0002B34433449345034533445344E34443467
:1008C0003D340034413454342B34433457345134A0
:1008D000413450340D340A340034413454342B3410
:1008E000433449344634533452340D340A340034DA
:1008F000413454342B34433457344A344134503423
:100900003D3422340034413454342B34433457348E
:100910004D344F34443445343D3400346E346F34F8
:1009200020346334683461346E34673465340034A1
:10093000413454342B345234533454340D340A3447
:10094000003456346F346C34743461346734653435
:100950000034543465347334743469346E34673419
:1009600000346E3461346D3465346C3465346E3407
:10097000003470346134733473346C3465346E34E1
:1009800000346334743473345F346E346F34003441
:100990004C3469346E346B3465346434003455340B
:1009A0006E346C3469346E346B34003445345234F4
:1009B00052344F34523400344534723472346F340C
:1009C000723400342B344934503444342C340034E1
:1009D0007234653461346434793400346E34613493
:1009E0006D346534003470346134733473340034DE
:1009F000643461347934733400340D340A340D3482
:100A00000A340034413454340D340A34003446344A
:100A1000413449344C34003422340D340A34003427
:100A200022342C34223400344134543445340034DC
:100A30005434433450340034553444345034003446
:100A400022342C3400344F344B3400342534753484
:100A5000003483120313C1000A30A0000030A1004B
:100A60004108840083130008B400B5013408A200D3
:100A70003508A3000A128A1508210A128A11831266
:100A800003132008303EB6003608BB000A30A00031
:100A90000030A1004108840083130008B400B501B0
:100AA0003408A2003508A3000A128A15A7210A12E9
:100AB0008A11831203132008303EB6003608BC00AA
:100AC0000A30A0000030A100410A8400831300080E
:100AD000B400B5013408A2003508A3000A128A1533
:100AE00008210A128A11831203132008303EB6002F
:100AF0003608BD000A30A0000030A100410A840081
:100B000083130008B400B5013408A2003508A3001F
:100B10000A128A15A7210A128A11831203132008C8
:100B2000303EB6003608BE000A30A0000030A100FA
:100B30004108023E840083130008B400B501340864
:100B4000A2003508A3000A128A1508210A128A1188
:100B5000831203132008303EB6003608BF000A3067
:100B6000A0000030A1004108023E84008313000869
:100B7000B400B5013408A2003508A3000A128A1592
:100B8000A7210A128A11831203132008303EB600EF
:100B90003608C00008300A128A1502220A128A1189
:100BA00000300A128A1502220A128A1183120313D4
:100BB00040080A128A1553240A128A118312031359
:100BC0003F080A128A1553240A128A113A300A126F
:100BD0008A1553240A128A11831203133E080A123B
:100BE0008A1553240A128A11831203133D080A122C
:100BF0008A1553240A128A113A300A128A1553248C
:100C00000A128A11831203133C080A128A1553240C
:100C10000A128A11831203133B080A128A155324FD
:100C20000A128A11831203133308AF003208AE0090
:100C30003730B4003408B0000A128A15C3230A12F0
:100C40008A110C300A128A1502220A128A11003007
:100C50000A128A1502220A128A11A1308312031382
:100C6000A8008430A9000A128A1586200A128A1167
:100C7000373083120313A8000030A9000A168A1126
:100C80002C2708000A128A1154200A128A11831292
:100C90000313A001A00A00300A168A11C7270A12FE
:100CA0008A11831203132108D9002008D8000230CA
:100CB000831203135902B73003195802031C712E13
:100CC0000030A400A5000030A600A7000A168A1173
:100CD00090270A128A110A128A15BF220A128A1153
:100CE000572E8619602E0530A4000030A500003074
:100CF000A600A7000A168A1190270A128A115C30F2
:100D00000A128A113C270A128A1183120313590806
:100D1000B3005808B2005C300A128A1129250A1261
:100D20008A11831203135E08CC00CD014C08A00089
:100D30004D08A1006430A2000030A3000A168A11F9
:100D400068260A128A11831203135D082007CF0058
:100D50000030031801302107D000D101D2015B0817
:100D6000803ACC005208803A4C02031DB92E51083B
:100D70005A02031C322F063083120313CC004C0896
:100D8000A00051080A168A11C1250A128A11A03E34
:100D900084008313000883120313CD00840A000823
:100DA000CE004E085002031DD72E4D084F02031CE3
:100DB0000C2F0630CC004C08A00051080A168A11EE
:100DC000C1250A128A11A23E8400831300088312EF
:100DD0000313CD00840A0008CE0050084E02031D04
:100DE000F32E4F084D02031C0C2F0630CC004C088C
:100DF000A00051080A168A11C1250A128A11A43EC0
:100E000084008313000883120313A400840A0008DB
:100E1000A5000030A600232F0630CC004C08A0000F
:100E200051080A168A11C1250A128A11A43E8400AB
:100E30008313000883120313A400840A0008A5008A
:100E40000130A6000030A7000A168A1190270A1266
:100E50008A11013083120313D1070318D20A00301C
:100E6000D207AF2E831203138618472E0A128A1553
:100E700074260A128A11472E83120313A9000A1638
:100E80008A1171250A128A11D0300A168A11D425C6
:100E90000A128A1100300A168A11D4250A128A1100
:100EA0000A168A117F250A128A11D1300A168A1170
:100EB000D4250A128A11013083120313A0000030D6
:100EC000A1000A168A11D4260A128A110A168A115A
:100ED0002C260A128A1183120313A8002908840001
:100EE0002808831380000130A0000030A1000A16FA
:100EF0008A11D4260A128A110A168A112C260A127D
:100F00008A1183120313A800290A84002808831376
:100F100080000130A0000030A1000A168A11D426FA
:100F20000A128A110A168A112C260A128A118312B1
:100F30000313A8002908023E8400280883138000B8
:100F40000130A0000030A1000A168A11D4260A122E
:100F50008A110A168A112C260A128A118312031387
:100F6000A8002908033E840028088313800001306C
:100F7000A0000030A1000A168A11D4260A128A1194
:100F80000A168A112C260A128A1183120313A8004A
:100F90002908043E84002808831380000130A00043
:100FA0000030A1000A168A11D4260A128A110A16E4
:100FB0008A112C260A128A1183120313A800290809
:100FC000053E84002808831380000030A000A100A3
:100FD0000A168A11D4260A128A110A168A112C2698
:100FE0000A128A1183120313A8002908063E8400FE
:0E0FF0002808831380000A168A11782508004D
:1010000083120313981C0628181218168C1E062823
:101010001A08080083120313AB01AC012608270449
:1010200003194328AD01AD0AA71B22280130031084
:10103000A60DA70DFF3E031D17280130AA002A08A0
:10104000AD07142801300310AB0DAC0DFF3E031D9E
:10105000232827082902031D2F2826082802031CFD
:1010600038282608A8022708031CA903A9022B1464
:1010700001300310A70CA60CFF3E031D39280130D8
:10108000AD02031D22282C08A7002B08A60008008B
:1010900083120313A601A401A5010A128A150020D8
:1010A0000A128A1583120313A2002208A30001303A
:1010B000A4070318A50A0030A50726082007840006
:1010C00021080318210AFF000A128A1100230A12BC
:1010D0008A152306031D71280130A2002208A607E5
:1010E0007228A60126082007840021080318210A77
:1010F000FF000A128A1100230A128A15003A031D02
:101100004D282508A1002408A0000800831203131D
:10111000AD01AE012D082807AB002908AA0003186D
:10112000AA0AAD1BAA03831203132A08AC002C08D9
:10113000FF002B0884000A128A1100230A128A1564
:10114000003A031908002D082807AB002908AA0057
:101150000318AA0AAD1BAA03831203132A08AC00C2
:101160002C08FF002B0884000A128A1100230A129F
:101170008A150A128A1553240A128A15013083121D
:101180000313AD070318AE0A0030AE078A280030FB
:1011900083120313AC000030AB000030AA00003013
:1011A000A900201CE7282408A90725080311031813
:1011B000013E031DAA07260803110318013E031D63
:1011C000AB07270803110318013E031DAC070130CC
:1011D000A8000310A40DA50DA60DA70DA80BE928C6
:1011E00001300310A30CA20CA10CA00CFF3E031DA8
:1011F000F1282308220421042004031DD1282C08EF
:10120000A3002B08A2002A08A1002908A0000800BA
:1012100083120313A601A31F1429A209A309A20A7A
:101220000319A30AA601A60AA11F1B29A009A10947
:10123000A00A0319A10A2008210403194829A501BD
:10124000A50AA11B2F2901300310A00DA10DFF3EFF
:10125000031D24290130A4002408A5072129210801
:101260002302031D352920082202031C3D292008E2
:10127000A2022108031CA303A30201300310A10C46
:10128000A00CFF3E031D3E290130A502031D2F299E
:10129000260803195029A209A309A20A0319A30ABF
:1012A0002308A1002208A000080083160313871555
:1012B0000716283083120313940083160313910139
:1012C000831203133B08BF003C08C0003D08C10067
:1012D0003E08C20002300310BF0DC00DC10DC20D8B
:1012E000FF3E031D6B294208A3004108A2004008ED
:1012F000A1003F08A0000030A7000030A600033086
:10130000A500E830A4000A128A15C7200A128A151F
:10131000831203132308B0002208AF002108AE0097
:101320002008AD000130B4003130B3002D30B200E0
:101330000030B1000A128A155F22831203132D08B0
:10134000FF3E83160313930080309400080083123D
:101350000313A601A11FB329A009A109A00A03191B
:10136000A10AA601A60AA31FBE29A209A309A20ACF
:101370000319A30A0130A4002408A606A701A801A6
:10138000200821040319F529A501A50AA11BD429C8
:1013900001300310A00DA10DFF3E031DC92901302E
:1013A000A4002408A507C62901300310A70DA80D25
:1013B000FF3E031DD52921082302031DE129200832
:1013C0002202031CEA292008A2022108031CA3030D
:1013D000A302271401300310A10CA00CFF3E031D33
:1013E000EB290130A502031DD42926080319FD2984
:1013F000A709A809A70A0319A80A2808A10027080D
:10140000A000080083120313A7000130A4006508A0
:101410000739013E0D2A0310A40DFF3E031D0B2AC0
:101420002408FF3AA500630884008317641C831313
:101430002508800527080A128A15B4250A128A157C
:10144000013083120313A400650CA500A50C250C24
:101450000739013E2D2A0310A40DFF3E031D2B2A40
:101460002408A600630884008317641C83132608DD
:1014700080041A3083120313A500F730A400A40BD4
:101480003F2AA50B3F2A442A013083120313A400EC
:10149000650CA500A50C250C0739013E512A031047
:1014A000A40DFF3E031D4F2A2408FF3AA60063083F
:1014B00084008317641C831326088005080000300D
:1014C00083120313B9000030B8000030B7000030B9
:1014D000B60030082F042E042D040319B62ABA01D1
:1014E000BA0AB01B812A0130B5000310AD0DAE0D54
:1014F000AF0DB00DB50B752A0130B5003508BA0730
:10150000712A0130B5000310B60DB70DB80DB90D35
:10151000B50B832A30083402031D982A2F083302A2
:10152000031D982A2E083202031D982A2D08310225
:10153000031CA92A2D08B1022E08031C2E0FB2028B
:101540002F08031C2F0FB3023008031C300FB40206
:10155000361401300310B00CAF0CAE0CAD0CFF3ED6
:10156000031DAA2A0130BA02031D812A3908B000DE
:101570003808AF003708AE003608AD00080000306C
:101580000A128A1502220A128A1501300A128A15D5
:1015900002220A128A150C300A128A1502220A1235
:1015A0008A1500300A128A1502220A128A15DA30C8
:1015B00083120313A8008330A9000A128A1586201B
:1015C0000A128A15643083120313B2000030B3008C
:1015D0000D3083120313B100AF30B000B530AF004F
:1015E000AF0BF02AB00BF02AB10BF02AF72A8312C6
:1015F0000313061D0800FF30B2070318B30AFF30BB
:10160000B30732083304031DE82A00300A128A1592
:1016100002220A128A1501300A128A1502220A12BF
:101620008A150C300A128A1502220A128A15003015
:101630000A128A1502220A128A15A930831203138C
:10164000A8008430A9000A128A1586200A128A1579
:101650000D3083120313B100AF30B000B530AF00CE
:10166000AF0B302BB00B302BB10B302B372B0800CE
:10167000303084000630FF0083138001840AFF0BA2
:101680003C2B24308400D23083120313A0000408C2
:10169000A1000C30A2002008840083130008A300DE
:1016A000A00A2108840023088000A10AA20B4B2B6A
:1016B000B801B80A38080319C12B0A128A1500208C
:1016C0000A128A1583120313A0002008B600B9017C
:1016D0003908A0002007243E840083130008A100DD
:1016E000840A0008A2003908303E8400000821075F
:1016F000840022080318220AFF000A128A1100231C
:101700000A128A153606031DB32B0130A0003908D2
:10171000303E84002008831380073908223E84006D
:1017200083300318013EFF000A128A1100230A12B7
:101730008A15A0003908303E840083130008200673
:10174000031DB82B39081C3E840083300318013E6A
:10175000FF000A128A1100230A128A15A00020082D
:10176000B700B801B82B3908303E840083138001DC
:101770000130A0002008B9070630390203185A2B9F
:10178000682B37080800E83083120313A6000330E3
:10179000A7002F08A3002E08A2001030A0002730B9
:1017A000A1000A168A115C270A128A1583120313F4
:1017B0002108A9002008A8000A128A150A200A1286
:1017C0008A15831203132608303EB10030088400C6
:1017D0003108831380006430A6000030A7002F0872
:1017E000A3002E08A200E830A0000330A1000A16D2
:1017F0008A115C270A128A15831203132108A90093
:101800002008A8000A128A150A200A128A158312D3
:1018100003132608303EB100300A840031088313D8
:1018200080000A30A6000030A7002F08A3002E0871
:10183000A2006430A0000030A1000A168A115C27C3
:101840000A128A15831203132108A9002008A80090
:101850000A128A150A200A128A158312031326080F
:10186000303EB1003008023E84003108831380000E
:101870000A30A0000030A1002F08A3002E08A2000B
:101880000A168A115C27831203132008303EB10028
:101890003008033E84003108831380003008043E82
:1018A00084008001080083120313A7000130A40004
:1018B00065080739013E5E2C0310A40DFF3E031D91
:1018C0005C2C2408A500630884008317641C831320
:1018D000250880042708A40004300310A40CFF3E50
:1018E000031D6D2C24080F390A128A15B4250A121B
:1018F0008A15013083120313A400650CA500A50C02
:10190000250C0739013E862C0310A40DFF3E031D54
:10191000842C2408A600630884008317641C8313A6
:1019200026088004413083120313A400A40B962CD4
:10193000992C013083120313A400650CA500A50C9B
:10194000250C0739013EA62C0310A40DFF3E031DF4
:10195000A42C2408FF3AA600630884008317641CA3
:1019600083132608800527080F390A128A15B42523
:101970000A128A15013083120313A400650CA50016
:10198000A50C250C0739013EC72C0310A40DFF3E02
:10199000031DC52C2408A600630884008317641C5B
:1019A000831326088004413083120313A400A40B80
:1019B000D72CDA2C013083120313A400650CA50088
:1019C000A50C250C0739013EE72C0310A40DFF3EA2
:1019D000031DE52C2408FF3AA60063088400831742
:1019E000641C8313260880050800E2308312031369
:1019F000A0008430A1000A128A1548200A128A1514
:101A000083120313B001B1010A128A1500200A12D1
:101A10008A1583120313AC002C08AF00132D3A3043
:101A20002F020318402D3108A1003008A0000A3011
:101A3000A2000030A3000A168A1168260A128A152D
:101A4000831203132F082007AC0000300318013065
:101A50002107AD002C08D03EB0002D080318013E30
:101A6000FF3EB1000A128A1500200A128A1583125D
:101A70000313AC002C08AF0030302F0203180F2DD9
:101A80002B080319542DFD30A0008430A1000A1248
:101A90008A1548200A128A15831203132008B002FF
:101AA0002108031CB103B1022A083102031D5A2D7B
:101AB000290830020318602D3108AA003008A90057
:101AC000B201B3012A083302031D682D290832022E
:101AD0000318882D0A128A1500200A128A1583120B
:101AE0000313AC0032082707AD0033080318330A8C
:101AF0002807AE002D08840083172E1C83132C08A2
:101B000080000130B2070318B30A0030B307622D1A
:101B100032082707AC0033080318330A2807AD0042
:101B20002C08840083172D1C831380013108330295
:101B3000031D9C2D300832020318AC2D0A128A15A1
:101B400000200A128A15013083120313B20703180A
:101B5000B30A0030B307962D2330A0008530A100D2
:101B60000A128A154820080083120313A300231CBD
:101B7000CE2D0130A00066080739013EC12D0310AB
:101B8000A00DFF3E031DBF2D2008A10063088400A7
:101B90008317641C831321088004E32D0130A00007
:101BA00066080739013ED62D0310A00DFF3E031D28
:101BB000D42D2008FF3AA100630884008317641C19
:101BC000831321088005A31CFD2D0130A000660CA5
:101BD000A100A10C210C0739013EF02D0310A00D2E
:101BE000FF3E031DEE2D2008A2006308840083172A
:101BF000641C831322088004152E0130A000660C9B
:101C0000A100A10C210C0739013E082E0310A00DE4
:101C1000FF3E031D062E2008FF3AA2006308840041
:101C20008317641C831322088005231D2C2E01308A
:101C3000A00067080739013E1F2E0310A00DFF3ECC
:101C4000031D1D2E2008A100630884008317641C57
:101C5000831321088004412E0130A0006708073952
:101C6000013E342E0310A00DFF3E031D322E20082E
:101C7000FF3AA100630884008317641C83132108C2
:101C80008005A31D5B2E0130A000670CA100A10CF4
:101C9000210C0739013E4E2E0310A00DFF3E031DFF
:101CA0004C2E2008A200630884008317641C831351
:101CB0002208800408000130A000670CA100A10CDC
:101CC000210C0739013E662E0310A00DFF3E031DB7
:101CD000642E2008FF3AA200630884008317641C66
:101CE000831322088005080008300A128A15022290
:101CF0000A128A1500300A128A1502220A128A155F
:101D0000CA3083120313A8008330A9000A128A156F
:101D100086200A128A150C300A128A1502220A122B
:101D20008A1500300A128A1502220A128A15BA3060
:101D300083120313A8008330A9000A128A15862093
:101D40000A128A1500300A128A1502220A128A150E
:101D500001300A128A1502220A128A1508300A1264
:101D60008A1502220A128A1500300A128A150222E6
:101D70000A128A150A168A11E8250A128A152830CD
:101D800083120313A1008330A2000A168A11AF2622
:101D90000A128A150A128A1538230A128A15013A7C
:101DA000031DD42E6F30D52E65300A128A155324A8
:101DB0000A128A15EA3083120313A1008330A200AD
:101DC0000A168A11AF260A128A158330831203136A
:101DD000A1008330A2000A168A11AF260A128A15C2
:101DE0000A128A1538230A128A15013A031DFA2E9F
:101DF0006F30FB2E65300A128A1553240A128A1599
:101E00000C300A128A1502220A128A1501300A12AF
:101E10008A1502220A128A1568300A128A1553247A
:101E20000A128A15831203133F08BB00BC013B084A
:101E3000A7003C08A8000130A9000030AA00AB01AF
:101E40000A128A15F5240A128A15831203133F0811
:101E5000BB00BC013B08A8003C08A9000A168A1177
:101E60002C270A128A150C2F633084008312031367
:101E7000280883138000840A29088000840A2A081D
:101E80008000840A2B088000840A2C08800000301F
:101E90006406031D4D2F05306306031D532F831663
:101EA00003138501852F00306406031D592F06306A
:101EB0006306031D5F2F831603138601852F0030F1
:101EC0006406031D652F07306306031D6B2F831601
:101ED00003138701852F00306406031D712F08301E
:101EE0006306031D772F831603138801852F0030A7
:101EF0006406031D7D2F09306306031D832F83169F
:101F000003138901852F00300800823083120313E8
:101F1000AE00DD30AD00AD0B8B2FAE0B8B2F033041
:101F20000A128A1502220A128A152130831203131B
:101F3000AE007530AD00AD0B9B2FAE0B9B2FA02FCD
:101F400003300A128A1502220A128A156830831297
:101F50000313AE00E330AD00AD0BAC2FAE0BAC2FD6
:101F6000B12F03300A128A1502220A128A15023092
:101F70000A128A1502220A128A1502300A128A15DA
:101F800002220A128A1508300A128A1502220A123F
:101F90008A1500300A128A1502220A128A150630A2
:101FA0000A128A1502220A128A15083083120313B4
:101FB000AD002D08AF002F152F08AD000430031021
:101FC000AD0CFF3E031DDF2F2D080F390A128A15B5
:101FD00002220A128A15831203132F080F390A12DC
:101FE0008A1502220A128A1500300A128A15022264
:101FF0000A128A1501300A128A15022201300800DD
:102ADE00C83400340A168A119D2583160313111467
:102AEE0008000A168A119D25831603131115080076
:102AFE000A168A119D2583160313911408000834B3
:102B0E0000341A342C343E34B63402348312031398
:102B1E00A0000C1E902D2008990008006400800172
:102B2E00840A0406031900340406962D8316031333
:102B3E0014199D2D11081F39031908009D2D2334DA
:102B4E008534E8348434073485348E348434C83480
:102B5E008434CF348434FF30831603138500413020
:102B6E00831203139F00C030831603139F000B17AD
:102B7E008B17080083120313A300A201231CCB2D75
:102B8E002008A1002108A2070310A00D0310A30C1A
:102B9E002308031DC52D2208080083120313A0006D
:102BAE000A168A119D250A168A118312031320080C
:102BBE00930083160313111BE62D03100800031454
:102BCE00080002300A168A118B260A168A1158300E
:102BDE0083120313A1008330A2000A168A11AF26B6
:102BEE000A168A110A128A15382308000230831237
:102BFE000313A1008530A2000A168A11AF260A1609
:102C0E008A110A128A1538230A168A11013A0319F3
:102C1E00122E031008000314080083160313071363
:102C2E0087170A3099001815181283120313981774
:102C3E0083160313981683120313181683160313A1
:102C4E001813831203131813080083120313A7001B
:102C5E000F302705A4000A30A5002508A00027087C
:102C6E00A60004300310A60CFF3E031D392E2608C5
:102C7E000A168A11C1258312031324070800831232
:102C8E0003130C1F5F2E7408F0007007BE3E840005
:102C9E00831603131E0883138000840A8312031302
:102CAE001E0880000130F4070318F50A0030F507FE
:102CBE0073088A0072088400710E8300FE0E7E0E69
:102CCE00090083120313A401A501201C742E2208EF
:102CDE00A4070318A50A2308A50701300310A20DA7
:102CEE00A30DFF3E031D752E01300310A10CA00C89
:102CFE00FF3E031D7C2E20082104031D6C2E25088B
:102D0E00A1002408A000080083120313BA00833028
:102D1E00A1008430A2000A168A11AF260A168A1163
:102D2E00831203133A08303E0A168A118D250A16AD
:102D3E008A11FF3083120313A1008430A2000A16F9
:102D4E008A11AF260A168A110A128A15382308002C
:102D5E00831203132208FF00210884000A128A112D
:102D6E0000230A168A11003A031908002208FF00F0
:102D7E00210884000A128A1100230A168A110A16E3
:102D8E008A118D250A168A11013083120313A107A9
:102D9E000318A20A0030A207AF2E0A168A119D252B
:102DAE000A168A118316031391150A168A119D2588
:102DBE000A168A11831203131308A2002208A30015
:102DCE000A168A119D250A168A11831203132008EA
:102DDE002104031DF62E831603139116F92E831666
:102DEE0003139112111683120313230808000030E7
:102DFE0083120313BE000030BD000030BC006430EF
:102E0E00BB000A128A1555210A168A110A168A1152
:102E1E0071250A168A11D1300A168A11D4250A167E
:102E2E008A110A168A117825031083160313111FAF
:102E3E00031400300318013083120313C500C601BA
:102E4E004508C3004608C400080083120313AC01F2
:102E5E00AD012C082807AA002D0803182D0A2907F2
:102E6E00AB002A08840083172B1C83130008031958
:102E7E0008002C082807AA002D0803182D0A290778
:102E8E00AB002A08840083172B1C831300080A1238
:102E9E008A1553240A168A11013083120313AC07C4
:102EAE000318AD0A0030AD07302F8312031320082C
:102EBE00210403198B2FA501A50AA11B722F013026
:102ECE000310A00DA10DFF3E031D672F0130A400BE
:102EDE002408A507642F21082302031D782F20083C
:102EEE002202031C802F2008A2022108031CA30328
:102EFE00A30201300310A10CA00CFF3E031D812F75
:102F0E000130A502031D722F2308A1002208A00084
:102F1E000800AE2F0F3086000800260C031C061288
:102F2E00031806160800260C031C861203188616B4
:102F3E000800260C031C0613031806170800260C9F
:102F4E00031C8613031886170800860108008312D7
:102F5E0003132508003A0319B52FAC2F2408003AA5
:102F6E000319912F013A0319942F033A03199A2F3B
:102F7E00013A0319A02F073A0319A62FAC2F080008
:102F8E0083120313A400C530A20022089F05240853
:102F9E00A20002300310A20DFF3E031DD12F03101D
:102FAE00220DA30023089F040D3083120313A300E8
:102FBE00FB30A200A20BE12FA30BE12F8312031310
:102FCE0020080319F62F1F151F19EB2F1E08A1003D
:102FDE00831603131E0883120313A0000800831622
:102FEE0003130C17831203130C131F15A001A10159
:022FFE000800C9
:02400E007A3FF7
:00000001FF
