:020000040000FA
:060000000A128A110E280D
:10000800FE00030EF1000408F2000A08F3000A16C5
:100018008A11F22E0A128A1111288313E830FD0082
:100028001630FE004430FF00DC3084000A168A11C6
:1000380063260A128A116B30FD001630FE00243048
:10004800FF00643084000A168A1163260A128A1196
:100058000A128A11FC270A128A11F6000A128A115A
:10006800FD270A128A11F700831790308400B630F2
:100078000A168A1133260A128A118313A0308400C3
:10008800DC300A168A1133260A128A115A30840083
:1000980064300A168A11332683010A128A11C32A88
:1000A80083120313A7000130A40066080739013E34
:1000B8005F280310A40DFF3E031D5D282408A5003A
:1000C800640884008317651C8313250880042708A7
:1000D800A40004300310A40CFF3E031D6E2824085E
:1000E8000F390A128A1539250A128A11013083122A
:1000F8000313A400660CA500A50C250C0739013EC6
:1001080087280310A40DFF3E031D85282408A60098
:10011800640884008317651C831326088004413013
:1001280083120313A400A40B97289A280130831282
:100138000313A400660CA500A50C250C0739013E85
:10014800A7280310A40DFF3E031DA5282408FF3A85
:10015800A600640884008317651C8313260880059D
:1001680027080F390A128A1539250A128A1101300F
:1001780083120313A400660CA500A50C250C0739EF
:10018800013EC8280310A40DFF3E031DC6282408FD
:10019800A600640884008317651C8313260880045E
:1001A800413083120313A400A40BD828DB280130A4
:1001B80083120313A400660CA500A50C250C0739AF
:1001C800013EE8280310A40DFF3E031DE62824087D
:1001D800FF3AA600640884008317651C8313260869
:1001E8008005080083120313981CFC28181218169F
:1001F8008C1EFC281A080800FF1B0A2983137F1885
:1002080083170008840A0319FF0A08007F087F394A
:100218008A000408840A0319FF0A820001340034A2
:100228000A34003464340034E83403341034273496
:1002380001340234033404340534063402340534FA
:100248000434093406340634413454342B344334EA
:1002580057345334413450345F344434453446348D
:100268003D3422345334613466346534673475342C
:1002780061347234643422342C342234533461347B
:1002880066346534673475346134723464342234C6
:100298002C3435342C3433340D340A34003441349E
:1002A80054342B3443344934503453344534523461
:1002B8005634453452343D3431342C3431343034AE
:1002C800303431340D340A340034413454342B344E
:1002D8004334573444344834433450345F3444341A
:1002E800453446343D3430342C3431340D340A34FA
:1002F80000345334743461347234743469346E3471
:100308006734203453346534723476346934633452
:1003180065347334003450345734523420343A340A
:100328002034533461346634653467347534613449
:1003380072346434003453345334493444343A34D2
:100348002034533461346634653467347534613429
:1003580072346434003456344F344C345434413499
:100368004734453420347734613472346E34693418
:100378006E3467340034413454342B3443344934B4
:1003880050344D34553458343D3431340D340A34F6
:100398000034413454342B344334493450345334C6
:1003A80054344134523454343D34223400344534C6
:1003B800523452344F345234203446344F34553446
:1003C8004E3444343D34003449346E346934743422
:1003D800693461346C3469347A3469346E3467341E
:1003E8000034413454342B34433449345034533476
:1003F80045344E3444343D340034413454342B3481
:10040800433457345134413450340D340A340034B1
:10041800413454342B3443344934463453345234FD
:100428000D340A340034413454342B3443345734B3
:100438004A34413450343D34223400344134543445
:100448002B34433457344D344F34443445343D34DD
:1004580000346E346F3420346334683461346E345D
:10046800673465340034413454342B3452345334B3
:1004780054340D340A3400345434653473347434C9
:1004880069346E34673400346E3461346D346534E5
:100498006C3465346E3400347034613473347334BE
:1004A8006C3465346E3400346334743473345F34BC
:1004B8006E346F3400344C3469346E346B346534C4
:1004C8006434003455346E346C3469346E346B34AF
:1004D80000344534723472346F34723400342B343F
:1004E8004934503444342C34003472346534613423
:1004F800643479340034203449343D3420340034B1
:100508006E3461346D34653400347034613473345E
:1005180073340034643461347934733400340D3402
:100528000A340D340A340034413454340D340A3456
:1005380000344634413449344C34003456343D3464
:100548002034003422340D340A34003422342C345C
:100558002234003441345434453400345434433460
:1005680050340034553444345034003422342C345C
:1005780000344F344B34003425347534003483123E
:100588000313DA01DB01DE01DF01DC01DD010030EC
:100598000A128A1587220A128A1101300A128A154C
:1005A80087220A128A110A128A15BC260A128A118F
:1005B800013083120313DA070318DB0A0030DB0764
:1005C800A001A00A00300A128A1556200A128A11C0
:1005D800831203132108E1002008E0006008D20715
:1005E8000318D30A6108D307D801D901831203136A
:1005F800A001A00A58080A128A1556200A128A1160
:10060800831203135808CF004F07BE3E840020080A
:1006180083138000840A210880005808CF004F0700
:10062800BE3E84000008D000840A0008D1005008AB
:10063800D4070318D50A5108D5070130D80703187D
:10064800D90A0030D9075908803AFF0080307F0264
:10065800031D302B04305802031CFA2A323083124F
:1006680003135A065B04031D652B3230A6000030C5
:10067800A7005308A9005208A8000A128A158F205B
:100688000A128A11831203132708DF002608DE00E6
:100698003230A6000030A7005508A9005408A80069
:1006A8000A128A158F200A128A1183120313270847
:1006B800DD002608DC00D201D301D401D501DA011E
:1006C800DB010230831203136102B73003196002A1
:1006D800031C7F2B0030A400A5000030A600A70053
:1006E8000A128A151F200A128A110A128A15B423BF
:1006F8000A128A11652B86196E2B0530A40000306A
:10070800A5000030A600A7000A128A151F200A12A9
:100718008A11D5300A128A15F9250A128A1183120C
:1007280003135F08B3005E08B2005D08B5005C08FB
:10073800B400D5300A128A11AD250A128A1183161F
:100748000313570883120313CF00D0014F08A000EA
:100758005008A1006430A2000030A3000A168A11D4
:1007680036270A128A1183160313560883120313B5
:100778002007D6000030031801302107D700D80120
:10078800D9016308803ACF005908803A4F02031D07
:10079800CF2B58086202031C482C0630831203131F
:1007A800CF004F08A00058080A168A1170260A12AE
:1007B8008A11A03E84008313000883120313D0001B
:1007C800840A0008D10051085702031DED2B500878
:1007D8005602031C222C0630CF004F08A0005808F0
:1007E8000A168A1170260A128A11A23E84008313FF
:1007F800000883120313D000840A0008D1005708A8
:100808005102031D092C56085002031C222C0630E5
:10081800CF004F08A00058080A168A1170260A123D
:100828008A11A43E84008313000883120313A400D2
:10083800840A0008A5000030A600392C0630CF0035
:100848004F08A00058080A168A1170260A128A1141
:10085800A43E84008313000883120313A400840AAF
:100868000008A5000130A6000030A7000A128A156A
:100878001F200A128A11013083120313D8070318A4
:10088800D90A0030D907C52B831203138618DC2A2E
:100898000A128A1152240A128A11DC2A08300A1212
:1008A8008A1587220A128A1100300A128A158722AD
:1008B8000A128A119F3083120313A8008130A900FD
:1008C8000A128A150B210A128A110C300A128A158B
:1008D80087220A128A1100300A128A1587220A1200
:1008E8008A118F3083120313A8008130A9000A12DD
:1008F8008A150B210A128A110D3083120313BD00C9
:10090800AF30BC00B530BB00BB0B882CBC0B882CAF
:10091800BD0B882C8F2C00300A128A1587220A12E8
:100928008A1101300A128A1587220A128A110830A0
:100938000A128A1587220A128A1100300A128A15A9
:1009480087220A128A110A168A11C3260A128A11E4
:100958000A168A1197260A128A116930831203131C
:10096800A1008130A2000A168A117D270A128A1175
:100978000A128A15AE240A128A11013A031DC62CDE
:100988006F30C72C65300A128A1154200A128A1156
:1009980047300A128A1544230A128A11BF3083127B
:1009A8000313A1008130A2000A168A117D270A12BA
:1009B8008A110A128A15AE240A128A11013A031DF5
:1009C800E72C6F30E82C65300A128A1154200A127D
:1009D8008A11533083120313A1008130A2000A1632
:1009E8008A117D270A128A110A128A15AE240A1260
:1009F8008A11013A031D022D6F30032D65300A124A
:100A08008A1154200A128A111A3083120313BD0066
:100A18005E30BC006D30BB00BB0B102DBC0B102D25
:100A2800BD0B102D172D00300A128A1587220A12C5
:100A38008A1101300A128A1587220A128A1108308F
:100A48000A128A1587220A128A1100300A128A1598
:100A580087220A128A1168300A128A1154200A124F
:100A68008A11733083120313A0008230A1000A1286
:100A78008A15CD200A128A110A128A11F6200A1242
:100A88008A1183120313BB003B08CE004E080A12DA
:100A98008A1154200A128A112C30831203134E062D
:100AA800031D402D0A128A11F6200A128A11D03E1F
:100AB80083120313BB003B08CB000A128A11F620ED
:100AC8000A128A1183120313BB003B08CE004E089A
:100AD8000A128A1154200A128A113A308312031317
:100AE8004E06031D612DCC01CD01CC01CD014D0871
:100AF800803ABB0080303B02031D842D4B084C021A
:100B08000318A62D0A128A11F6200A128A118312D6
:100B18000313BB004C08403E84003B08831380004D
:100B28004C08403E840000080A128A1154200A1218
:100B38008A11013083120313CC070318CD0A003041
:100B4800CD077B2D40300A168A1114270A128A1104
:100B5800172D83120313C7000A30A0000030A1002C
:100B68004708840083130008B600B7013608A200BE
:100B78003708A3000A128A158D210A128A118312D6
:100B880003132008303EB8003808BD000A30A00022
:100B98000030A1004708840083130008B600B7019D
:100BA8003608A2003708A3000A128A152C220A1256
:100BB8008A11831203132008303EB8003808BE009B
:100BC8000A30A0000030A100470A840083130008FF
:100BD800B600B7013608A2003708A3000A128A1522
:100BE8008D210A128A11831203132008303EB8009F
:100BF8003808BF000A30A0000030A100470A84006E
:100C080083130008B600B7013608A2003708A3000E
:100C18000A128A152C220A128A1183120313200839
:100C2800303EB8003808C0000A30A0000030A100EB
:100C38004708023E840083130008B600B70136084F
:100C4800A2003708A3000A128A158D210A128A11F8
:100C5800831203132008303EB8003808C1000A3058
:100C6800A0000030A1004708023E8400831300085A
:100C7800B600B7013608A2003708A3000A128A1581
:100C88002C220A128A11831203132008303EB8005E
:100C98003808C20008300A128A1587220A128A11F7
:100CA80000300A128A1587220A128A118312031346
:100CB80042080A128A1154200A128A118312031355
:100CC80041080A128A1154200A128A113A300A126B
:100CD8008A1154200A128A118312031340080A1237
:100CE8008A1154200A128A11831203133F080A1228
:100CF8008A1154200A128A113A300A128A11542091
:100D08000A128A11831203133E080A128A11542008
:100D18000A128A11831203133D080A128A115420F9
:100D28000A128A110A3083120313A6000030A700A2
:100D38003308B7003208B6000310B60DB70D03101C
:100D4800B60DB70D3608A8003708A9000A128A158B
:100D58008F200A128A11831203132708BA00260863
:100D6800B9003A08AF003908AE004330B60036087B
:100D7800B0000A128A152D240A128A110C300A12A0
:100D88008A1587220A128A1100300A128A158722C8
:100D98000A128A11A23083120313A8008230A90014
:100DA8000A128A150B210A128A1143300A168A116F
:100DB80014270A128A11831203133508BC00340859
:100DC800BB003C08AF003B08AE004330B600360815
:100DD800B0000A128A152D240A128A117F30831254
:100DE8000313A8008230A9000A128A150B210A12DF
:100DF8008A1143300A168A111427080064308400C7
:100E080083120313280883138000840A29088000AA
:100E1800840A2A088000840A2B088000840A2C0887
:100E2800800000306506031D1B2F05306406031D76
:100E3800212F831603138501532F00306506031DE8
:100E4800272F06306406031D2D2F831603138601F2
:100E5800532F00306506031D332F07306406031D2A
:100E6800392F831603138701532F00306506031D9E
:100E78003F2F08306406031D452F8316031388018E
:100E8800532F00306506031D4B2F09306406031DE0
:100E9800512F831603138901532F00300800823025
:100EA80083120313AE00DD30AD00AD0B592FAE0B2E
:100EB800592F03300A128A1587220A128A11213003
:100EC80083120313AE007530AD00AD0B692FAE0B66
:100ED800692F6E2F03300A128A1587220A128A1187
:100EE800683083120313AE00E330AD00AD0B7A2FE8
:100EF800AE0B7A2F7F2F03300A128A1587220A1227
:100F08008A1102300A128A1587220A128A110230BF
:100F18000A128A1587220A128A1108300A128A15BB
:100F280087220A128A1100300A128A1587220A12A9
:100F38008A1106300A128A1587220A128A11083085
:100F480083120313AD002D08AF002F152F08AD0035
:100F580004300310AD0CFF3E031DAD2F2D080F39D3
:100F68000A128A1587220A128A11831203132F087C
:100F78000F390A128A1587220A128A1100300A12BA
:100F88008A1587220A128A1101300A128A158722C5
:100F980001300800003083120313BE000030BD008A
:100FA8000030BC006430BB000A128A15DA210A122C
:100FB8008A110A168A110F260A128A11D1300A16C6
:100FC8008A1183260A128A110A168A111626031014
:100FD80083160313111F0314003003180130831202
:100FE8000313C500C6014508C3004608C40008002D
:040FF800C8340034C5
:10100A0083120313A7000F302705A4000A30A50096
:10101A002508A0002708A60004300310A60CFF3EEE
:10102A00031D122826080A168A1170268312031332
:10103A00240708003D280F3086000800260C031CF0
:10104A000612031806160800260C031C861203183B
:10105A0086160800260C031C061303180617080038
:10106A00260C031C8613031886170800860108003D
:10107A00831203132508003A031944283B2824083D
:10108A00003A03192028013A03192328033A0319BD
:10109A002928013A03192F28073A031935283B282A
:1010AA00080083120313A400C530A20022089F057A
:1010BA002408A20002300310A20DFF3E031D60287F
:1010CA000310220DA30023089F040D30831203137B
:1010DA00A300FB30A200A20B7028A30B7028831276
:1010EA0003132008031985281F151F197A281E08BB
:1010FA00A100831603131E0883120313A00008001D
:10110A00831603130C17831203130C131F15A00164
:10111A00A101080083120313AB01AC0126082704BE
:10112A000319C828AD01AD0AA71BA728013003106F
:10113A00A60DA70DFF3E031D9C280130AA002A0810
:10114A00AD07992801300310AB0DAC0DFF3E031D0E
:10115A00A82827082902031DB42826082802031CE8
:10116A00BD282608A8022708031CA903A9022B14D4
:10117A0001300310A70CA60CFF3E031DBE28013048
:10118A00AD02031DA7282C08A7002B08A6000800FB
:10119A0083120313A601A401A5010A128A11F620DB
:1011AA000A128A1583120313A2002208A30001302F
:1011BA00A4070318A50A0030A507260820078400FB
:1011CA0021080318210AFF000A128A1100210A12B3
:1011DA008A152306031DF6280130A2002208A60755
:1011EA00F728A60126082007840021080318210AE7
:1011FA00FF000A128A1100210A128A15003A031DF9
:10120A00D2282508A1002408A0000800831203138D
:10121A00AD01AE012D082807AB002908AA00031862
:10122A00AA0AAD1BAA03831203132A08AC002C08CE
:10123A00FF002B0884000A128A1100210A128A155B
:10124A00003A031908002D082807AB002908AA004C
:10125A000318AA0AAD1BAA03831203132A08AC00B7
:10126A002C08FF002B0884000A128A1100210A1296
:10127A008A150A128A1154200A128A150130831219
:10128A000313AD070318AE0A0030AE070F2900306A
:10129A0083120313AC000030AB000030AA00003008
:1012AA00A900201C6C292408A90725080311031882
:1012BA00013E031DAA07260803110318013E031D58
:1012CA00AB07270803110318013E031DAC070130C1
:1012DA00A8000310A40DA50DA60DA70DA80B6E2935
:1012EA0001300310A30CA20CA10CA00CFF3E031D9D
:1012FA0076292308220421042004031D56292C08D8
:10130A00A3002B08A2002A08A1002908A0000800AF
:10131A0083120313A601A31F9929A209A309A20AEA
:10132A000319A30AA601A60AA11FA029A009A109B7
:10133A00A00A0319A10A200821040319CD29A5012D
:10134A00A50AA11BB42901300310A00DA10DFF3E6F
:10135A00031DA9290130A4002408A507A6292108EC
:10136A002302031DBA2920082202031CC2292008CD
:10137A00A2022108031CA303A30201300310A10C3B
:10138A00A00CFF3E031DC3290130A502031DB42989
:10139A0026080319D529A209A309A20A0319A30A2F
:1013AA002308A1002208A00008008316031387154A
:1013BA00071628308312031394008316031391012E
:1013CA00831203133B08BF003C08C0003D08C1005C
:1013DA003E08C20002300310BF0DC00DC10DC20D80
:1013EA00FF3E031DF0294208A3004108A20040085D
:1013FA00A1003F08A0000030A7000030A60003307B
:10140A00A500E830A4000A128A154C210A128A158E
:10141A00831203132308B0002208AF002108AE008C
:10142A002008AD000130B4003130B3002D30B200D5
:10143A000030B1000A128A15E422831203132D0820
:10144A00FF3E831603139300803094000800831232
:10145A000313A601A11F382AA009A109A00A03198A
:10146A00A10AA601A60AA31F432AA209A309A20A3E
:10147A000319A30A0130A4002408A606A701A8019B
:10148A002008210403197A2AA501A50AA11B592AB1
:10149A0001300310A00DA10DFF3E031D4E2A01309D
:1014AA00A4002408A5074B2A01300310A70DA80D94
:1014BA00FF3E031D5A2A21082302031D662A20081B
:1014CA002202031C6F2A2008A2022108031CA3037C
:1014DA00A302271401300310A10CA00CFF3E031D28
:1014EA00702A0130A502031D592A26080319822AE7
:1014FA00A709A809A70A0319A80A2808A100270802
:10150A00A000080083120313A7000130A400660894
:10151A000739013E922A0310A40DFF3E031D902AAB
:10152A002408FF3AA500640884008317651C831306
:10153A002508800527080A128A1539250A128A15EC
:10154A00013083120313A400660CA500A50C250C18
:10155A000739013EB22A0310A40DFF3E031DB02A2B
:10156A002408A600640884008317651C83132608D0
:10157A0080041A3083120313A500F730A400A40BC9
:10158A00C42AA50BC42AC92A013083120313A40052
:10159A00660CA500A50C250C0739013ED62A0310B6
:1015AA00A40DFF3E031DD42A2408FF3AA6006408AE
:1015BA0084008317651C8313260880050800003001
:1015CA0083120313B9000030B8000030B7000030AE
:1015DA00B60030082F042E042D0403193B2BBA0140
:1015EA00BA0AB01B062B0130B5000310AD0DAE0DC3
:1015FA00AF0DB00DB50BFA2A0130B5003508BA07A0
:10160A00F62A0130B5000310B60DB70DB80DB90DA5
:10161A00B50B082B30083402031D1D2B2F0833028B
:10162A00031D1D2B2E083202031D1D2B2D0831020E
:10163A00031C2E2B2D08B1022E08031C2E0FB202FA
:10164A002F08031C2F0FB3023008031C300FB402FB
:10165A00361401300310B00CAF0CAE0CAD0CFF3ECB
:10166A00031D2F2B0130BA02031D062B3908B000C7
:10167A003808AF003708AE003608AD0008008312FC
:10168A000313AB000C30A1008230A2000A168A11A3
:10169A007D270A128A150A128A11F6200A128A1559
:1016AA0083120313A7002708AD0030302D02031C54
:1016BA00502B3A302D020318502BAC012C082B0763
:1016CA00A70027088400831380016F2B3A302D026C
:1016DA0003189A2B0A30A7002708A0002C082B070A
:1016EA00A80028088400831300080A168A117026A5
:1016FA000A128A15831203132D07D03EA9002C085B
:10170A002B07AA002A0884002908831380000A12DA
:10171A008A11F6200A128A1583120313A7002708D2
:10172A00AD0030302D0203186B2B0A128A11F620F5
:10173A000A128A1583120313A7002708AD00013085
:10174A00A7002708AC0704302C02031C632BBD300A
:10175A00A0008230A1000A128A15CD2008000030AC
:10176A000A128A1587220A128A1501300A128A1564
:10177A0087220A128A150C300A128A1587220A123F
:10178A008A1500300A128A1587220A128A15AF3082
:10179A0083120313A8008130A9000A128A150B21AB
:1017AA000A128A15643083120313B2000030B300A0
:1017BA000D3083120313B100AF30B000B530AF0063
:1017CA00AF0BE52BB00BE52BB10BE52BEC2B831202
:1017DA000313061D0800FF30B2070318B30AFF30CF
:1017EA00B30732083304031DDD2B00300A128A15B1
:1017FA0087220A128A1501300A128A1587220A12CA
:10180A008A150C300A128A1587220A128A150030A4
:10181A000A128A1587220A128A1540308312031384
:10182A00A8008230A9000A128A150B210A128A1509
:10183A000D3083120313B100AF30B000B530AF00E2
:10184A00AF0B252CB00B252CB10B252C2C2C08000A
:10185A00E83083120313A6000330A7002F08A9005B
:10186A002E08A8000A128A158F200A128A158312D6
:10187A0003132608303EB100300884003108831370
:10188A0080006430A6000030A7002F08A3002E08AD
:10189A00A200E830A0000330A1000A168A11CC2762
:1018AA000A128A15831203132108A9002008A80026
:1018BA000A128A158F200A128A1583120313260820
:1018CA00303EB100300A84003108831380000A30A8
:1018DA00A6000030A7002F08A3002E08A20064303B
:1018EA00A0000030A1000A168A11CC270A128A1514
:1018FA00831203132108A9002008A8000A128A15D6
:10190A008F200A128A15831203132608303EB1006B
:10191A003008023E84003108831380000A30A00098
:10192A000030A1002F08A3002E08A2000A168A116F
:10193A00CC27831203132008303EB1003008033E3F
:10194A0084003108831380003008043E840080013B
:10195A000800303084000630FF0083138001840AB7
:10196A00FF0BB22C24308400DC3083120313A00056
:10197A000408A1000C30A200200884008313000888
:10198A00A300A00A2108840023088000A10AA20B50
:10199A00C12CB801B80A38080319372D0A128A115E
:1019AA00F6200A128A1583120313A0002008B60033
:1019BA00B9013908A0002007243E840083130008D7
:1019CA00A100840A0008A2003908303E84000008F9
:1019DA002107840022080318220AFF000A128A112A
:1019EA0000210A128A153606031D292D0130A0008E
:1019FA003908303E84002008831380073908223EC4
:101A0A00840081300318013EFF000A128A11002166
:101A1A000A128A15A0003908303E84008313000890
:101A2A002006031D2E2D39081C3E84008130031820
:101A3A00013EFF000A128A1100210A128A15A0002B
:101A4A002008B700B8012E2D3908303E84008313D0
:101A5A0080010130A0002008B907063039020318B6
:101A6A00D02CDE2C3708080083120313A300231C92
:101A7A00532D0130A00067080739013E462D031097
:101A8A00A00DFF3E031D442D2008A1006408840018
:101A9A008317651C831321088004682D0130A00078
:101AAA0067080739013E5B2D0310A00DFF3E031D99
:101ABA00592D2008FF3AA100640884008317651C89
:101ACA00831321088005A31C822D0130A000670C16
:101ADA00A100A10C210C0739013E752D0310A00DA0
:101AEA00FF3E031D732D2008A2006408840083179B
:101AFA00651C8313220880049A2D0130A000670C0C
:101B0A00A100A10C210C0739013E8D2D0310A00D57
:101B1A00FF3E031D8B2D2008FF3AA20064088400B3
:101B2A008317651C831322088005231DB12D0130FC
:101B3A00A00068080739013EA42D0310A00DFF3E3E
:101B4A00031DA22D2008A100640884008317651CC8
:101B5A00831321088004C62D0130A00068080739C4
:101B6A00013EB92D0310A00DFF3E031DB72D20081D
:101B7A00FF3AA100640884008317651C83132108B7
:101B8A008005A31DE02D0130A000680CA100A10C66
:101B9A00210C0739013ED32D0310A00DFF3E031D72
:101BAA00D12D2008A200640884008317651C8313C2
:101BBA002208800408000130A000680CA100A10CD2
:101BCA00210C0739013EEB2D0310A00DFF3E031D2A
:101BDA00E92D2008FF3AA200640884008317651CD7
:101BEA00831322088005080083120313A9000A162A
:101BFA008A110F260A128A15D0300A168A118326EC
:101C0A000A128A1500300A168A1183260A128A15C0
:101C1A000A168A111D260A128A15D1300A168A1145
:101C2A0083260A128A15013083120313A00000309A
:101C3A00A1000A168A11A2270A128A150A128A15FF
:101C4A0005200A128A1583120313A80029088400A2
:101C5A002808831380000130A0000030A1000A1672
:101C6A008A11A2270A128A150A128A1505200A124F
:101C7A008A1583120313A800290A840028088313EB
:101C8A0080000130A0000030A1000A168A11A227A4
:101C9A000A128A150A128A1505200A128A1583124F
:101CAA000313A8002908023E840028088313800031
:101CBA000130A0000030A1000A168A11A2270A12D8
:101CCA008A150A128A1505200A128A158312031325
:101CDA00A8002908033E84002808831380000130E5
:101CEA00A0000030A1000A168A11A2270A128A153A
:101CFA000A128A1505200A128A1583120313A800EC
:101D0A002908043E84002808831380000130A000BB
:101D1A000030A1000A168A11A2270A128A150A128D
:101D2A008A1505200A128A1583120313A8002908A6
:101D3A00053E84002808831380000030A000A1001B
:101D4A000A168A11A2270A128A150A128A1505206A
:101D5A000A128A1583120313A8002908063E840072
:101D6A002808831380000A168A111626080083128F
:101D7A000313CA01CB011A3083120313C9005E3060
:101D8A00C8006D30C700C70BC82EC80BC82EC90BB8
:101D9A00C82ECF2E283084008312031364088313BD
:101DAA008000840A65088000840A66088000840A24
:101DBA0067088000840A680880000A128A110227CC
:101DCA000A128A15003A0319222F00300A128A15BC
:101DDA0087220A128A1501300A128A1587220A12E4
:101DEA008A1508300A128A1587220A128A150130C2
:101DFA000A128A1587220A128A15E83083120313F7
:101E0A00A8008130A9000A128A150B210A128A1524
:101E1A00063083120313C9001330C800AD30C7005F
:101E2A00C70B152FC80B152FC90B152F2E300A12E9
:101E3A008A1154200A128A152A2F01308312031399
:101E4A00CA070318CB0A0030CB070A128A11CE2719
:101E5A000A128A158312031343034404031D3C2FF9
:101E6A002E300A128A1154200A128A154A2F31304A
:101E7A000A128A1154200A128A1501308312031396
:101E8A00CA070318CB0A0030CB070A168A11502654
:101E9A000A128A15C53083120313C70047089F0523
:101EAA000D3083120313C800FB30C700C70B5B2F2A
:101EBA00C80B5B2F831203131F151F19622F0630DD
:101ECA0083120313C9001330C800AD30C700C70B13
:101EDA006C2FC80B6C2FC90B6C2F831603131E08AB
:101EEA00831203131E04031D892F32300A128A112A
:101EFA0054200A128A15013083120313CA070318E1
:101F0A00CB0A0030CB078F2F2E300A128A115420A9
:101F1A000A128A150F308316031386002E300A120E
:101F2A008A1154200A128A150A168A11DA260A1206
:101F3A008A150A168A11AC260A128A15031CAC2FB6
:101F4A002E300A128A1154200A128A15BA2F3330F7
:101F5A000A128A1154200A128A15013083120313B5
:101F6A00CA070318CB0A0030CB0700300A128A15B9
:101F7A0087220A128A1501300A128A1587220A1242
:101F8A008A150C300A128A1587220A128A1500301D
:101F9A000A128A1587220A128A15DB308312031362
:101FAA00A8008130A9000A128A150B210A128A1583
:101FBA00831203134A08303E0A128A1154200A1265
:101FCA008A151A3083120313C9005E30C8006D30B7
:101FDA00C700C70BEE2FC80BEE2FC90BEE2FF52F3C
:101FEA0000300A128A1587220A128A1501300A124B
:061FFA008A158722080091
:102C1E000A168A113B2683160313111408000A168E
:102C2E008A113B2683160313111508000A168A1102
:102C3E003B268316031391140800083400341A340B
:102C4E002C343E34B634023483120313A0000C1E0F
:102C5E002E2E20089900080064008001840A0406C4
:102C6E00031900340406342E8316031314193B2E55
:102C7E0011081F39031908003B2EBD3482347934F4
:102C8E0082349D3482342D3482345F3482346634FF
:102C9E008234FF30831603138500413083120313F1
:102CAE009F00C030831603139F000B178B1708006D
:102CBE007E088A007F0882005F260A168A1180002D
:102CCE00840A04087D0603190034FF0A0319FE0A5C
:102CDE00632E83120313A300A201231C7A2E200855
:102CEE00A1002108A2070310A00D0310A30C2308B6
:102CFE00031D742E2208080083120313A0000A1667
:102D0E008A113B260A168A11831203132008930098
:102D1E0083160313111B952E0310080003140800CD
:102D2E0002300A168A1159270A168A112830831280
:102D3E000313A1008130A2000A168A117D270A16FC
:102D4E008A110A128A15AE240800983083120313D2
:102D5E00A1008230A2000A168A117D270A168A1156
:102D6E000A128A15AE240A168A11013A0319C12EC7
:102D7E000310080003140800373083120313A10058
:102D8E008230A2000A168A117D270A168A110A12AB
:102D9E008A15AE240A168A11013A031D08000A127A
:102DAE008A15AE24080083160313071387170A30FB
:102DBE00990018151812831203139817831603130C
:102DCE0098168312031318168316031318138312FF
:102DDE00031318130800831203130C1F0B2F740810
:102DEE00F0007007BE3E8400831603131E08831383
:102DFE008000840A831203131E0880000130F4073A
:102E0E000318F50A0030F50773088A00720884006B
:102E1E00710E8300FE0E7E0E090083120313AB00AB
:102E2E00A901AA0129082B07A800280884008313EA
:102E3E0000080319080029082B07A8002808840099
:102E4E0000080A128A1154200A168A1101308312C0
:102E5E000313A9070318AA0A0030AA07192F831211
:102E6E000313A401A501201C422F2208A407031856
:102E7E00A50A2308A50701300310A20DA30DFF3EDE
:102E8E00031D432F01300310A10CA00CFF3E031DA8
:102E9E004A2F20082104031D3A2F2508A1002408DB
:102EAE00A000080083120313BA002230A100823062
:102EBE00A2000A168A117D270A168A11831203139D
:102ECE003A08303E0A168A112B260A168A119530B8
:102EDE0083120313A1008230A2000A168A117D27E5
:102EEE000A168A110A128A15AE24080083120313D9
:102EFE002208FF00210884000A128A1100210A16F6
:102F0E008A11003A031908002208FF0021088400E4
:102F1E000A128A1100210A168A110A168A112B2604
:102F2E000A168A11013083120313A1070318A20A8D
:102F3E000030A2077D2F0A168A113B260A168A1127
:102F4E008316031391150A168A113B260A168A1147
:102F5E00831203131308A2002208A3000A168A1173
:102F6E003B260A168A118312031320082104031D1F
:102F7E00C42F831603139116C72F831603139112B2
:102F8E00111683120313230808008312031320085B
:102F9E0021040319FB2FA501A50AA11BE22F013065
:102FAE000310A00DA10DFF3E031DD72F0130A4006D
:102FBE002408A507D42F21082302031DE82F20087B
:102FCE002202031CF02F2008A2022108031CA303D7
:102FDE00A30201300310A10CA00CFF3E031DF12F24
:102FEE000130A502031DE22F2308A1002208A00034
:022FFE000800C9
:02400E007A3FF7
:00000001FF
