:020000040000FA
:060000000A128A110E280D
:10000800FE00030EF1000408F2000A08F3000A16C5
:100018008A11262F0A128A1111288313E830FD004D
:100028001630FE005E30FF00DC3084000A168A11AC
:100038007D260A128A116B30FD001630FE004F3003
:10004800FF00643084000A168A117D260A128A117C
:100058000A168A1138260A128A11F6000A168A1117
:1000680039260A128A11F700831790308400B630B7
:100078000A128A11F8270A128A118313A030840001
:10008800DC300A128A11F8270A128A115A308400C1
:1000980064300A128A11F82783010A128A11C32AC6
:1000A80083120313A7000130A40066080739013E34
:1000B8005F280310A40DFF3E031D5D282408A5003A
:1000C800640884008317651C8313250880042708A7
:1000D800A40004300310A40CFF3E031D6E2824085E
:1000E8000F390A128A1544250A128A11013083121F
:1000F8000313A400660CA500A50C250C0739013EC6
:1001080087280310A40DFF3E031D85282408A60098
:10011800640884008317651C831326088004413013
:1001280083120313A400A40B97289A280130831282
:100138000313A400660CA500A50C250C0739013E85
:10014800A7280310A40DFF3E031DA5282408FF3A85
:10015800A600640884008317651C8313260880059D
:1001680027080F390A128A1544250A128A11013004
:1001780083120313A400660CA500A50C250C0739EF
:10018800013EC8280310A40DFF3E031DC6282408FD
:10019800A600640884008317651C8313260880045E
:1001A800413083120313A400A40BD828DB280130A4
:1001B80083120313A400660CA500A50C250C0739AF
:1001C800013EE8280310A40DFF3E031DE62824087D
:1001D800FF3AA600640884008317651C8313260869
:1001E8008005080083120313981CFC28181218169F
:1001F8008C1EFC281A080800FF1B0A2983137F1885
:1002080083170008840A0319FF0A08007F087F394A
:100218008A000408840A0319FF0A820001340034A2
:100228000A34003464340034E83403341034273496
:1002380001340234033404340534063402340534FA
:100248000434093406340634413454342B344334EA
:1002580057345334413450345F344434453446348D
:100268003D3422345334613466346534673475342C
:1002780061347234643422342C342234533461347B
:1002880066346534673475346134723464342234C6
:100298002C3435342C3433340D340A34003441349E
:1002A80054342B3443344934503453344534523461
:1002B8005634453452343D3431342C3431343034AE
:1002C800303431340D340A340034413454342B344E
:1002D8004334573444344834433450345F3444341A
:1002E800453446343D3430342C3431340D340A34FA
:1002F80000345334743461347234743469346E3471
:100308006734203453346534723476346934633452
:1003180065347334003450345734523420343A340A
:100328002034533461346634653467347534613449
:1003380072346434003453345334493444343A34D2
:100348002034533461346634653467347534613429
:1003580072346434003456344F344C345434413499
:100368004734453420347734613472346E34693418
:100378006E3467340034413454342B3443344934B4
:1003880050344D34553458343D3431340D340A34F6
:100398000034413454342B344334493450345334C6
:1003A80054344134523454343D34223400344534C6
:1003B800523452344F345234203446344F34553446
:1003C8004E3444343D34003449346E346934743422
:1003D800693461346C3469347A3469346E3467341E
:1003E8000034413454342B34433449345034533476
:1003F80045344E3444343D340034413454342B3481
:10040800433457345134413450340D340A340034B1
:10041800413454342B3443344934463453345234FD
:100428000D340A340034413454342B3443345734B3
:100438004A34413450343D34223400344134543445
:100448002B34433457344D344F34443445343D34DD
:1004580000346E346F3420346334683461346E345D
:10046800673465340034413454342B3452345334B3
:1004780054340D340A3400345434653473347434C9
:1004880069346E34673400346E3461346D346534E5
:100498006C3465346E3400347034613473347334BE
:1004A8006C3465346E3400346334743473345F34BC
:1004B8006E346F3400344C3469346E346B346534C4
:1004C8006434003455346E346C3469346E346B34AF
:1004D80000344534723472346F34723400342B343F
:1004E8004934503444342C34003472346534613423
:1004F800643479340034203449343D3420340034B1
:100508006E3461346D34653400347034613473345E
:1005180073340034643461347934733400340D3402
:100528000A340D340A340034413454340D340A3456
:1005380000344634413449344C34003456343D3464
:100548002034003422340D340A34003422342C345C
:100558002234003441345434453400345434433460
:1005680050340034553444345034003422342C345C
:1005780000344F344B34003425347534003483123E
:100588000313DA01DB01DE01DF01DC01DD010030EC
:100598000A128A1592220A128A1101300A128A1541
:1005A80092220A128A110A128A11A7250A128A119E
:1005B800013083120313DA070318DB0A0030DB0764
:1005C800A001A00A00300A128A15A2200A128A1174
:1005D800831203132108E1002008E0006008D20715
:1005E8000318D30A6108D307D801D901831203136A
:1005F800A001A00A58080A128A15A2200A128A1114
:10060800831203135808CF004F07BE3E840020080A
:1006180083138000840A210880005808CF004F0700
:10062800BE3E84000008D000840A0008D1005008AB
:10063800D4070318D50A5108D5070130D80703187D
:10064800D90A0030D9075908803AFF0080307F0264
:10065800031D302B04305802031CFA2A323083124F
:1006680003135A065B04031D652B3230A6000030C5
:10067800A7005308A9005208A8000A128A15DB200F
:100688000A128A11831203132708DF002608DE00E6
:100698003230A6000030A7005508A9005408A80069
:1006A8000A128A15DB200A128A11831203132708FB
:1006B800DD002608DC00D201D301D401D501DA011E
:1006C800DB010230831203136102B73003196002A1
:1006D800031C7F2B0030A400A5000030A600A70053
:1006E8000A128A156B200A128A110A128A15BF2368
:1006F8000A128A11652B86196E2B0530A40000306A
:10070800A5000030A600A7000A128A156B200A125D
:100718008A11D5300A128A1504260A128A11831200
:1007280003135F08B3005E08B2005D08B5005C08FB
:10073800B400D5300A128A1152240A128A1183167B
:100748000313570883120313CF00D0014F08A000EA
:100758005008A1006430A2000030A3000A168A11D4
:100768006A270A128A118316031356088312031381
:100778002007D6000030031801302107D700D80120
:10078800D9016308803ACF005908803A4F02031D07
:10079800CF2B58086202031C482C0630831203131F
:1007A800CF004F08A00058080A168A118A260A1294
:1007B8008A11A03E84008313000883120313D0001B
:1007C800840A0008D10051085702031DED2B500878
:1007D8005602031C222C0630CF004F08A0005808F0
:1007E8000A168A118A260A128A11A23E84008313E5
:1007F800000883120313D000840A0008D1005708A8
:100808005102031D092C56085002031C222C0630E5
:10081800CF004F08A00058080A168A118A260A1223
:100828008A11A43E84008313000883120313A400D2
:10083800840A0008A5000030A600392C0630CF0035
:100848004F08A00058080A168A118A260A128A1127
:10085800A43E84008313000883120313A400840AAF
:100868000008A5000130A6000030A7000A128A156A
:100878006B200A128A11013083120313D807031858
:10088800D90A0030D907C52B831203138618DC2A2E
:100898000A128A15C7260A128A11DC2A8312031340
:1008A800C7000A30A0000030A10047088400831365
:1008B8000008B600B7013608A2003708A3000A12DC
:1008C8008A1598210A128A11831203132008303ED0
:1008D800B8003808BD000A30A0000030A100470861
:1008E800840083130008B600B7013608A200370851
:1008F800A3000A128A1537220A128A1183120313D7
:100908002008303EB8003808BE000A30A000003089
:10091800A100470A840083130008B600B70136080F
:10092800A2003708A3000A128A1598210A128A1110
:10093800831203132008303EB8003808BF000A307D
:10094800A0000030A100470A840083130008B60005
:10095800B7013608A2003708A3000A128A15372201
:100968000A128A11831203132008303EB80038088F
:10097800C0000A30A0000030A1004708023E8400F1
:1009880083130008B600B7013608A2003708A30091
:100998000A128A1598210A128A1183120313200851
:1009A800303EB8003808C1000A30A0000030A1006D
:1009B8004708023E840083130008B600B7013608D2
:1009C800A2003708A3000A128A1537220A128A11D0
:1009D800831203132008303EB8003808C2000830DC
:1009E8000A128A1592220A128A1100300A128A15EE
:1009F80092220A128A118312031342080A128A11D8
:100A080054200A128A118312031341080A128A1108
:100A180054200A128A113A300A128A1154200A12F2
:100A28008A118312031340080A128A1154200A12E9
:100A38008A11831203133F080A128A1154200A12DA
:100A48008A113A300A128A1154200A128A11831222
:100A580003133E080A128A1154200A128A118312BB
:100A680003133D080A128A1154200A128A110A3007
:100A780083120313A6000030A7003308B70032081A
:100A8800B6000310B60DB70D0310B60DB70D360836
:100A9800A8003708A9000A128A15DB200A128A1151
:100AA800831203132708BA002608B9003A08AF00D2
:100AB8003908AE004330B6003608B0000A128A156D
:100AC80038240A128A110C300A128A1592220A1244
:100AD8008A1100300A128A1592220A128A11A2304B
:100AE80083120313A8008230A9000A128A1557211D
:100AF8000A128A1143300A168A1148270A128A11E3
:100B0800831203133508BC003408BB003C08AF004F
:100B18003B08AE004330B6003608B0000A128A150A
:100B280038240A128A117F3083120313A8008230F6
:100B3800A9000A128A1557210A128A1143300A1687
:100B48008A114827080083120313CA01CB011A30FF
:100B580083120313C9005E30C8006D30C700C70B8D
:100B6800B32DC80BB32DC90BB32DBA2D2830840073
:100B780083120313640883138000840A65088000C5
:100B8800840A66088000840A67088000840A680866
:100B980080000A128A11EB260A128A11003A0319F8
:100BA8000D2E00300A128A1592220A128A1101307B
:100BB8000A128A1592220A128A1108300A128A1514
:100BC80092220A128A1101300A128A1592220A12F6
:100BD8008A11E83083120313A8008130A9000A1291
:100BE8008A1557210A128A11063083120313C90085
:100BF8001330C800AD30C700C70B002EC80B002E3D
:100C0800C90B002E2E300A128A1154200A128A119A
:100C1800152E013083120313CA070318CB0A0030BC
:100C2800CB070A128A1509200A128A1183120313A4
:100C380043034404031D272E2E300A128A11542020
:100C48000A128A11352E31300A128A1154200A12DA
:100C58008A11013083120313CA070318CB0A003024
:100C6800CB070A168A116A260A128A11C53083121E
:100C78000313C70047089F050D3083120313C800EC
:100C8800FB30C700C70B462EC80B462E8312031332
:100C98001F151F194D2E063083120313C900133078
:100CA800C800AD30C700C70B572EC80B572EC90B4D
:100CB800572E831603131E08831203131E04031DE5
:100CC800742E32300A128A1154200A128A11013005
:100CD80083120313CA070318CB0A0030CB077A2EF6
:100CE8002E300A128A1154200A128A110F308316E4
:100CF800031386002E300A128A1154200A128A1110
:100D08000A168A11F4260A128A110A168A11C626A8
:100D18000A128A11031C972E2E300A128A115420A7
:100D28000A128A11A52E33300A128A1154200A1287
:100D38008A11013083120313CA070318CB0A003043
:100D4800CB0700300A128A1592220A128A11013042
:100D58000A128A1592220A128A110C300A128A156E
:100D680092220A128A1100300A128A1592220A1255
:100D78008A11DB3083120313A8008130A9000A12FC
:100D88008A1557210A128A11831203134A08303E22
:100D98000A128A1154200A128A111A308312031374
:100DA800C9005E30C8006D30C700C70BD92EC80B0C
:100DB800D92EC90BD92EE02E00300A128A1592229C
:100DC8000A128A1101300A128A1592220800643028
:100DD800840083120313280883138000840A2908D7
:100DE8008000840A2A088000840A2B088000840A6C
:100DF8002C08800000306506031D042F05306406AA
:100E0800031D0A2F8316031385013C2F0030650646
:100E1800031D102F06306406031D162F83160313B7
:100E280086013C2F00306506031D1C2F0730640621
:100E3800031D222F8316031387013C2F00306506FC
:100E4800031D282F08306406031D2E2F8316031355
:100E580088013C2F00306506031D342F09306406D5
:100E6800031D3A2F8316031389013C2F0030080015
:100E7800823083120313AE00DD30AD00AD0B422F7C
:100E8800AE0B422F03300A128A1592220A128A11D7
:100E9800213083120313AE007530AD00AD0B522F15
:100EA800AE0B522F572F03300A128A1592220A12BC
:100EB8008A11683083120313AE00E330AD00AD0B26
:100EC800632FAE0B632F682F03300A128A15922204
:100ED8000A128A1102300A128A1592220A128A11FB
:100EE80002300A128A1592220A128A1108300A124E
:100EF8008A1592220A128A1100300A128A15922241
:100F08000A128A1106300A128A1592220A128A11C6
:100F1800083083120313AD002D08AF002F152F08DA
:100F2800AD0004300310AD0CFF3E031D962F2D08B5
:100F38000F390A128A1592220A128A118312031390
:100F48002F080F390A128A1592220A128A110030C4
:100F58000A128A1592220A128A1101300A128A1577
:100F6800922201300800003083120313AC000030D5
:100F7800AB000030AA000030A900201CD72F24089D
:100F8800A907250803110318013E031DAA0726080F
:100F980003110318013E031DAB07270803110318AB
:100FA800013E031DAC070130A8000310A40DA50DD8
:100FB800A60DA70DA80BD92F01300310A30CA20C66
:100FC800A10CA00CFF3E031DE12F230822042104DD
:100FD8002004031DC12F2C08A3002B08A2002A08F7
:100FE800A1002908A000080064008001840A040602
:100FF800031900340406F92F831603131419002863
:1010080011081F3903190800002800308312031340
:10101800BE000030BD000030BC006430BB000A12C6
:101028008A15E5210A128A150A168A113A260A1221
:101038008A15D1300A168A119D260A128A150A16AF
:101048008A114126031083160313111F031400305D
:101058000318013083120313C500C6014508C300F5
:101068004608C4000800831203132008210403194A
:101078006628A501A50AA11B4D2801300310A00D63
:10108800A10DFF3E031D42280130A4002408A50736
:101098003F2821082302031D532820082202031C8D
:1010A8005B282008A2022108031CA303A302013025
:1010B8000310A10CA00CFF3E031D5C280130A50203
:1010C800031D4D282308A1002208A0000800892834
:1010D8000F3086000800260C031C0612031806169B
:1010E8000800260C031C8612031886160800260C16
:1010F800031C0613031806170800260C031C861386
:1011080003188617080086010800831203132508B0
:10111800003A0319902887282408003A03196C28F4
:10112800013A03196F28033A03197528013A03197C
:101138007B28073A0319812887280800831203139C
:10114800A400C530A20022089F052408A20002308E
:101158000310A20DFF3E031DAC280310220DA300AF
:1011680023089F040D3083120313A300FB30A20051
:10117800A20BBC28A30BBC28831203132008031955
:10118800D1281F151F19C6281E08A100831603138E
:101198001E0883120313A0000800831603130C17FC
:1011A800831203130C131F15A001A1010800831259
:1011B8000313AB01AC012608270403191429AD0158
:1011C800AD0AA71BF32801300310A60DA70DFF3E9B
:1011D800031DE8280130AA002A08AD07E5280130D8
:1011E8000310AB0DAC0DFF3E031DF42827082902A0
:1011F800031D002926082802031C09292608A8021D
:101208002708031CA903A9022B1401300310A70CFB
:10121800A60CFF3E031D0A290130AD02031DF32869
:101228002C08A7002B08A600080083120313A601A8
:10123800A401A5010A128A11F6200A128A1583123E
:101248000313A2002208A3000130A4070318A50A6B
:101258000030A50726082007840021080318210A62
:10126800FF000A128A1100210A128A152306031D9B
:1012780042290130A2002208A6074329A601260810
:101288002007840021080318210AFF000A128A1186
:1012980000210A128A15003A031D1E292508A100FB
:1012A8002408A000080083120313AD01AE012D0825
:1012B8002807AB002908AA000318AA0AAD1BAA032D
:1012C800831203132A08AC002C08FF002B088400A3
:1012D8000A128A1100210A128A15003A0319080015
:1012E8002D082807AB002908AA000318AA0AAD1B75
:1012F800AA03831203132A08AC002C08FF002B084A
:1013080084000A128A1100210A128A150A128A1107
:1013180054200A128A15013083120313AD070318EB
:10132800AE0A0030AE075B2983120313A601A31F80
:10133800A429A209A309A20A0319A30AA601A60AB5
:10134800A11FAB29A009A109A00A0319A10A200815
:1013580021040319D829A501A50AA11BBF29013019
:101368000310A00DA10DFF3E031DB4290130A400F8
:101378002408A507B12921082302031DC52920082F
:101388002202031CCD292008A2022108031CA30362
:10139800A30201300310A10CA00CFF3E031DCE29AF
:1013A8000130A502031DBF2926080319E029A20957
:1013B800A309A20A0319A30A2308A1002208A0006E
:1013C80008008316031387150716283083120313A2
:1013D8009400831603139101831203133B08BF0083
:1013E8003C08C0003D08C1003E08C200023003109E
:1013F800BF0DC00DC10DC20DFF3E031DFB294208E4
:10140800A3004108A2004008A1003F08A000003046
:10141800A7000030A6000330A500E830A4000A1297
:101428008A11B7270A128A15831203132308B000FA
:101438002208AF002108AE002008AD000130B4003A
:101448003130B3002D30B2000030B1000A128A15D5
:10145800EF22831203132D08FF3E83160313930014
:1014680080309400080083120313A601A11F432AA9
:10147800A009A109A00A0319A10AA601A60AA31F87
:101488004E2AA209A309A20A0319A30A0130A4003B
:101498002408A606A701A801200821040319852A03
:1014A800A501A50AA11B642A01300310A00DA10DF6
:1014B800FF3E031D592A0130A4002408A507562A17
:1014C80001300310A70DA80DFF3E031D652A210852
:1014D8002302031D712A20082202031C7A2A2008ED
:1014E800A2022108031CA303A3022714013003103E
:1014F800A10CA00CFF3E031D7B2A0130A502031D91
:10150800642A260803198D2AA709A809A70A031916
:10151800A80A2808A1002708A000080083120313BE
:10152800A7000130A40066080739013E9D2A031070
:10153800A40DFF3E031D9B2A2408FF3AA50064085A
:1015480084008317651C83132508800527080A1261
:101558008A1544250A128A15013083120313A40040
:10156800660CA500A50C250C0739013EBD2A031001
:10157800A40DFF3E031DBB2A2408A60064088400AE
:101588008317651C8313260880041A3083120313FB
:10159800A500F730A400A40BCF2AA50BCF2AD42A84
:1015A800013083120313A400660CA500A50C250CBA
:1015B8000739013EE12A0310A40DFF3E031DDF2A6F
:1015C8002408FF3AA600640884008317651C831367
:1015D800260880050800003083120313B900003084
:1015E800B8000030B7000030B60030082F042E04D1
:1015F8002D040319462BBA01BA0AB01B112B01306E
:10160800B5000310AD0DAE0DAF0DB00DB50B052B2C
:101618000130B5003508BA07012B0130B5000310B9
:10162800B60DB70DB80DB90DB50B132B3008340234
:10163800031D282B2F083302031D282B2E083202E6
:10164800031D282B2D083102031C392B2D08B1024C
:101658002E08031C2E0FB2022F08031C2F0FB302F3
:101668003008031C300FB402361401300310B00CDC
:10167800AF0CAE0CAD0CFF3E031D3A2B0130BA0285
:10168800031D112B3908B0003808AF003708AE0029
:101698003608AD00080083120313AB000C30A1001C
:1016A8008230A2000A168A11B1270A128A150A1274
:1016B8008A11F6200A128A1583120313A700270835
:1016C800AD0030302D02031C5B2B3A302D0203187D
:1016D8005B2BAC012C082B07A70027088400831379
:1016E80080017A2B3A302D020318A52B0A30A70067
:1016F8002708A0002C082B07A800280884008313BB
:1017080000080A168A118A260A128A1583120313F8
:101718002D07D03EA9002C082B07AA002A08840010
:101728002908831380000A128A11F6200A128A15E2
:1017380083120313A7002708AD0030302D020318C9
:10174800762B0A128A11F6200A128A1583120313BD
:10175800A7002708AD000130A7002708AC07043010
:101768002C02031C6E2BBD30A0008230A1000A128F
:101778008A151921080000300A128A1592220A12C5
:101788008A1501300A128A1592220A128A150C301B
:101798000A128A1592220A128A1500300A128A152C
:1017A80092220A128A15AF3083120313A8008130DF
:1017B800A9000A128A1557210A128A156430831261
:1017C8000313B2000030B3000D3083120313B100CD
:1017D800AF30B000B530AF00AF0BF02BB00BF02B33
:1017E800B10BF02BF72B83120313061D0800FF30F3
:1017F800B2070318B30AFF30B30732083304031DD6
:10180800E82B00300A128A1592220A128A15013032
:101818000A128A1592220A128A150C300A128A159F
:1018280092220A128A1500300A128A1592220A1286
:101838008A15403083120313A8008230A9000A12C7
:101848008A1557210A128A150D3083120313B10025
:10185800AF30B000B530AF00AF0B302CB00B302C30
:10186800B10B302C372C0800E83083120313A60084
:101878000330A7002F08A9002E08A8000A128A150D
:10188800DB200A128A15831203132608303EB100A2
:10189800300884003108831380006430A6000030CB
:1018A800A7002F08A3002E08A200E830A0000330EC
:1018B800A1000A128A1537200A128A158312031307
:1018C8002108A9002008A8000A128A15DB200A129C
:1018D8008A15831203132608303EB100300A8400AB
:1018E8003108831380000A30A6000030A7002F08B3
:1018F800A3002E08A2006430A0000030A1000A1244
:101908008A1537200A128A15831203132108A900A1
:101918002008A8000A128A15DB200A128A158312E9
:1019280003132608303EB1003008023E8400310817
:10193800831380000A30A0000030A1002F08A30004
:101948002E08A2000A128A153720831203132008D2
:10195800303EB1003008033E840031088313800014
:101968003008043E840080010800303084000630CE
:10197800FF0083138001840AFF0BBD2C24308400F0
:10198800DC3083120313A0000408A1000C30A2006D
:101998002008840083130008A300A00A21088400FB
:1019A80023088000A10AA20BCC2CB801B80A380879
:1019B8000319422D0A128A11F6200A128A15831277
:1019C8000313A0002008B600B9013908A0002007B9
:1019D800243E840083130008A100840A0008A200A2
:1019E8003908303E840000082107840022080318C3
:1019F800220AFF000A128A1100210A128A153606E5
:101A0800031D342D0130A0003908303E8400200821
:101A1800831380073908223E840081300318013E71
:101A2800FF000A128A1100210A128A15A00039083B
:101A3800303E8400831300082006031D392D390821
:101A48001C3E840081300318013EFF000A128A11EF
:101A580000210A128A15A0002008B700B801392D04
:101A68003908303E8400831380010130A00020082B
:101A7800B907063039020318DB2CE92C37080800AF
:101A880083120313A300231C5E2D0130A0006708F6
:101A98000739013E512D0310A00DFF3E031D4F2DA8
:101AA8002008A100640884008317651C831321089B
:101AB8008004732D0130A00067080739013E662DA8
:101AC8000310A00DFF3E031D642D2008FF3AA1005E
:101AD800640884008317651C831321088005A31CF0
:101AE8008D2D0130A000670CA100A10C210C073935
:101AF800013E802D0310A00DFF3E031D7E2D200802
:101B0800A200640884008317651C831322088004DC
:101B1800A52D0130A000670CA100A10C210C0739EC
:101B2800013E982D0310A00DFF3E031D962D2008A1
:101B3800FF3AA200640884008317651C83132208F7
:101B48008005231DBC2D0130A00068080739013E1F
:101B5800AF2D0310A00DFF3E031DAD2D2008A100E1
:101B6800640884008317651C831321088004D12D21
:101B78000130A00068080739013EC42D0310A00DEC
:101B8800FF3E031DC22D2008FF3AA100640884000F
:101B98008317651C831321088005A31DEB2D0130D5
:101BA800A000680CA100A10C210C0739013EDE2D14
:101BB8000310A00DFF3E031DDC2D2008A2006408C1
:101BC80084008317651C83132208800408000130F1
:101BD800A000680CA100A10C210C0739013EF62DCC
:101BE8000310A00DFF3E031DF42D2008FF3AA200AC
:101BF800640884008317651C831322088005080085
:101C080083120313A9000A168A113A260A128A15A2
:101C1800D0300A168A119D260A128A1500300A1633
:101C28008A119D260A128A150A168A1148260A124E
:101C38008A15D1300A168A119D260A128A15013092
:101C480083120313A0000030A1000A168A11D627B8
:101C58000A128A150A168A110C270A128A15831283
:101C68000313A80029088400280883138000013082
:101C7800A0000030A1000A168A11D6270A128A1578
:101C88000A168A110C270A128A1583120313A80050
:101C9800290A84002808831380000130A00000303E
:101CA800A1000A168A11D6270A128A150A168A115D
:101CB8000C270A128A1583120313A8002908023E6A
:101CC80084002808831380000130A0000030A100A0
:101CD8000A168A11D6270A128A150A168A110C279B
:101CE8000A128A1583120313A8002908033E8400E8
:101CF8002808831380000130A0000030A1000A16D4
:101D08008A11D6270A128A150A168A110C270A126E
:101D18008A1583120313A8002908043E84002808A2
:101D2800831380000130A0000030A1000A168A1138
:101D3800D6270A128A150A168A110C270A128A153A
:101D480083120313A8002908053E8400280883137A
:101D580080000030A000A1000A168A11D6270A12B6
:101D68008A150A168A110C270A128A158312031378
:101D7800A8002908063E84002808831380000A1654
:101D88008A114126080008300A128A1592220A127E
:101D98008A1500300A128A1592220A128A159F3073
:101DA80083120313A8008130A9000A128A1557214B
:101DB8000A128A150C300A128A1592220A128A15FA
:101DC80000300A128A1592220A128A158F3083125D
:101DD8000313A8008130A9000A128A1557210A1294
:101DE8008A150D3083120313BD00AF30BC00B53027
:101DF800BB00BB0BFD2EBC0BFD2EBD0BFD2E042F17
:101E080000300A128A1592220A128A1501300A1223
:101E18008A1592220A128A1508300A128A15922205
:101E28000A128A1500300A128A1592220A128A1595
:101E38000A168A11DD260A128A150A168A11B1268F
:101E48000A128A15693083120313A1008130A20097
:101E58000A168A11B1270A128A150A128A15B92494
:101E68000A128A15013A031D3B2F6F303C2F65304B
:101E78000A128A1154200A128A1547300A128A1542
:101E88004F230A128A15BF3083120313A100813031
:101E9800A2000A168A11B1270A128A150A128A158F
:101EA800B9240A128A15013A031D5C2F6F305D2F81
:101EB80065300A128A1154200A128A155330831287
:101EC8000313A1008130A2000A168A11B1270A1251
:101ED8008A150A128A15B9240A128A15013A031DAD
:101EE800772F6F30782F65300A128A1154200A1222
:101EF8008A151A3083120313BD005E30BC006D30A2
:101F0800BB00BB0B852FBC0B852FBD0B852F8C2FE2
:101F180000300A128A1592220A128A1501300A1212
:101F28008A1592220A128A1508300A128A159222F4
:101F38000A128A1500300A128A1592220A128A1584
:101F480068300A128A1154200A128A1573308312D3
:101F58000313A0008230A1000A128A1519210A125F
:101F68008A150A128A11F6200A128A158312031397
:101F7800BB003B08CC002C304C06031DB52F0A12C1
:101F88008A11F6200A128A15D03E83120313BB0069
:101F98003B08CB000A128A11F6200A128A1583120E
:101FA8000313BB003B08CC003A304C06031DCE2F70
:101FB800CD01CE01CD01CE014E08803ABB00803064
:101FC8003B02031DE92F4B084D0203188C2F0A1200
:101FD8008A11F6200A128A1583120313BB004D08D2
:101FE8003E3E84003B08831380000130CD07031870
:081FF800CE0A0030CE07E02FF5
:102C7000C83400340A128A15002083160313111475
:102C800008000A128A150020831603131115080084
:102C90000A128A15002083160313911408000834C1
:102CA00000341A342C343E34B63402348312031305
:102CB000A0000C1E592E200899000800BD34823453
:102CC000793482349D3482342D3482345F348234BA
:102CD00066348234FF30831603138500413083123B
:102CE00003139F00C030831603139F000B178B172D
:102CF00008007E088A007F08820079260A168A1159
:102D00008000840A04087D0603190034FF0A0319B1
:102D1000FE0A7D2E83120313A300A201231C942E0E
:102D20002008A1002108A2070310A00D0310A30C86
:102D30002308031D8E2E2208080083120313A0000F
:102D40000A128A1500200A168A118312031320081A
:102D5000930083160313111BAF2E031008000314F6
:102D6000080002300A168A118D270A168A112830A7
:102D700083120313A1008130A2000A168A11B12721
:102D80000A168A110A128A15B9240800983083128B
:102D90000313A1008230A2000A168A11B1270A1675
:102DA0008A110A128A15B9240A168A11013A0319DE
:102DB000DB2E0310080003140800373083120313BE
:102DC000A1008230A2000A168A11B1270A168A11C0
:102DD0000A128A15B9240A168A11013A031D08003D
:102DE0000A128A15B92408008316031307138717DC
:102DF0000A309900181518128312031398178316B6
:102E0000031398168312031318168316031318134B
:102E1000831203131813080083120313A7000F3043
:102E20002705A4000A30A5002508A0002708A60051
:102E300004300310A60CFF3E031D192F26080A16A6
:102E40008A118A26831203132407080083120313AE
:102E50000C1F3F2F7408F0007007BE3E84008316DD
:102E600003131E0883138000840A831203131E08B1
:102E700080000130F4070318F50A0030F5077308E5
:102E80008A0072088400710E8300FE0E7E0E090017
:102E900083120313AB00A901AA0129082B07A8007C
:102EA00028088400831300080319080029082B0749
:102EB000A8002808840000080A128A1154200A1663
:102EC0008A11013083120313A9070318AA0A0030DC
:102ED000AA074D2F83120313A401A501201C762FEE
:102EE0002208A4070318A50A2308A5070130031028
:102EF000A20DA30DFF3E031D772F01300310A10C7F
:102F0000A00CFF3E031D7E2F20082104031D6E2F01
:102F10002508A1002408A000080083120313BA00AA
:102F20002230A1008230A2000A168A11B1270A16A7
:102F30008A11831203133A08303E0A168A11562664
:102F40000A168A11953083120313A1008230A20061
:102F50000A168A11B1270A168A110A128A15B9248B
:102F60000800831203132208FF00210884000A12BC
:102F70008A1100210A168A11003A03190800220852
:102F8000FF00210884000A128A1100210A168A1102
:102F90000A168A1156260A168A1101308312031363
:102FA000A1070318A20A0030A207B12F0A128A153E
:102FB00000200A168A118316031391150A128A1526
:102FC00000200A168A11831203131308A200220894
:102FD000A3000A128A1500200A168A11831203130D
:102FE00020082104031DF82F831603139116FB2FCD
:102FF000831603139112111683120313230808007A
:02400E007A3FF7
:00000001FF
