:020000040000FA
:060000000A128A110E280D
:10000800FE00030EF1000408F2000A08F3000A16C5
:100018008A11262F0A128A1111288313E230FD0053
:100028001630FE005E30FF00D63084000A168A11B2
:100038007D260A128A116E30FD001630FE00463009
:10004800FF00673084000A168A117D260A128A1179
:100058000A168A112F260A128A11F6000A168A1120
:1000680030260A128A11F700831790308400B630C0
:100078000A128A11F8270A128A118313A030840001
:10008800D6300A128A11F8270A128A1157308400CA
:1000980067300A128A11F82783010A128A11C32AC3
:1000A800FF0000308A007F08820759280A128A1543
:1000B800002883120313A7000130A4006908073938
:1000C800013E68280310A40DFF3E031D662824087E
:1000D800A500670884008317681C8313250880041B
:1000E8002708A40004300310A40CFF3E031D772842
:1000F80024080F390A128A1545250A128A11013077
:1001080083120313A400690CA500A50C250C07395C
:10011800013E90280310A40DFF3E031D8E282408DD
:10012800A600670884008317681C831326088004C8
:10013800413083120313A400A40BA028A328013084
:1001480083120313A400690CA500A50C250C07391C
:10015800013EB0280310A40DFF3E031DAE2824085D
:10016800FF3AA600670884008317681C83132608D3
:10017800800527080F390A128A1545250A128A119F
:10018800013083120313A400690CA500A50C250CEB
:100198000739013ED1280310A40DFF3E031DCF28C7
:1001A8002408A600670884008317681C83132608A0
:1001B8008004413083120313A400A40BE128E4282F
:1001C800013083120313A400690CA500A50C250CAB
:1001D8000739013EF1280310A40DFF3E031DEF2847
:1001E8002408FF3AA600670884008317681C831355
:0601F80026088005080046
:10020000FF1B0A2983137F1883170008840A031928
:10021000FF0A08007F087F398A000408840A03194E
:10022000FF0A8200013400340A340034643400349C
:10023000E8340334103427340134023403340434F2
:1002400005340634023405340434093406340634E3
:10025000413454342B3443345734533441345034C0
:100260005F344434453446343D34223453346134AD
:1002700066346534673475346134723464342234DE
:100280002C34223453346134663465346734753425
:1002900061347234643422342C3435342C343334A5
:1002A0000D340A340034413454342B34433449344B
:1002B00050345334453452345634453452343D343A
:1002C00031342C3431343034303431340D340A3458
:1002D0000034413454342B34433457344434483498
:1002E000433450345F344434453446343D34303440
:1002F0002C3431340D340A340034533474346134C2
:100300007234743469346E34673420345334653451
:100310007234763469346334653473340034503461
:100320005734523420343A342034533461346634F0
:100330006534673475346134723464340034533452
:100340005334493444343A342034533461346634B9
:10035000653467347534613472346434003456342F
:100360004F344C345434413447344534203477349A
:10037000613472346E3469346E346734003441341D
:1003800054342B344334493450344D345534583478
:100390003D3431340D340A340034413454342B3478
:1003A0004334493450345334543441345234543443
:1003B0003D34223400344534523452344F345234B4
:1003C000203446344F3455344E3444343D340034B4
:1003D00049346E3469347434693461346C3469344A
:1003E0007A3469346E3467340034413454342B34F5
:1003F000433449345034533445344E3444343D341A
:100400000034413454342B34433457345134413460
:1004100050340D340A340034413454342B344334D2
:1004200049344634533452340D340A3400344134A0
:1004300054342B34433457344A34413450343D34EB
:1004400022340034413454342B34433457344D3443
:100450004F34443445343D3400346E346F342034EA
:100460006334683461346E34673465340034413445
:1004700054342B345234533454340D340A3400344D
:10048000543465347334743469346E3467340034EE
:100490006E3461346D3465346C3465346E340034DC
:1004A00070346134733473346C3465346E340034B6
:1004B0006334743473345F346E346F3400344C34CA
:1004C00069346E346B3465346434003455346E34BE
:1004D0006C3469346E346B340034453472347234A5
:1004E0006F34723400342B344934503444342C3457
:1004F0000034723465346134643479340034203427
:1005000049343D34203400346E3461346D34653404
:1005100000347034613473347334003464346134BF
:100520007934733400340D340A340D340A34003411
:10053000413454340D340A3400344634413449349F
:100540004C34003456343D342034003422340D34DD
:100550000A34003422342C342234003441345434EC
:100560004534003454344334503400345534443426
:100570005034003422342C3400344F344B340034A3
:1005800025347534003483120313DD01DE01E101EB
:10059000E201DF01E00100300A128A1593220A12FB
:1005A0008A1101300A128A1593220A128A110A123C
:1005B0008A11A7250A128A11013083120313DD075D
:1005C0000318DE0A0030DE07A001A00A00300A127C
:1005D0008A15A3200A128A11831203132108E4004A
:1005E0002008E3006308CF070318D00A6408D00787
:1005F000D501D60183120313A001A00A55080A12DF
:100600008A15A3200A128A11831203135508CC00FD
:100610004C07573E8400200883138000840A210879
:1006200080005508CC004C07573E84000008CD00E0
:10063000840A0008CE004D08D1070318D20A4E08DC
:10064000D2070130D5070318D60A0030D60756085E
:10065000803AFF0080307F02031D302B04305502AA
:10066000031CFA2A3230831203135D065E04031D55
:10067000652B3230A6000030A7005008A9004F08B3
:10068000A8000A128A15DC200A128A1183120313A9
:100690002708E2002608E1003230A6000030A7005B
:1006A0005208A9005108A8000A128A15DC200A1273
:1006B0008A11831203132708E0002608DF00CF0108
:1006C000D001D101D201DD01DE010230831203131A
:1006D0006402B73003196302031C7F2B0030A400AF
:1006E000A5000030A600A7000A128A156C200A1285
:1006F0008A110A128A15C0230A128A11652B8619DB
:100700006E2B0530A4000030A5000030A600A70025
:100710000A128A156C200A128A11CF300A128A1521
:1007200005260A128A11831203136208B3006108B6
:10073000B2006008B5005F08B400CF300A128A1119
:1007400052240A128A1183160313510883120313C9
:10075000CC00CD014C08A0004D08A1006430A200DF
:100760000030A3000A168A116A270A128A1183161A
:1007700003135008831203132007D300003003181B
:1007800001302107D400D501D6016608803ACC009B
:100790005608803A4C02031DCF2B55086502031CF6
:1007A000482C063083120313CC004C08A0005508D7
:1007B0000A168A118A260A128A11A03E840083131F
:1007C000000883120313CD00840A0008CE004E08EF
:1007D0005402031DED2B4D085302031C222C06303E
:1007E000CC004C08A00055080A168A118A260A1265
:1007F0008A11A23E84008313000883120313CD00E4
:10080000840A0008CE0054084E02031D092C530828
:100810004D02031C222C0630CC004C08A0005508C9
:100820000A168A118A260A128A11A43E84008313AA
:10083000000883120313A400840A0008A5000030F6
:10084000A600392C0630CC004C08A00055080A162A
:100850008A118A260A128A11A43E84008313000892
:1008600083120313A400840A0008A5000130A60027
:100870000030A7000A128A156C200A128A11013072
:1008800083120313D5070318D60A0030D607C52BE9
:10089000831203138618DC2A0A128A15C8260A1244
:1008A0008A11DC2A83120313C7000A30A00000302B
:1008B000A1004708840083130008B600B70136087A
:1008C000A2003708A3000A128A1599210A128A1178
:1008D000831203132008303EB8003808BD000A30E8
:1008E000A0000030A1004708840083130008B60070
:1008F000B7013608A2003708A3000A128A15382269
:100900000A128A11831203132008303EB8003808F7
:10091000BE000A30A0000030A100470A8400831303
:100920000008B600B7013608A2003708A3000A1273
:100930008A1599210A128A11831203132008303E66
:10094000B8003808BF000A30A0000030A100470AF4
:10095000840083130008B600B7013608A2003708E8
:10096000A3000A128A1538220A128A11831203136D
:100970002008303EB8003808C0000A30A00000301F
:10098000A1004708023E840083130008B600B701A7
:100990003608A2003708A3000A128A1599210A1204
:1009A0008A11831203132008303EB8003808C100B2
:1009B0000A30A0000030A1004708023E84008313E3
:1009C0000008B600B7013608A2003708A3000A12D3
:1009D0008A1538220A128A11831203132008303E26
:1009E000B8003808C20008300A128A1593220A1289
:1009F0008A1100300A128A1593220A128A11831270
:100A0000031342080A128A115D200A128A11831206
:100A1000031341080A128A115D200A128A113A3022
:100A20000A128A115D200A128A11831203134008E8
:100A30000A128A115D200A128A11831203133F08D9
:100A40000A128A115D200A128A113A300A128A119A
:100A50005D200A128A11831203133E080A128A11BA
:100A60005D200A128A11831203133D080A128A11AB
:100A70005D200A128A110A3083120313A600003087
:100A8000A7003308B7003208B6000310B60DB70D43
:100A90000310B60DB70D3608A8003708A9000A12D2
:100AA0008A15DC200A128A11831203132708BA0060
:100AB0002608B9003A08AF003908AE004330B60046
:100AC0003608B0000A128A1539240A128A110C302D
:100AD0000A128A1593220A128A1100300A128A1504
:100AE00093220A128A11A23083120313A8008230C3
:100AF000A9000A128A1558210A128A1143300A16CF
:100B00008A1148270A128A11831203133508BC0080
:100B10003408BB003C08AF003B08AE004330B600D1
:100B20003608B0000A128A1539240A128A117F3059
:100B300083120313A8008230A9000A128A155821D3
:100B40000A128A1143300A168A11482708008312B4
:100B50000313CA01CB011A3083120313C9005E309C
:100B6000C8006D30C700C70BB32DC80BB32DC90B20
:100B7000B32DBA2D28308400831203136708831322
:100B80008000840A68088000840A69088000840A5A
:100B90006A088000840A6B0880000A128A11EB261A
:100BA0000A128A11003A03190D2E00300A128A1512
:100BB00093220A128A1101300A128A1593220A120C
:100BC0008A1108300A128A1593220A128A110130FA
:100BD0000A128A1593220A128A11E830831203132B
:100BE000A8008130A9000A128A1558210A128A1118
:100BF000063083120313C9001330C800AD30C7009C
:100C0000C70B002EC80B002EC90B002E2E300A1267
:100C10008A115D200A128A11152E013083120313E6
:100C2000CA070318CB0A0030CB070A128A150A201C
:100C30000A128A118312031343034404031D272E4F
:100C40002E300A128A115D200A128A11352E313097
:100C50000A128A115D200A128A11013083120313CD
:100C6000CA070318CB0A0030CB070A168A116A2676
:100C70000A128A11C53083120313C70047089F0563
:100C80000D3083120313C800FB30C700C70B462E7C
:100C9000C80B462E831203131F151F194D2E063045
:100CA00083120313C9001330C800AD30C700C70B4F
:100CB000572EC80B572EC90B572E831603131E0829
:100CC000831203131E04031D742E32300A128A117C
:100CD0005D200A128A11013083120313CA07031818
:100CE000CB0A0030CB077A2E2E300A128A115D20F3
:100CF0000A128A110F308316031386002E300A124F
:100D00008A115D200A128A110A168A11F4260A1223
:100D10008A110A168A11C6260A128A11031C972EF6
:100D20002E300A128A115D200A128A11A52E333044
:100D30000A128A115D200A128A11013083120313EC
:100D4000CA070318CB0A0030CB0700300A128A15F5
:100D500093220A128A1101300A128A1593220A126A
:100D60008A110C300A128A1593220A128A11003055
:100D70000A128A1593220A128A11DB308312031396
:100D8000A8008130A9000A128A1558210A128A1176
:100D9000831203134A08303E0A128A115D200A1298
:100DA0008A111A3083120313C9005E30C8006D30F7
:100DB000C700C70BD92EC80BD92EC90BD92EE02ED0
:100DC00000300A128A1593220A128A1101300A127F
:100DD0008A159322080067308400831203132808C1
:100DE00083138000840A29088000840A2A0880006E
:100DF000840A2B088000840A2C08800000306806D2
:100E0000031D042F05306706031D0A2F83160313E5
:100E100085013C2F00306806031D102F0630670641
:100E2000031D162F8316031386013C2F003068061E
:100E3000031D1C2F07306706031D222F8316031383
:100E400087013C2F00306806031D282F08306706F5
:100E5000031D2E2F8316031388013C2F00306806D4
:100E6000031D342F09306706031D3A2F8316031321
:100E700089013C2F00300800823083120313AE003A
:100E8000DD30AD00AD0B422FAE0B422F03300A1206
:100E90008A1593220A128A11213083120313AE009D
:100EA0007530AD00AD0B522FAE0B522F572F0330C4
:100EB0000A128A1593220A128A11683083120313C8
:100EC000AE00E330AD00AD0B632FAE0B632F682F88
:100ED00003300A128A1593220A128A1102300A126A
:100EE0008A1593220A128A1102300A128A15932255
:100EF0000A128A1108300A128A1593220A128A11DC
:100F000000300A128A1593220A128A1106300A1238
:100F10008A1593220A128A11083083120313AD0036
:100F20002D08AF002F152F08AD0004300310AD0CB5
:100F3000FF3E031D962F2D080F390A128A159322A2
:100F40000A128A11831203132F080F390A128A1505
:100F500093220A128A1100300A128A1593220A1269
:100F60008A1101300A128A159322013008000030DC
:100F700083120313AC000030AB000030AA00003035
:100F8000A900201CD72F2408A9072508031103183E
:100F9000013E031DAA07260803110318013E031D85
:100FA000AB07270803110318013E031DAC070130EE
:100FB000A8000310A40DA50DA60DA70DA80BD92FF1
:100FC00001300310A30CA20CA10CA00CFF3E031DCA
:100FD000E12F2308220421042004031DC12F2C0823
:100FE000A3002B08A2002A08A1002908A0000800DD
:100FF00064008001840A0406031900340406F92FF2
:1010000083120313981C0628181218168C1E062823
:101010001A080800003083120313BE000030BD0020
:101020000030BC006430BB000A128A15E6210A12A7
:101030008A150A168A1131260A128A15D1300A1623
:101040008A119D260A128A150A168A11382603105B
:1010500083160313111F0314003003180130831289
:101060000313C500C6014508C3004608C4000800B4
:10107000831203132008210403196728A501A50A78
:10108000A11B4E2801300310A00DA10DFF3E031D32
:1010900043280130A4002408A50740282108230282
:1010A000031D542820082202031C5C282008A202E9
:1010B0002108031CA303A30201300310A10CA00C00
:1010C000FF3E031D5D280130A502031D4E282308A5
:1010D000A1002208A00008008A280F30860008001E
:1010E000260C031C0612031806160800260C031C07
:1010F0008612031886160800260C031C0613031814
:1011000006170800260C031C861303188617080010
:1011100086010800831203132508003A0319912859
:1011200088282408003A03196D28013A0319702809
:10113000033A03197628013A03197C28073A031960
:1011400082288828080083120313A400C530A20057
:1011500022089F052408A20002300310A20DFF3EC2
:10116000031DAD280310220DA30023089F040D309A
:1011700083120313A300FB30A200A20BBD28A30B14
:10118000BD288312031320080319D2281F151F1925
:10119000C7281E08A100831603131E088312031319
:1011A000A0000800831603130C17831203130C13FB
:1011B0001F15A001A101080083120313AB01AC01AC
:1011C0002608270403191529AD01AD0AA71BF42829
:1011D00001300310A60DA70DFF3E031DE9280130C5
:1011E000AA002A08AD07E62801300310AB0DAC0DAC
:1011F000FF3E031DF52827082902031D01292608A3
:101200002802031C0A292608A8022708031CA90390
:10121000A9022B1401300310A70CA60CFF3E031DDE
:101220000B290130AD02031DF4282C08A7002B0860
:10123000A600080083120313A601A401A5010A1247
:101240008A1500200A128A1583120313A2002208AD
:10125000A3000130A4070318A50A0030A50726083B
:101260002007840021080318210AFF000A128A11AE
:1012700000210A128A152306031D43290130A2000A
:101280002208A6074429A601260820078400210871
:101290000318210AFF000A128A1100210A128A1576
:1012A000003A031D1F292508A1002408A0000800FA
:1012B00083120313AD01AE012D082807AB002908E6
:1012C000AA000318AA0AAD1BAA03831203132A0853
:1012D000AC002C08FF002B0884000A128A110021A0
:1012E0000A128A15003A031908002D082807AB00D6
:1012F0002908AA000318AA0AAD1BAA038312031324
:101300002A08AC002C08FF002B0884000A128A115E
:1013100000210A128A150A128A115D200A128A1502
:10132000013083120313AD070318AE0A0030AE0775
:101330005C2983120313A601A31FA529A209A309EF
:10134000A20A0319A30AA601A60AA11FAC29A00993
:10135000A109A00A0319A10A200821040319D92907
:10136000A501A50AA11BC02901300310A00DA10DE4
:10137000FF3E031DB5290130A4002408A507B229AA
:1013800021082302031DC62920082202031CCE299E
:101390002008A2022108031CA303A30201300310AA
:1013A000A10CA00CFF3E031DCF290130A502031D97
:1013B000C02926080319E129A209A309A20A0319D1
:1013C000A30A2308A1002208A00008008316031323
:1013D000871507162830831203139400831603130E
:1013E0009101831203133B08BF003C08C0003D0875
:1013F000C1003E08C20002300310BF0DC00DC10D78
:10140000C20DFF3E031DFC294208A3004108A200B3
:101410004008A1003F08A0000030A7000030A6004F
:101420000330A500E830A4000A128A11B7270A1277
:101430008A15831203132308B0002208AF00210885
:10144000AE002008AD000130B4003130B3002D30C3
:10145000B2000030B1000A128A15F0228312031381
:101460002D08FF3E8316031393008030940008007C
:1014700083120313A601A11F442AA009A109A00AEF
:101480000319A10AA601A60AA31F4F2AA209A309AC
:10149000A20A0319A30A0130A4002408A606A70182
:1014A000A801200821040319862AA501A50AA11B69
:1014B000652A01300310A00DA10DFF3E031D5A2A1D
:1014C0000130A4002408A507572A01300310A70DF6
:1014D000A80DFF3E031D662A21082302031D722A60
:1014E00020082202031C7B2A2008A2022108031CD8
:1014F000A303A302271401300310A10CA00CFF3E8C
:10150000031D7C2A0130A502031D652A2608031944
:101510008E2AA709A809A70A0319A80A2808A10062
:101520002708A000080083120313A7000130A400BD
:1015300069080739013E9E2A0310A40DFF3E031DD2
:101540009C2A2408FF3AA500670884008317681CBA
:1015500083132508800527080A128A1545250A12D3
:101560008A15013083120313A400690CA500A50C91
:10157000250C0739013EBE2A0310A40DFF3E031DB2
:10158000BC2A2408A600670884008317681C8313FC
:10159000260880041A3083120313A500F730A40034
:1015A000A40BD02AA50BD02AD52A0130831203130D
:1015B000A400690CA500A50C250C0739013EE22A00
:1015C0000310A40DFF3E031DE02A2408FF3AA600E5
:1015D000670884008317681C8313260880050800A9
:1015E000003083120313B9000030B8000030B70098
:1015F0000030B60030082F042E042D040319472BA9
:10160000BA01BA0AB01B122B0130B5000310AD0DA0
:10161000AE0DAF0DB00DB50B062B0130B500350882
:10162000BA07022B0130B5000310B60DB70DB80D87
:10163000B90DB50B142B30083402031D292B2F08CC
:101640003302031D292B2E083202031D292B2D08DE
:101650003102031C3A2B2D08B1022E08031C2E0F59
:10166000B2022F08031C2F0FB3023008031C300FE7
:10167000B402361401300310B00CAF0CAE0CAD0C3C
:10168000FF3E031D3B2B0130BA02031D122B39080C
:10169000B0003808AF003708AE003608AD000800CB
:1016A00083120313AB000C30A1008230A2000A1693
:1016B0008A11B1270A128A150A128A1500200A1205
:1016C0008A1583120313A7002708AD0030302D02BE
:1016D000031C5C2B3A302D0203185C2BAC012C0848
:1016E0002B07A70027088400831380017B2B3A3047
:1016F0002D020318A62B0A30A7002708A0002C08EB
:101700002B07A80028088400831300080A168A11F2
:101710008A260A128A15831203132D07D03EA900C8
:101720002C082B07AA002A088400290883138000AC
:101730000A128A1500200A128A1583120313A700C1
:101740002708AD0030302D020318772B0A128A15B6
:1017500000200A128A1583120313A7002708AD0080
:101760000130A7002708AC0704302C02031C6F2BA4
:10177000BD30A0008230A1000A128A151A2108008B
:1017800000300A128A1593220A128A1501300A12B1
:101790008A1593220A128A150C300A128A1593228E
:1017A0000A128A1500300A128A1593220A128A1523
:1017B000AF3083120313A8008130A9000A128A15E2
:1017C00058210A128A15643083120313B2000030C4
:1017D000B3000D3083120313B100AF30B000B53049
:1017E000AF00AF0BF12BB00BF12BB10BF12BF82BA2
:1017F00083120313061D0800FF30B2070318B30A53
:10180000FF30B30732083304031DE92B00300A12FE
:101810008A1593220A128A1501300A128A15932218
:101820000A128A150C300A128A1593220A128A1596
:1018300000300A128A1593220A128A154030831248
:101840000313A8008230A9000A128A1558210A122F
:101850008A150D3083120313B100AF30B000B530DC
:10186000AF00AF0B312CB00B312CB10B312C382C1D
:101870000800E83083120313A6000330A7002F08E6
:10188000A9002E08A8000A128A15DC200A128A155F
:10189000831203132608303EB1003008840031085B
:1018A000831380006430A6000030A7002F08A30037
:1018B0002E08A200E830A0000330A1000A128A1509
:1018C00038200A128A15831203132108A900200860
:1018D000A8000A128A15DC200A128A158312031343
:1018E0002608303EB100300A84003108831380009E
:1018F0000A30A6000030A7002F08A3002E08A2007F
:101900006430A0000030A1000A128A1538200A12A3
:101910008A15831203132108A9002008A8000A12BF
:101920008A15DC200A128A15831203132608303E1A
:10193000B1003008023E84003108831380000A3071
:10194000A0000030A1002F08A3002E08A2000A1258
:101950008A153820831203132008303EB100300866
:10196000033E84003108831380003008043E840065
:1019700080010800303084000630FF0083138001AE
:10198000840AFF0BBE2C24308400D630831203134C
:10199000A0000408A1000C30A200200884008313DA
:1019A0000008A300A00A2108840023088000A10ADF
:1019B000A20BCD2CB801B80A38080319432D0A121E
:1019C0008A1500200A128A1583120313A00020082A
:1019D000B600B9013908A0002007243E8400831313
:1019E0000008A100840A0008A2003908303E8400E3
:1019F00000082107840022080318220AFF000A12A7
:101A00008A1100210A128A153606031D352D013070
:101A1000A0003908303E840020088313800739086D
:101A2000223E840081300318013EFF000A128A1111
:101A300000210A128A15A0003908303E8400831361
:101A400000082006031D3A2D39081C3E8400813011
:101A50000318013EFF000A128A1100210A128A159A
:101A6000A0002008B700B8013A2D3908303E8400A4
:101A7000831380010130A0002008B9070630390225
:101A80000318DC2CEA2C3708080083120313A30088
:101A9000231C5F2D0130A0006A080739013E522D3A
:101AA0000310A00DFF3E031D502D2008A100670864
:101AB00084008317681C831321088004742D01306F
:101AC000A0006A080739013E672D0310A00DFF3EF4
:101AD000031D652D2008FF3AA100670884008317C5
:101AE000681C831321088005A31C8E2D0130A000E3
:101AF0006A0CA100A10C210C0739013E812D0310B5
:101B0000A00DFF3E031D7F2D2008A2006708840062
:101B10008317681C831322088004A62D0130A000BF
:101B20006A0CA100A10C210C0739013E992D03106C
:101B3000A00DFF3E031D972D2008FF3AA200670865
:101B400084008317681C831322088005231DBD2D84
:101B50000130A0006B080739013EB02D0310A00D25
:101B6000FF3E031DAE2D2008A100670884008317E7
:101B7000681C831321088004D22D0130A0006B085B
:101B80000739013EC52D0310A00DFF3E031DC32DD7
:101B90002008FF3AA100670884008317681C83139C
:101BA00021088005A31DEC2D0130A0006B0CA100C5
:101BB000A10C210C0739013EDF2D0310A00DFF3EC3
:101BC000031DDD2D2008A200670884008317681C10
:101BD00083132208800408000130A0006B0CA100D0
:101BE000A10C210C0739013EF72D0310A00DFF3E7B
:101BF000031DF52D2008FF3AA20067088400831713
:101C0000681C831322088005080083120313A900AF
:101C10000A168A1131260A128A15D0300A168A113C
:101C20009D260A128A1500300A168A119D260A126C
:101C30008A150A168A113F260A128A15D1300A1609
:101C40008A119D260A128A15013083120313A000FF
:101C50000030A1000A168A11D6270A128A150A1620
:101C60008A110C270A128A1583120313A800290867
:101C700084002808831380000130A0000030A100F8
:101C80000A168A11D6270A128A150A168A110C27F3
:101C90000A128A1583120313A800290A840028084F
:101CA000831380000130A0000030A1000A168A11C1
:101CB000D6270A128A150A168A110C270A128A15C3
:101CC00083120313A8002908023E84002808831306
:101CD00080000130A0000030A1000A168A11D6272A
:101CE0000A128A150A168A110C270A128A158312FB
:101CF0000313A8002908033E8400280883138000EA
:101D00000130A0000030A1000A168A11D6270A125D
:101D10008A150A168A110C270A128A1583120313D0
:101D2000A8002908043E840028088313800001309D
:101D3000A0000030A1000A168A11D6270A128A15BF
:101D40000A168A110C270A128A1583120313A80097
:101D50002908053E84002808831380000030A00075
:101D6000A1000A168A11D6270A128A150A168A11A4
:101D70000C270A128A1583120313A8002908063EAD
:101D800084002808831380000A168A113826080068
:101D900008300A128A1593220A128A1500300A1294
:101DA0008A1593220A128A159F3083120313A80002
:101DB0008130A9000A128A1558210A128A150C309E
:101DC0000A128A1593220A128A1500300A128A15FD
:101DD00093220A128A158F3083120313A8008130D0
:101DE000A9000A128A1558210A128A150D30831289
:101DF0000313BD00AF30BC00B530BB00BB0BFE2EE3
:101E0000BC0BFE2EBD0BFE2E052F00300A128A15CC
:101E100093220A128A1501300A128A1593220A1295
:101E20008A1508300A128A1593220A128A15003080
:101E30000A128A1593220A128A150A168A11DD26B9
:101E40000A128A150A168A11B1260A128A156930F1
:101E500083120313A1008130A2000A168A11B12750
:101E60000A128A150A128A15BA240A128A15013A28
:101E7000031D3C2F6F303D2F65300A128A115D2003
:101E80000A128A1540300A128A1550230A128A153E
:101E9000BF3083120313A1008130A2000A168A11F9
:101EA000B1270A128A150A128A15BA240A128A154B
:101EB000013A031D5D2F6F305E2F65300A128A11C3
:101EC0005D200A128A15533083120313A10081305A
:101ED000A2000A168A11B1270A128A150A128A1557
:101EE000BA240A128A15013A031D782F6F30792F10
:101EF00065300A128A115D200A128A151A3083127F
:101F00000313BD005E30BC006D30BB00BB0B862FE1
:101F1000BC0B862FBD0B862F8D2F00300A128A1521
:101F200093220A128A1501300A128A1593220A1284
:101F30008A1508300A128A1593220A128A1500306F
:101F40000A128A1593220A128A1568300A128A1117
:101F50005D200A128A15733083120313A0008230A9
:101F6000A1000A128A151A210A128A1501300A12D2
:101F70008A115D200A128A1501300A128A115D2029
:101F80000A128A1501300A128A115D200A128A1576
:101F900001300A128A115D200A128A1501300A12D4
:101FA0008A115D200A128A1501300A128A115D20F9
:101FB0000A128A1501300A128A115D200A128A1546
:101FC00001300A128A115D200A128A1501300A12A4
:101FD0008A115D200A128A1501300A128A115D20C9
:101FE0000A128A1501300A128A115D200A128A1516
:101FF00001300A128A115D200A128A156830792F81
:102C5E00C83400340A168A1155268316031311142C
:102C6E0008000A168A11552683160313111508003B
:102C7E000A168A1155268316031391140800083478
:102C8E0000341A342C343E34B63402348312031317
:102C9E00A0000C1E502E2008990008008316031366
:102CAE001419552E11081F3903190800552EBD345D
:102CBE008234793482349D3482342D3482345F34BC
:102CCE00823466348234FF3083160313850041301C
:102CDE00831203139F00C030831603139F000B173C
:102CEE008B1708007E088A007F08820079260A1654
:102CFE008A118000840A04087D0603190034FF0A35
:102D0E000319FE0A7D2E83120313A300A201231CB6
:102D1E00942E2008A1002108A2070310A00D031075
:102D2E00A30C2308031D8E2E220808008312031302
:102D3E00A0000A168A1155260A168A118312031349
:102D4E002008930083160313111BAF2E03100800E7
:102D5E000314080002300A168A118D270A168A11EA
:102D6E00283083120313A1008130A2000A168A11A3
:102D7E00B1270A168A110A128A15BA240800983049
:102D8E0083120313A1008230A2000A168A11B12702
:102D9E000A168A110A128A15BA240A168A11013ADB
:102DAE000319DB2E031008000314080037308312BA
:102DBE000313A1008230A2000A168A11B1270A1647
:102DCE008A110A128A15BA240A168A11013A031DAB
:102DDE0008000A128A15BA24080083160313071373
:102DEE0087170A30990018151812831203139817B3
:102DFE0083160313981683120313181683160313E0
:102E0E001813831203131813080083120313A70059
:102E1E000F302705A4000A30A5002508A0002708BA
:102E2E00A60004300310A60CFF3E031D192F260822
:102E3E000A168A118A2683120313240708008312A6
:102E4E0003130C1F3F2F7408F0007007573E8400C9
:102E5E00831603131E0883138000840A8312031340
:102E6E001E0880000130F4070318F50A0030F5073C
:102E7E0073088A0072088400710E8300FE0E7E0EA7
:102E8E00090083120313AB00A901AA0129082B071D
:102E9E00A8002808840083130008031908002908D5
:102EAE002B07A8002808840000080A128A115D204A
:102EBE000A168A11013083120313A9070318AA0AEE
:102ECE000030AA074D2F83120313A401A501201C65
:102EDE00762F2208A4070318A50A2308A507013098
:102EEE000310A20DA30DFF3E031D772F013003101B
:102EFE00A10CA00CFF3E031D7E2F20082104031DF4
:102F0E006E2F2508A1002408A000080083120313C9
:102F1E00BA002230A1008230A2000A168A11B1270F
:102F2E000A168A11831203133A08303E0A168A11C2
:102F3E004D260A168A11953083120313A100823092
:102F4E00A2000A168A11B1270A168A110A128A15C8
:102F5E00BA240800831203132208FF0021088400FC
:102F6E000A128A1100210A168A11003A0319080062
:102F7E002208FF00210884000A128A1100210A1675
:102F8E008A110A168A114D260A168A1101308312E9
:102F9E000313A1070318A20A0030A207B12F0A16C5
:102FAE008A1155260A168A118316031391150A16CD
:102FBE008A1155260A168A11831203131308A200CA
:102FCE002208A3000A168A1155260A168A118312A0
:102FDE00031320082104031DF82F831603139116E3
:102FEE00FB2F83160313911211168312031323085A
:022FFE000800C9
:02400E007A3FF7
:00000001FF
