:020000040000FA
:060000000A128A110E280D
:10000800FE00030EF1000408F2000A08F3000A16C5
:100018008A11752F0A128A1111288313E230FD0004
:100028001630FE00AD30FF00D63084000A168A1163
:10003800CC260A128A116E30FD001630FE0095306B
:10004800FF00673084000A168A11CC260A128A112A
:100058000A128A11FD270A128A11F6000A128A1159
:10006800FE270A128A11F700831790308400B630F1
:100078000A128A1500200A128A118313A0308400FC
:10008800D6300A128A1500200A128A1157308400C5
:1000980067300A128A15002083010A128A11C32ABE
:1000A80083120313A7000130A40069080739013E31
:1000B8005F280310A40DFF3E031D5D282408A5003A
:1000C800670884008317681C8313250880042708A1
:1000D800A40004300310A40CFF3E031D6E2824085E
:1000E8000F390A128A1539250A128A11013083122A
:1000F8000313A400690CA500A50C250C0739013EC3
:1001080087280310A40DFF3E031D85282408A60098
:10011800670884008317681C83132608800441300D
:1001280083120313A400A40B97289A280130831282
:100138000313A400690CA500A50C250C0739013E82
:10014800A7280310A40DFF3E031DA5282408FF3A85
:10015800A600670884008317681C83132608800597
:1001680027080F390A128A1539250A128A1101300F
:1001780083120313A400690CA500A50C250C0739EC
:10018800013EC8280310A40DFF3E031DC6282408FD
:10019800A600670884008317681C83132608800458
:1001A800413083120313A400A40BD828DB280130A4
:1001B80083120313A400690CA500A50C250C0739AC
:1001C800013EE8280310A40DFF3E031DE62824087D
:1001D800FF3AA600670884008317681C8313260863
:1001E8008005080083120313981CFC28181218169F
:1001F8008C1EFC281A080800FF1B0A2983137F1885
:1002080083170008840A0319FF0A08007F087F394A
:100218008A000408840A0319FF0A820001340034A2
:100228000A34003464340034E83403341034273496
:1002380001340234033404340534063402340534FA
:100248000434093406340634413454342B344334EA
:1002580057345334413450345F344434453446348D
:100268003D3422345334613466346534673475342C
:1002780061347234643422342C342234533461347B
:1002880066346534673475346134723464342234C6
:100298002C3435342C3433340D340A34003441349E
:1002A80054342B3443344934503453344534523461
:1002B8005634453452343D3431342C3431343034AE
:1002C800303431340D340A340034413454342B344E
:1002D8004334573444344834433450345F3444341A
:1002E800453446343D3430342C3431340D340A34FA
:1002F80000345334743461347234743469346E3471
:100308006734203453346534723476346934633452
:1003180065347334003450345734523420343A340A
:100328002034533461346634653467347534613449
:1003380072346434003453345334493444343A34D2
:100348002034533461346634653467347534613429
:1003580072346434003456344F344C345434413499
:100368004734453420347734613472346E34693418
:100378006E3467340034413454342B3443344934B4
:1003880050344D34553458343D3431340D340A34F6
:100398000034413454342B344334493450345334C6
:1003A80054344134523454343D34223400344534C6
:1003B800523452344F345234203446344F34553446
:1003C8004E3444343D34003449346E346934743422
:1003D800693461346C3469347A3469346E3467341E
:1003E8000034413454342B34433449345034533476
:1003F80045344E3444343D340034413454342B3481
:10040800433457345134413450340D340A340034B1
:10041800413454342B3443344934463453345234FD
:100428000D340A340034413454342B3443345734B3
:100438004A34413450343D34223400344134543445
:100448002B34433457344D344F34443445343D34DD
:1004580000346E346F3420346334683461346E345D
:10046800673465340034413454342B3452345334B3
:1004780054340D340A3400345434653473347434C9
:1004880069346E34673400346E3461346D346534E5
:100498006C3465346E3400347034613473347334BE
:1004A8006C3465346E3400346334743473345F34BC
:1004B8006E346F3400344C3469346E346B346534C4
:1004C8006434003455346E346C3469346E346B34AF
:1004D80000344534723472346F34723400342B343F
:1004E8004934503444342C34003472346534613423
:1004F800643479340034203449343D3420340034B1
:100508006E3461346D34653400347034613473345E
:1005180073340034643461347934733400340D3402
:100528000A340D340A340034413454340D340A3456
:1005380000344634413449344C34003456343D3464
:100548002034003422340D340A34003422342C345C
:100558002234003441345434453400345434433460
:1005680050340034553444345034003422342C345C
:1005780000344F344B34003425347534003483123E
:100588000313DD01DE01E101E201DF01E0010030DA
:100598000A128A15F7220A128A1101300A128A15DC
:1005A800F7220A128A110A128A15BC260A128A111F
:1005B800013083120313DD070318DE0A0030DE075B
:1005C800A001A00A00300A128A15C6200A128A1150
:1005D800831203132108E4002008E3006308CF070F
:1005E8000318D00A6408D007D501D6018312031373
:1005F800A001A00A55080A128A15C6200A128A11F3
:10060800831203135508CC004C07573E840020087A
:1006180083138000840A210880005508CC004C0709
:10062800573E84000008CD00840A0008CE004D081B
:10063800D1070318D20A4E08D2070130D50703188C
:10064800D60A0030D6075608803AFF0080307F026D
:10065800031D302B04305502031CFA2A3230831252
:1006680003135D065E04031D652B3230A6000030BF
:10067800A7005008A9004F08A8000A128A15FF20F1
:100688000A128A11831203132708E2002608E100E0
:100698003230A6000030A7005208A9005108A8006F
:1006A8000A128A15FF200A128A11831203132708D7
:1006B800E0002608DF00CF01D001D101D201DD0121
:1006C800DE010230831203136402B7300319630298
:1006D800031C7F2B0030A400A5000030A600A70053
:1006E8000A128A158F200A128A110A128A15B4234F
:1006F8000A128A11652B86196E2B0530A40000306A
:10070800A5000030A600A7000A128A158F200A1239
:100718008A11CF300A128A15F9250A128A11831212
:1007280003136208B3006108B2006008B5005F08EF
:10073800B400CF300A128A11B2250A128A11831620
:100748000313510883120313CC00CD014C08A000F9
:100758004D08A1006430A2000030A3000A168A11D7
:10076800B9270A128A118316031350088312031338
:100778002007D3000030031801302107D400D50129
:10078800D6016608803ACC005608803A4C02031D10
:10079800CF2B55086502031C482C0630831203131F
:1007A800CC004C08A00055080A168A11D9260A124E
:1007B8008A11A03E84008313000883120313CD001E
:1007C800840A0008CE004E085402031DED2B4D0884
:1007D8005302031C222C0630CC004C08A0005508FC
:1007E8000A168A11D9260A128A11A23E8400831396
:1007F800000883120313CD00840A0008CE005408B1
:100808004E02031D092C53084D02031C222C0630EE
:10081800CC004C08A00055080A168A11D9260A12DD
:100828008A11A43E84008313000883120313A400D2
:10083800840A0008A5000030A600392C0630CC0038
:100848004C08A00055080A168A11D9260A128A11DE
:10085800A43E84008313000883120313A400840AAF
:100868000008A5000130A6000030A7000A128A156A
:100878008F200A128A11013083120313D507031837
:10088800D60A0030D607C52B831203138618DC2A34
:100898000A128A1152240A128A11DC2A08300A1212
:1008A8008A15F7220A128A1100300A128A15F722CD
:1008B8000A128A119F3083120313A8008130A900FD
:1008C8000A128A157B210A128A110C300A128A151B
:1008D800F7220A128A1100300A128A15F7220A1220
:1008E8008A118F3083120313A8008130A9000A12DD
:1008F8008A157B210A128A110D3083120313BD0059
:10090800AF30BC00B530BB00BB0B882CBC0B882CAF
:10091800BD0B882C8F2C00300A128A15F7220A1278
:100928008A1101300A128A15F7220A128A11083030
:100938000A128A15F7220A128A1100300A128A1539
:10094800F7220A128A110A168A112C270A128A110A
:100958000A168A1100270A128A11693083120313B2
:10096800A1008130A2000A128A1508200A128A11F1
:100978000A128A15AE240A128A11013A031DC62CDE
:100988006F30C72C65300A128A1154200A128A1156
:10099800BF3083120313A1008130A2000A128A1506
:1009A80008200A128A110A128A15AE240A128A111C
:1009B800013A031DE12C6F30E22C65300A128A11CE
:1009C80054200A128A11533083120313A100813074
:1009D800A2000A128A1508200A128A110A128A1518
:1009E800AE240A128A11013A031DFC2C6F30FD2C2B
:1009F80065300A128A1154200A128A111A30831299
:100A08000313BD005E30BC006D30BB00BB0B0A2D6C
:100A1800BC0B0A2DBD0B0A2D112D00300A128A15A8
:100A2800F7220A128A1101300A128A15F7220A12CD
:100A38008A1108300A128A15F7220A128A11003020
:100A48000A128A15F7220A128A1168300A128A11C4
:100A580054200A128A11733083120313A0008230C3
:100A6800A1000A128A153D210A128A110A128A1156
:100A7800F6200A128A1183120313BB003B08C9002F
:100A880049080A128A1154200A128A112C3083123A
:100A980003134906031D3A2D0A128A11F6200A1279
:100AA8008A11D03E83120313C700FF3003180030A9
:100AB800C8004708303E0A128A1154200A128A11C7
:100AC8000A128A11F6200A128A1183120313BB0034
:100AD8003B08C90049080A128A1154200A128A11CF
:100AE8003A30831203134906031D642DCA01CB0152
:100AF800CA01CB0148084B02031D842D47084A024E
:100B08000318A62D0A128A11F6200A128A118312D6
:100B18000313BB004A08403E84003B08831380004F
:100B28004A08403E840000080A128A1154200A121A
:100B38008A11013083120313CA070318CB0A003045
:100B4800CB077E2D4A08403E84008313800168301D
:100B58000A128A1154200A128A11112D83120313C2
:100B6800C7000A30A0000030A100470884008313A2
:100B78000008B600B7013608A2003708A3000A1219
:100B88008A15FD210A128A11831203132008303EA8
:100B9800B8003808BD000A30A0000030A10047089E
:100BA800840083130008B600B7013608A20037088E
:100BB800A3000A128A159C220A128A1183120313AF
:100BC8002008303EB8003808BE000A30A0000030C7
:100BD800A100470A840083130008B600B70136084D
:100BE800A2003708A3000A128A15FD210A128A11E9
:100BF800831203132008303EB8003808BF000A30BB
:100C0800A0000030A100470A840083130008B60042
:100C1800B7013608A2003708A3000A128A159C22D9
:100C28000A128A11831203132008303EB8003808CC
:100C3800C0000A30A0000030A1004708023E84002E
:100C480083130008B600B7013608A2003708A300CE
:100C58000A128A15FD210A128A1183120313200829
:100C6800303EB8003808C1000A30A0000030A100AA
:100C78004708023E840083130008B600B70136080F
:100C8800A2003708A3000A128A159C220A128A11A8
:100C9800831203132008303EB8003808C200083019
:100CA8000A128A15F7220A128A1100300A128A15C6
:100CB800F7220A128A118312031342080A128A11B0
:100CC80054200A128A118312031341080A128A1146
:100CD80054200A128A113A300A128A1154200A1230
:100CE8008A118312031340080A128A1154200A1227
:100CF8008A11831203133F080A128A1154200A1218
:100D08008A113A300A128A1154200A128A1183125F
:100D180003133E080A128A1154200A128A118312F8
:100D280003133D080A128A1154200A128A110A3044
:100D380083120313A6000030A7003308B700320857
:100D4800B6000310B60DB70D0310B60DB70D360873
:100D5800A8003708A9000A128A15FF200A128A116A
:100D6800831203132708BA002608B9003A08AF000F
:100D78003908AE004330B6003608B0000A128A15AA
:100D88002D240A128A110C300A128A15F7220A1227
:100D98008A1100300A128A15F7220A128A11A23023
:100DA80083120313A8008230A9000A128A157B2136
:100DB8000A128A1143300A168A1197270A128A11D1
:100DC800831203133508BC003408BB003C08AF008D
:100DD8003B08AE004330B6003608B0000A128A1548
:100DE8002D240A128A117F3083120313A80082303F
:100DF800A9000A128A157B210A128A1143300A16A1
:100E08008A11972708006730840083120313280883
:100E180083138000840A29088000840A2A08800035
:100E2800840A2B088000840A2C0880000030680699
:100E3800031D202F05306706031D262F8316031375
:100E48008501582F00306806031D2C2F06306706D1
:100E5800031D322F831603138601582F00306806AE
:100E6800031D382F07306706031D3E2F8316031313
:100E78008701582F00306806031D442F0830670685
:100E8800031D4A2F831603138801582F0030680664
:100E9800031D502F09306706031D562F83160313B1
:100EA8008901582F00300800823083120313AE00E6
:100EB800DD30AD00AD0B5E2FAE0B5E2F03300A1296
:100EC8008A15F7220A128A11213083120313AE0001
:100ED8007530AD00AD0B6E2FAE0B6E2F732F033038
:100EE8000A128A15F7220A128A116830831203132C
:100EF800AE00E330AD00AD0B7F2FAE0B7F2F842FFC
:100F080003300A128A15F7220A128A1102300A12CD
:100F18008A15F7220A128A1102300A128A15F72254
:100F28000A128A1108300A128A15F7220A128A113F
:100F380000300A128A15F7220A128A1106300A129C
:100F48008A15F7220A128A11083083120313AD009A
:100F58002D08AF002F152F08AD0004300310AD0C7D
:100F6800FF3E031DB22F2D080F390A128A15F722EA
:100F78000A128A11831203132F080F390A128A15CD
:100F8800F7220A128A1100300A128A15F7220A1269
:100F98008A1101300A128A15F722013008000A1650
:100FA8008A11A4260A128A118316031391150A16A8
:100FB8008A11A4260A128A11831203131308A200A5
:100FC8002208A3000A168A11A4260A128A1183127B
:100FD800031320082104031DF52F8316031391160C
:100FE800F82F831603139112111683120313230883
:060FF8000800C8340034BB
:1010000064008001840A04060319003404060128E0
:10101000831203132208FF00210884000A128A1198
:1010200000210A128A15003A031908002208FF005D
:10103000210884000A128A1100210A128A150A1650
:101040008A119C260A128A15013083120313A10704
:101050000318A20A0030A2070828003083120313E5
:10106000BE000030BD000030BC006430BB000A127E
:101070008A154A220A128A150A168A1180260A122D
:101080008A15D1300A168A11EC260A128A150A1618
:101090008A118726031083160313111F03140030CF
:1010A0000318013083120313C500C6014508C300AD
:1010B0004608C40008008312031320082104031902
:1010C0008A28A501A50AA11B712801300310A00DD3
:1010D000A10DFF3E031D66280130A4002408A507CA
:1010E000632821082302031D772820082202031CFD
:1010F0007F282008A2022108031CA303A3020130B9
:101100000310A10CA00CFF3E031D80280130A50296
:10111000031D71282308A1002208A0000800AD28A3
:101120000F3086000800260C031C06120318061652
:101130000800260C031C8612031886160800260CCD
:10114000031C0613031806170800260C031C86133D
:101150000318861708008601080083120313250868
:10116000003A0319B428AB282408003A0319902840
:10117000013A03199328033A03199928013A0319EC
:101180009F28073A0319A528AB28080083120313E8
:10119000A400C530A20022089F052408A200023046
:1011A0000310A20DFF3E031DD0280310220DA30043
:1011B00023089F040D3083120313A300FB30A20009
:1011C000A20BE028A30BE0288312031320080319C5
:1011D000F5281F151F19EA281E08A10083160313FE
:1011E0001E0883120313A0000800831603130C17B4
:1011F000831203130C131F15A001A1010800831211
:101200000313AB01AC012608270403193829AD01EB
:10121000AD0AA71B172901300310A60DA70DFF3E2D
:10122000031D0C290130AA002A08AD070929013045
:101230000310AB0DAC0DFF3E031D18292708290232
:10124000031D242926082802031C2D292608A8028C
:101250002708031CA903A9022B1401300310A70CB3
:10126000A60CFF3E031D2E290130AD02031D1729D8
:101270002C08A7002B08A600080083120313A60160
:10128000A401A5010A128A11F6200A128A158312F6
:101290000313A2002208A3000130A4070318A50A23
:1012A0000030A50726082007840021080318210A1A
:1012B000FF000A128A1100210A128A152306031D53
:1012C00066290130A2002208A6076729A601260880
:1012D0002007840021080318210AFF000A128A113E
:1012E00000210A128A15003A031D42292508A1008F
:1012F0002408A000080083120313AD01AE012D08DD
:101300002807AB002908AA000318AA0AAD1BAA03E4
:10131000831203132A08AC002C08FF002B0884005A
:101320000A128A1100210A128A15003A03190800CC
:101330002D082807AB002908AA000318AA0AAD1B2C
:10134000AA03831203132A08AC002C08FF002B0801
:1013500084000A128A1100210A128A150A128A11BF
:1013600054200A128A15013083120313AD070318A3
:10137000AE0A0030AE077F29003083120313AC00A1
:101380000030AB000030AA000030A900201CDC298E
:101390002408A907250803110318013E031DAA0705
:1013A000260803110318013E031DAB07270803118C
:1013B0000318013E031DAC070130A8000310A40D63
:1013C000A50DA60DA70DA80BDE2901300310A30C57
:1013D000A20CA10CA00CFF3E031DE6292308220449
:1013E00021042004031DC6292C08A3002B08A200F9
:1013F0002A08A1002908A000080083120313A601EF
:10140000A31F092AA209A309A20A0319A30AA60174
:10141000A60AA11F102AA009A109A00A0319A10A5E
:101420002008210403193D2AA501A50AA11B242A8D
:1014300001300310A00DA10DFF3E031D192A01303C
:10144000A4002408A507162A21082302031D2A2A1E
:1014500020082202031C322A2008A2022108031CB1
:10146000A303A30201300310A10CA00CFF3E031D37
:10147000332A0130A502031D242A26080319452A10
:10148000A209A309A20A0319A30A2308A10022089A
:10149000A00008008316031387150716283083124F
:1014A00003139400831603139101831203133B0863
:1014B000BF003C08C0003D08C1003E08C200023029
:1014C0000310BF0DC00DC10DC20DFF3E031D602AEC
:1014D0004208A3004108A2004008A1003F08A00064
:1014E0000030A7000030A6000330A500E830A400BB
:1014F0000A128A15BC210A128A15831203132308C3
:10150000B0002208AF002108AE002008AD00013075
:10151000B4003130B3002D30B2000030B1000A12F7
:101520008A155423831203132D08FF3E83160313D9
:10153000930080309400080083120313A601A11FBA
:10154000A82AA009A109A00A0319A10AA601A60AAE
:10155000A31FB32AA209A309A20A0319A30A0130EF
:10156000A4002408A606A701A80120082104031945
:10157000EA2AA501A50AA11BC92A01300310A00D62
:10158000A10DFF3E031DBE2A0130A4002408A507BB
:10159000BB2A01300310A70DA80DFF3E031DCA2A68
:1015A00021082302031DD62A20082202031CDF2A59
:1015B0002008A2022108031CA303A3022714013060
:1015C0000310A10CA00CFF3E031DE02A0130A50270
:1015D000031DC92A26080319F22AA709A809A70A80
:1015E0000319A80A2808A1002708A00008008312F0
:1015F0000313A7000130A40069080739013E022B3C
:101600000310A40DFF3E031D002B2408FF3AA50084
:10161000670884008317681C831325088005270842
:101620000A128A1539250A128A150130831203130A
:10163000A400690CA500A50C250C0739013E222B3E
:101640000310A40DFF3E031D202B2408A6006708ED
:1016500084008317681C8313260880041A308312C1
:101660000313A500F730A400A40B342BA50B342BD7
:10167000392B013083120313A400690CA500A50CBB
:10168000250C0739013E462B0310A40DFF3E031D18
:10169000442B2408FF3AA600670884008317681CBF
:1016A0008313260880050800003083120313B90055
:1016B0000030B8000030B7000030B60030082F040A
:1016C0002E042D040319AB2BBA01BA0AB01B762BDA
:1016D0000130B5000310AD0DAE0DAF0DB00DB50B63
:1016E0006A2B0130B5003508BA07662B0130B5000A
:1016F0000310B60DB70DB80DB90DB50B782B30082A
:101700003402031D8D2B2F083302031D8D2B2E0851
:101710003202031D8D2B2D083102031C9E2B2D0838
:10172000B1022E08031C2E0FB2022F08031C2F0F2C
:10173000B3023008031C300FB4023614013003101A
:10174000B00CAF0CAE0CAD0CFF3E031D9F2B013057
:10175000BA02031D762B3908B0003808AF003708ED
:10176000AE003608AD00080000300A128A15F722D4
:101770000A128A1501300A128A15F7220A128A15EE
:101780000C300A128A15F7220A128A1500300A1242
:101790008A15F7220A128A15AF3083120313A800A4
:1017A0008130A9000A128A157B210A128A15643039
:1017B00083120313B2000030B3000D308312031301
:1017C000B100AF30B000B530AF00AF0BE52BB00BC0
:1017D000E52BB10BE52BEC2B83120313061D080040
:1017E000FF30B2070318B30AFF30B30732083304DF
:1017F000031DDD2B00300A128A15F7220A128A1502
:1018000001300A128A15F7220A128A150C300A12C0
:101810008A15F7220A128A1500300A128A15F72251
:101820000A128A15403083120313A8008230A900DF
:101830000A128A157B210A128A150D3083120313AE
:10184000B100AF30B000B530AF00AF0B252CB00BFE
:10185000252CB10B252C2C2C0800E8308312031307
:10186000A6000330A7002F08A9002E08A8000A121E
:101870008A15FF200A128A15831203132608303EA8
:10188000B100300884003108831380006430A60062
:101890000030A7002F08A3002E08A200E830A00007
:1018A0000330A1000A128A155B200A128A158312DE
:1018B00003132108A9002008A8000A128A15FF2096
:1018C0000A128A15831203132608303EB100300A2B
:1018D00084003108831380000A30A6000030A7007E
:1018E0002F08A3002E08A2006430A0000030A10041
:1018F0000A128A155B200A128A1583120313210823
:10190000A9002008A8000A128A15FF200A128A15C9
:10191000831203132608303EB1003008023E8400D3
:101920003108831380000A30A0000030A1002F0886
:10193000A3002E08A2000A128A155B20831203134B
:101940002008303EB1003008033E84003108831384
:1019500080003008043E840080010800303084009C
:101960000630FF0083138001840AFF0BB22C243061
:101970008400D63083120313A0000408A1000C30A9
:10198000A2002008840083130008A300A00A2108F5
:10199000840023088000A10AA20BC12CB801B80A58
:1019A00038080319372D0A128A11F6200A128A15EF
:1019B00083120313A0002008B600B9013908A00063
:1019C0002007243E840083130008A100840A000835
:1019D000A2003908303E8400000821078400220854
:1019E0000318220AFF000A128A1100210A128A151E
:1019F0003606031D292D0130A0003908303E840031
:101A00002008831380073908223E840081300318A0
:101A1000013EFF000A128A1100210A128A15A00055
:101A20003908303E8400831300082006031D2E2D44
:101A300039081C3E840081300318013EFF000A1261
:101A40008A1100210A128A15A0002008B700B801E7
:101A50002E2D3908303E8400831380010130A00010
:101A60002008B907063039020318D02CDE2C3708BD
:101A7000080083120313A300231C532D0130A00080
:101A80006A080739013E462D0310A00DFF3E031DD5
:101A9000442D2008A100670884008317681C831365
:101AA00021088004682D0130A0006A080739013E32
:101AB0005B2D0310A00DFF3E031D592D2008FF3A9A
:101AC000A100670884008317681C83132108800520
:101AD000A31C822D0130A0006A0CA100A10C210CD6
:101AE0000739013E752D0310A00DFF3E031D732D18
:101AF0002008A200670884008317681C831322084B
:101B000080049A2D0130A0006A0CA100A10C210CC8
:101B10000739013E8D2D0310A00DFF3E031D8B2DB7
:101B20002008FF3AA200670884008317681C83130B
:101B300022088005231DB12D0130A0006B08073954
:101B4000013EA42D0310A00DFF3E031DA22D200871
:101B5000A100670884008317681C83132108800490
:101B6000C62D0130A0006B080739013EB92D0310C6
:101B7000A00DFF3E031DB72D2008FF3AA100670806
:101B800084008317681C831321088005A31DE02DA2
:101B90000130A0006B0CA100A10C210C0739013E03
:101BA000D32D0310A00DFF3E031DD12D2008A20050
:101BB000670884008317681C8313220880040800C8
:101BC0000130A0006B0CA100A10C210C0739013ED3
:101BD000EB2D0310A00DFF3E031DE92D2008FF3A59
:101BE000A200670884008317681C831322088005FD
:101BF000080083120313A9000A168A1180260A120C
:101C00008A15D0300A168A11EC260A128A1500307D
:101C10000A168A11EC260A128A150A168A118E26CD
:101C20000A128A15D1300A168A11EC260A128A1570
:101C3000013083120313A0000030A1000A128A11A0
:101C4000D3270A128A150A168A115B270A128A15E7
:101C500083120313A8002908840028088313800036
:101C60000130A0000030A1000A128A11D3270A1205
:101C70008A150A168A115B270A128A158312031322
:101C8000A800290A84002808831380000130A000DE
:101C90000030A1000A128A11D3270A128A150A16E7
:101CA0008A115B270A128A1583120313A8002908D8
:101CB000023E84002808831380000130A000003019
:101CC000A1000A128A11D3270A128A150A168A114C
:101CD0005B270A128A1583120313A8002908033E02
:101CE00084002808831380000130A0000030A10088
:101CF0000A128A11D3270A128A150A168A115B273B
:101D00000A128A1583120313A8002908043E8400CE
:101D10002808831380000130A0000030A1000A12BF
:101D20008A11D3270A128A150A168A115B270A120A
:101D30008A1583120313A8002908053E8400280889
:101D4000831380000030A000A1000A128A11D3275B
:101D50000A128A150A168A115B270A128A1583123B
:101D60000313A8002908063E840028088313800076
:101D70000A168A118726080083120313CA01CB01B1
:101D80001A3083120313C9005E30C8006D30C700DB
:101D9000C70BC82EC80BC82EC90BC82ECF2E283093
:101DA000840083120313670883138000840A680881
:101DB0008000840A69088000840A6A088000840A16
:101DC0006B0880000A128A1107270A128A15003A46
:101DD0000319222F00300A128A15F7220A128A15D7
:101DE00001300A128A15F7220A128A1508300A12DF
:101DF0008A15F7220A128A1501300A128A15F7226B
:101E00000A128A15E83083120313A8008130A90052
:101E10000A128A157B210A128A15063083120313CF
:101E2000C9001330C800AD30C700C70B152FC80B51
:101E3000152FC90B152F2E300A128A1154200A12A1
:101E40008A152A2F013083120313CA070318CB0AFD
:101E50000030CB070A128A152D200A128A15831228
:101E6000031343034404031D3C2F2E300A128A112E
:101E700054200A128A154A2F31300A128A1154202E
:101E80000A128A15013083120313CA070318CB0AFA
:101E90000030CB070A168A11B9260A128A15C530F6
:101EA00083120313C70047089F050D3083120313E5
:101EB000C800FB30C700C70B5B2FC80B5B2F83121A
:101EC00003131F151F19622F063083120313C90055
:101ED0001330C800AD30C700C70B6C2FC80B6C2F78
:101EE000C90B6C2F831603131E08831203131E04E1
:101EF000031D892F32300A128A1154200A128A15C2
:101F0000013083120313CA070318CB0A0030CB0732
:101F10008F2F2E300A128A1154200A128A150F3080
:101F20008316031386002E300A128A1154200A12D7
:101F30008A150A168A1143270A128A150A168A1167
:101F400015270A128A15031CAC2F2E300A128A118B
:101F500054200A128A15BA2F33300A128A115420DB
:101F60000A128A15013083120313CA070318CB0A19
:101F70000030CB0700300A128A15F7220A128A15A0
:101F800001300A128A15F7220A128A150C300A1239
:101F90008A15F7220A128A1500300A128A15F722CA
:101FA0000A128A15DB3083120313A8008130A900BE
:101FB0000A128A157B210A128A15831203134A0812
:101FC000303E0A128A1154200A128A151A308312DE
:101FD0000313C9005E30C8006D30C700C70BEE2F79
:101FE000C80BEE2FC90BEE2FF52F00300A128A1501
:101FF000F7220A128A1501300A128A15F722080000
:102D00000A168A11A42683160313111408000A1642
:102D10008A11A42683160313111508000A168A11B6
:102D2000A4268316031391140800083400341A34BF
:102D30002C343E34B634023483120313A0000C1E2C
:102D40009F2E200899000800831603131419A42E3F
:102D500011081F3903190800A42EBD3482347934B8
:102D600082349D3482342D3482345F34823466342C
:102D70008234FF308316031385004130831203131E
:102D80009F00C030831603139F000B178B1708009A
:102D90007E088A007F088200C8260A168A118000F1
:102DA000840A04087D0603190034FF0A0319FE0A89
:102DB000CC2E83120313A300A201231CE32E2008B0
:102DC000A1002108A2070310A00D0310A30C2308E3
:102DD000031DDD2E2208080083120313A0000A162B
:102DE0008A11A4260A168A1183120313200893005D
:102DF00083160313111BFE2E031008000314080092
:102E000002300A168A11DC270A168A11283083122A
:102E10000313A1008130A2000A128A1508200A16A5
:102E20008A110A128A15AE240800983083120313FF
:102E3000A1008230A2000A128A1508200A168A11FF
:102E40000A128A15AE240A168A11013A03192A2F8A
:102E50000310080003140800373083120313A10085
:102E60008230A2000A128A1508200A168A110A1254
:102E70008A15AE240A168A11013A031D08000A12A7
:102E80008A15AE24080083160313071387170A3028
:102E90009900181518128312031398178316031339
:102EA000981683120313181683160313181383122C
:102EB00003131813080083120313A7000F3027050C
:102EC000A4000A30A5002508A0002708A6000430A9
:102ED0000310A60CFF3E031D682F26080A168A1150
:102EE000D9268312031324070800831203130C1F2F
:102EF0008E2F7408F0007007573E8400831603136A
:102F00001E0883138000840A831203131E088000A6
:102F10000130F4070318F50A0030F50773088A003A
:102F200072088400710E8300FE0E7E0E090083126B
:102F30000313AB00A901AA0129082B07A800280840
:102F40008400831300080319080029082B07A80030
:102F50002808840000080A128A1154200A168A11CF
:102F6000013083120313A9070318AA0A0030AA0725
:102F70009C2F83120313A401A501201CC52F220836
:102F8000A4070318A50A2308A50701300310A20D02
:102F9000A30DFF3E031DC62F01300310A10CA00C92
:102FA000FF3E031DCD2F20082104031DBD2F250842
:102FB000A1002408A000080083120313BA002230E5
:102FC000A1008230A2000A128A1508200A168A116E
:102FD000831203133A08303E0A168A119C260A16F9
:102FE0008A11953083120313A1008230A2000A12C5
:102FF0008A1508200A168A110A128A15AE240800BA
:02400E007A3FF7
:00000001FF
